:02000002D0002C
:1040000000400D009C8D0D00000006000D00050114
:084010000401BB0400000000E4
:104018002C820D0009480A49884208B505D0094A8A
:10402800824202D0121A03F0FFFB0748074A002118
:10403800121A03F004FC014808BD00BF2CE003205D
:10404800208C0D0080E1032080E10320F0E70320AD
:1040580070B502F0C7FE074C074BE41AA408002508
:104068001E46A54204D056F8253098470135F8E792
:1040780070BD00BF188C0D00E08B0D0000F020BF54
:1040880008B500F0E9FCBDE8084002F079BE01F08F
:104098004FBB01F055BB01F053BB0078B0FA80F07C
:1040A80040097047012303707047000008B50449B0
:1040B80002F054FB18B1034B03221A70012008BD0B
:1040C800EF850D00F5E1032001F00CB901F012B9FC
:1040D80037B59DF8184023438DF800303C2305463A
:1040E80001F00CFE284603B030BD000030B58FB09B
:1040F8001549164D164C04A801F0A6FB04A801F0BA
:10410800FEFB286004A801F063FC04A884ED000A03
:1041180001F044FC0F4B2D6883ED000A10EE100AE5
:1041280003F0D4F9CDE90201206803F0CFF9CDE915
:104138000001094B094A53F825300948402101F08C
:104148001FFB0FB030BD00BF1CE3032060E203205B
:1041580024E2032064E20320A8E0032080820D000B
:104168006CE2032007B5642002F00EFA07EE900A0D
:10417800834BF8EEE77AC3ED007A17EE900A03F066
:10418800A5F9804ACDE9000110217F4801F0F8FA2D
:10419800642002F0F9F907EE900A7C4BF8EEE77A12
:1041A800C3ED007A17EE900A03F090F9754ACDE94D
:1041B80000011021764801F0E3FA642002F0E4F9E6
:1041C80007EE900A734BF8EEE77AC3ED007A17EE24
:1041D800900A03F07BF96B4ACDE9000110216E4883
:1041E80001F0CEFA642002F0CFF907EE900A6B4B8B
:1041F800F8EEE77AC3ED007A17EE900A03F066F955
:10420800604ACDE900011021654801F0B9FA64203F
:1042180002F0BAF907EE900A624BF8EEE77AC3EDBE
:10422800007A17EE900A03F051F9564ACDE90001D9
:1042380010215D4801F0A4FA642002F0A5F907EE08
:10424800900A5A4BF8EEE77AC3ED007A17EE900A17
:1042580003F03CF94B4ACDE900011021544801F024
:104268008FFA4FF47A7002F08FF9524A03461060C1
:104278001021514A514801F083FA642002F084F970
:1042880007EE900A4E4BF8EEE77AC3ED007A17EE88
:10429800900A03F01BF94B4ACDE9000110214A4866
:1042A80001F06EFA642002F06FF907EE900A474BAE
:1042B800F8EEE77AC3ED007A17EE900A03F006F9F4
:1042C800304ACDE900011021414801F059FA642033
:1042D80002F05AF907EE900A3E4BF8EEE77AC3ED82
:1042E800007A17EE900A03F0F1F8364ACDE900019A
:1042F8001021394801F044FA642002F045F907EE2C
:10430800900A364BF8EEE77AC3ED007A17EE900A7A
:1043180003F0DCF81B4ACDE900011021304801F018
:104328002FFA642002F030F907EE900A2D4BF8EED0
:10433800E77AC3ED007A17EE900A03F0C7F8214A2E
:10434800CDE900011021284801F01AFA274B284826
:104358004FF081421A60274B0022CDE9002310213B
:10436800084A01F00DFA244B00221146586801F062
:10437800A7F908B1FFF7BAFE012003B05DF804FB06
:1043880048E2032099820D0098E103204CE20320C3
:10439800C4E1032040E20320E5E1032054E20320C6
:1043A800FCE1032058E2032028E2032044E2032032
:1043B800ADE10320E0E10320A2820D0010E203201A
:1043C8000CE20320AA820D0009E30320A8E10320E0
:1043D800E0E2032004E3032084E10320F8E1032062
:1043E800C8E20320DCE10320B8E20320DCE203207A
:1043F800F0E20320000010401CE303202DE9D04325
:104408002A4800231A461946406801F061F901F06C
:10441800F7F84FF4967440F2E7360027002000F0D2
:1044280081FF4FF000098046002000F07BFFB0EBD1
:10443800080061EB09018F4208BF864205D301F0ED
:10444800EFF810B901F0D4F8EEE701F0E9F8D0B1CF
:1044580001F0E6F8044628B3002000F063FF0027C7
:1044680006464EF65F284FF00009002000F05AFF7C
:10447800801B61EB0701894508BF80450CD302F01A
:1044880087FA48B90BE000F015FF094B186001F0F6
:10449800AFF8013CDCD0C1E702F07AFA02E001F0A3
:1044A800A7F8E2E72046BDE8D08300BF1CE303205D
:1044B800E4E6032008B501F0ABF8064800231A46E5
:1044C8001946406801F00CF94FF47A7001F070F960
:1044D800012008BD1CE3032010B5074C00F0EAFEDC
:1044E8002368C01AB0F57A7F04D300F0E3FE206099
:1044F800012010BD002010BDACE2032008B5FFF775
:10450800EBFF18B1BDE80840FFF7E6BF01F070F80F
:10451800F5E7000037B501F07BF800F0CBFE43F675
:104528009725044601F07CF840B100F0C3FE001B5B
:10453800A84203D8642001F03BF9F3E70021094BB6
:1045480047F23052084600F065FE4FF47A7001F0E9
:104558002FF9054B0A221B680121684602F030F941
:1045680003B030BDB2820D0050E2032038B50468B4
:1045780005467CB16368013B63605BB923682046EC
:104588009B689847A368013BA3601BB92368204632
:10459800DB689847284638BD10B5444B444C1B6827
:1045A800ADF5247D2193434B1B682093424B18683B
:1045B80002F08CFFCDE91E01404B186802F086FF1F
:1045C800CDE91C013E4B1B681A933E4B186802F05C
:1045D8007DFFCDE918013C4B186802F077FFCDE963
:1045E80016013A4B186802F071FFCDE91401384BF7
:1045F800186802F06BFFCDE91201364B186802F01B
:1046080065FFCDE91001344B186802F05FFFCDE972
:104618000E01324B1B680C93314B186802F056FFA1
:10462800CDE90A012F4B186802F050FFCDE90801C7
:104638002D4B186802F04AFFCDE906012B4B18688C
:1046480002F044FFCDE90401294B186802F03EFF4F
:10465800CDE90201274B186802F038FF264ACDE958
:1046680000014FF4007124A801F08AF8234B244973
:104678001B7800228DF8002022A824AAFFF728FD25
:1046880023A8FFF773FF02F0A4F9206002F012FCE0
:1046980021780520FFF71AFD1A4B01221A7000F045
:1046A80009FE194B18600DF5247D10BD20E203208A
:1046B800D8E1032038E2032064E2032024E2032047
:1046C80060E20320DCE20320DCE10320F8E10320C0
:1046D80004E30320A8E103200CE20320E0E1032027
:1046E80044E2032058E2032054E2032040E203207E
:1046F8004CE2032048E20320BF820D00ACE1032016
:1047080028840D00A0E0032094E10320F0B585B0D3
:10471800084602AF0E4603F02AF900F1080323F019
:1047280007036D46ADEB030D02AC421C3146204633
:1047380003F03AF99DF808604EB900F071FF0028BF
:1047480037D01E4B1E4A1B788DF800602AE02046A1
:1047580002F04CFFC83801281BD800F061FF60B197
:10476800164B18491B7800228DF800203846164A47
:10477800FFF7AEFC381DFFF7F9FE02F09BFB02F0D5
:1047880028F9C1B20520FFF7A1FC104B00221A70CE
:104798000FE000F045FF60B1084B00221B788DF850
:1047A8000020224638460A49FFF792FC381DFFF7D9
:1047B800DDFE0C37AD46BD46F0BD00BFACE10320C1
:1047C8003B840D0062840D0050840D00A0E003209E
:1047D80043840D0030B5224985B0054601F0BEFF7F
:1047E8000446C0B11F4B204D01241C7002F062FB2F
:1047F8000420FFF769FC40F00800287002F05AFB1B
:1048080029780420FFF762FC184B00221B788DF8EA
:104818000020174A1AE01749284601F09FFFE8B11F
:10482800104B114D1C7002F045FB0420FFF74CFCA7
:1048380020F00800287002F03DFB29780420FFF7DB
:1048480045FC0A4B0C4A1B788DF800400B4902A81E
:10485800FFF73EFC03A8FFF789FE012005B030BD35
:10486800EF850D00E4E1032000E30320ACE1032021
:1048780068840D0079840D007B840D008B840D0005
:1048880030B5CDB00A2205A9006803F027F9C4B2F3
:1048980004F10C03DBB2182B3DD843B207EE903A73
:1048A800B8EEE70A03931D4D02F034F802F002FB5C
:1048B80021460320FFF70AFC0024039B184A4FF403
:1048C80080710CA800F05CFF2B7816498DF8004029
:1048D8000CAA08A8FFF7FCFB09A8FFF747FE4FF44E
:1048E8007A7000F065FF02F074F8014608A802F03B
:1048F8002DF8089B0393039A2B780A498DF80040FA
:1049080006A8FFF7E5FB07A8FFF730FE08A801F0A7
:104918007AFE012000E000204DB030BDACE103205C
:1049280090840D00A4840D007FB52649054601F04A
:1049380015FF28B92449284601F010FF00283FD068
:1049480002F0B8FA0420FFF7BFFB204C1D49207085
:10495800284601F003FF0646A0B11D4B1D491B78F0
:1049680000228DF8002002A81B4AFFF7B1FB03A81C
:10497800FFF7FCFD237843F001032370174B012256
:104988001A7016E01049284601F0E8FE88B1104B6D
:10499800134A1B780F498DF8006002A8FFF798FBAF
:1049A80003A8FFF7E3FD237803F07E0323700B4B86
:1049B8001E7002F07FFA04202178FFF787FB0120A0
:1049C80004B070BDEF850D0079840D0000E303206D
:1049D800ACE103208B840D00A9840D005CE2032068
:1049E800B3840D0030B5164D164C17492A78207837
:1049F8008FB00E2303FB0212009203FB0013134A2D
:104A0800282104A800F0BCFE2B78237000F008FED3
:104A180070B1FFF773FD0E4B0E491B7800228DF81D
:104A2800002002A804AAFFF753FB03A8FFF79EFD86
:104A380002F0D4F804A901F04AFD0FB030BD00BF60
:104A4800F5E10320D4E103202CE00320C5840D0008
:104A5800ACE10320D3840D00F0B5A04C2378013BD2
:104A68008DB0062B00F20882DFE813F09F010700E3
:104A78006A009500AD00E1006801994B1B782BB1E5
:104A8800984B1B78022B01D0FFF7ACFF964B1B7895
:104A98004BB100F00FFC954B1B68C01A944B1B6878
:104AA800984200F2E38101F0A5FF052390FBF3F3A0
:104AB80003EB8303984207D101F08BFF8D4B1B68F2
:104AC800C01A3C2800F3D581FFF706FD01F092FFDC
:104AD800894E01460A22002508A801F019FE3378FC
:104AE800089A86498DF8005006A8FFF7F1FA07A83A
:104AF800FFF73CFD08A801F086FD01F06AFF0A22D5
:104B0800014608A801F017FE3378089A7C498DF809
:104B1800005006A8FFF7DCFA07A8FFF727FD08A84A
:104B280001F071FD774B93ED007A774BD3ED007A66
:104B3800B4EEE77AF1EE10FA00F29E81072328E03E
:104B4800674B1A781D462AB1664B1B78032B01D098
:104B5800FFF748FFFFF706FB0646C8B90123237095
:104B68002B78002B00F08881FFF7C8FC00F058FD77
:104B7800002800F08181604B644A1B7864498DF8F5
:104B8800006008A8FFF7A4FA09A8FFF7EFFC73E193
:104B98000423237070E1524B1B782BB1514B1B78C7
:104BA800042B01D0FFF71EFF00F03AFD00283CD08F
:104BB80001F016FF0C2802D1002000F051FDFFF78C
:104BC800EBFC0523E5E7464B1B782BB1454B1B78DF
:104BD800052B01D0FFF706FF4E4B1B7853B9022374
:104BE8002370434B46F2A8121A6000F063FB3F4B58
:104BF800186041E100F05EFB474B1B68C01A4AF69B
:104C0800C873984240F2388100F054FB434B444942
:104C18001860394B00221B788DF8002008A8414AFB
:104C2800FFF756FA09A8FFF7A1FC0123B1E72C4BBF
:104C38001A781D462AB12B4B1B78062B01D0FFF79B
:104C4800D1FE394B1E781F463EBB00F0E9FCA8B1E7
:104C58002B786BB1FFF752FC274B344A1B782C4951
:104C68008DF8006008A8FFF733FA09A8FFF77EFC63
:104C78004FF47A7000F09CFDFFF71CFC02F01AF963
:104C88002B4B02201978FFF721FA2A4B0021072025
:104C9800197002F0F6F801233B7001F09AFE264BDA
:104CA80019680623ADF818300CAB012203F8192D4A
:104CB80002914FF4967190FBF1F505FB1100081A6B
:104CC8008842A8BF08460190009206A908A801F0EA
:104CD800A7FD02232370FFF791FBCDE0F5E1032048
:104CE800E4E10320D4E103205CE2032068E203202E
:104CF800B0E20320D8E10320ACE10320E4840D00F6
:104D08003F860D00DCE20320A4E00320EC840D00C4
:104D180062840D00A0E0032094E10320B4E20320A4
:104D280006850D00BE820D0008E303201F850D00D7
:104D380038E20320D8E2032050E203204F4B1A78D0
:104D48001C462AB14E4B1B78072B01D0FFF74AFEB1
:104D580000F066FCB0B1237873B1FFF7CFFB494B85
:104D680049491B7800228DF8002008A8474AFFF718
:104D7800AFF909A8FFF7FAFB4FF47A7000F018FDB5
:104D8800FFF798FB424B00210720197002F079F8D1
:104D980001F030FE3F4BC0F13C003C2242431B680F
:104DA800012108A801F00CFD66E0344B1B782BB1FB
:104DB800334B1B78012B01D0FFF714FE00F07AFA71
:104DC800354B1B6803F5EA433033984254D9334BCB
:104DD8001B68032B16DC00F023FC60B1294B2A4921
:104DE8001B7800228DF8002008A82D4AFFF770F9DB
:104DF80009A8FFF7BBFB4FF4FA6000F0D9FC01F0FB
:104E0800DCFC39E001F0E5FD044602F053F805202A
:104E1800FFF75AF9201AB0F5E15F1CDD00F000FC3D
:104E280060B1184B00221B788DF800201D4A1649E6
:104E380008A8FFF74DF909A8FFF798FB4FF4FA60A7
:104E480000F0B6FC02F036F800210220FFF73EF928
:104E5800FFF760FB10E000F0E3FB0028EED0094B01
:104E680000221B788DF800200F4AE0E70623237004
:104E780019E60323237027E60DB0F0BDE4E1032013
:104E8800D4E10320ACE1032062840D002E850D00DF
:104E9800D8E2032050E20320B4E2032038E20320E2
:104EA80045850D0059850D0074850D0000230422E9
:104EB80000F08EBB0246014800F000BE995A0D0072
:104EC800F0B58F4BB9B008AA03F11005164618685B
:104ED8005968144603C40833AB422246F7D11988EF
:104EE8009B78A3702D2221800DF133000021854F7E
:104EF80002F0A5FC0225012107203D7001F0B0FF5A
:104F080004A8002400F094FB00237D2218A904A81B
:104F180001F036FC234622467B490194009418A8E8
:104F280000F096FB79497A48FFF7C0FF23462A46E6
:104F38007849794800F04CFB784979480968234654
:104F4800042200F045FB77497748FFF7AFFF234677
:104F580001227649764800F03BFB76497648FFF710
:104F6800A5FF76497648FFF7A1FF76497648FFF70F
:104F78009DFF76497648FFF799FF76497648FFF70F
:104F880095FF76497648FFF791FF76497648FFF70F
:104F98008DFF76497648FFF789FF76497648FFF70F
:104FA80085FF76497648FFF785FF76497648FFF70B
:104FB80081FF76497648FFF77DFF76497648FFF707
:104FC80079FF01F077FF2046FFF77EF8012819D115
:104FD80001F070FF0220FFF777F84E4C00222060A6
:104FE800114602A8029200F055F9029B142B1ED11B
:104FF80023680133236001F05DFF21780220FFF769
:1050080065F814E001F056FF0125042202A92046A4
:10501800029500F077F901F04DFF2846042202A915
:105028000135029400F06EF90A2DF4D1D0E7236817
:10503800052B07DD01F03EFF04210220FFF746F8AB
:10504800FFF768FA01F036FF0320FFF73DF800F19B
:105058000C03DBB2182B9ABF43B200EE103A9FED57
:105068004F0A4F4C98BFB8EEC00A01F053FC01F04C
:1050780021FF0520FFF728F801F044FC494B187080
:1050880001F018FF0420FFF71FF8474B1870274B53
:1050980000F00102C0F3C0001A702070FFF762F838
:1050A800424B93ED007A424BD3ED007AB4EEE77AA7
:1050B800F1EE10FA02D807233B7008E0FFF79EF9DB
:1050C80028B901233B493B70304602F02DFC00F023
:1050D800A7FA08B1237823B904A801F094FA39B0E3
:1050E800F0BD354B35491B7800228DF8002002A809
:1050F8003246FEF7EDFF03A8FFF738FAECE700BFEA
:1051080040820D00F5E1032015470D006CE20320F5
:1051180093850D0038E203209A850D009CE003205A
:10512800A5850D00F0E20320AD850D005CE20320AB
:10513800B8850D0084E10320C5850D00E0E2032059
:10514800D1850D0009E30320DA850D0098E10320DD
:10515800E3850D00C4E10320F1850D00E5E103209E
:10516800FF850D00FCE103200D860D0028E20320D9
:105178001B860D00ADE1032029860D00B5400D000A
:1051880037860D0031490D0043860D00DD470D00BF
:1051980050860D0089480D005D860D000000000056
:1051A800E4E103203CE2032000E30320DCE20320E7
:1051B800A4E0032069860D00ACE103207B860D0086
:1051C80038B50D4B00241C600C4B01251D7000F0F8
:1051D800B1F80B4B4FF6FF721C705C809A8002206E
:1051E80000F0A0F92146284600F0B4F92946042029
:1051F800BDE8384000F03EB850E20320ACE103209F
:10520800BEE1032008B5024B1B685B6C019308BD27
:105218007402030008B5024B1B689B6C019308BD20
:105228007402030008B5024B1B689B68019308BD14
:105238004802030008B5024B1B681B69019308BDAF
:105248004802030008B5024B1B685B69019308BD5F
:105258004802030008B5024B1B681B6B019308BD8D
:105268004802030008B5024B1B685B6C019308BD3C
:105278004802030008B5024B1B685B6E019308BD2A
:105288003402030008B5024B1B689B6E019308BDEE
:105298003402030008B5024B1B68DB6E019308BD9E
:1052A8003402030008B5024B1B685B68019308BD14
:1052B8001802030008B5024B1B685B69019308BD1F
:1052C8001802030008B5024B1B68DB69019308BD8F
:1052D8001802030008B5024B1B689B6A019308BDBE
:1052E8001802030008B5024B1B68DB6A019308BD6E
:1052F8001802030008B5024B1B681B6B019308BD1D
:105308001802030008B5024B1B689B6C019308BD8B
:105318001802030008B5024B1B689B6D019308BD7A
:105328001802030008B5024B1B68DB6D019308BD2A
:105338001802030008B5024B1B681B68019308BDDF
:105348002C02030008B5024B1B689B68019308BD3B
:105358002C02030008B5024B1B68DB68019308BDEB
:105368002C02030008B5024B1B681B69019308BD9A
:105378002C02030008B5024B1B681B6A019308BD89
:105388002802030008B5024B1B685B6A019308BD3D
:105398002802030008B5024B1B689B6A019308BDED
:1053A8002802030008B5024B1B68DB6A019308BD9D
:1053B8002802030008B5024B1B681B6B019308BD4C
:1053C8002802030008B5024B1B685B6B019308BDFC
:1053D8002802030008B5024B1B681B6C019308BD2B
:1053E8002802030008B5024B1B685B69019308BDDE
:1053F8006402030008B5024B1B689B68019308BD53
:105408006802030008B5024B1B68DB68019308BDFE
:105418006802030008B5024B1B68DB69019308BDED
:105428003002030008B5024B1B681B6A019308BDD4
:105438003002030008B5024B1B681B68019308BDC6
:105448003C02030008B5024B1B68DB68019308BDEA
:105458003C02030008B5024B1B681B69019308BD99
:105468003C02030008B5024B1B685B69019308BD49
:105478003C02030008B5024B1B689B69019308BDF9
:105488003C02030008B5024B1B68DB69019308BDA9
:105498003C02030008B5024B1B681B6A019308BD58
:1054A8003C02030008B5024B1B689B6A019308BDC8
:1054B8003C02030008B5024B1B681B68019308BD3A
:1054C8004C02030008B5024B1B681B69019308BD19
:1054D8004C02030008B5024B1B685B69019308BDC9
:1054E8004C02030008B5024B1B689B69019308BD79
:1054F8004C02030008B5024B1B68DB69019308BD29
:105508004C02030008B5024B1B681B6A019308BDD7
:105518004C02030008B5024B1B681B68019308BDC9
:105528002002030008B5024B1B685B68019308BDA5
:105538002002030008B5024B1B685B69019308BD94
:105548002002030008B5024B1B689B69019308BD44
:105558002002030008B5024B1B68DB6A019308BDF3
:105568002002030008B5024B1B68DB6C019308BDE1
:105578002002030008B5024B1B685B6D019308BD50
:105588002002030008B5024B1B689B6D019308BD00
:105598002002030008B5034B1B68D3F88830019339
:1055A80008BD00002002030008B5034B1B68D3F8B0
:1055B8009430019308BD00002002030008B5034B96
:1055C8001B68D3F8A030019308BD00002002030037
:1055D80008B5024B1B681B68019308BD4402030011
:1055E80008B5024B1B685B68019308BD44020300C1
:1055F80008B5024B1B689B68019308BD4402030071
:1056080008B5024B1B68DB68019308BD4402030020
:1056180008B5024B1B681B69019308BD44020300CF
:1056280008B5024B1B685B69019308BD440203007F
:1056380008B5024B1B68DB69019308BD44020300EF
:1056480008B5024B1B681B6A019308BD440203009E
:1056580008B5024B1B685B6A019308BD440203004E
:1056680008B5024B1B68DB6A019308BD44020300BE
:1056780008B5024B1B681B6B019308BD440203006D
:1056880008B5024B1B68DB6B019308BD440203009D
:1056980008B5024B1B685B68019308BD4002030014
:1056A80008B5024B1B689B68019308BD40020300C4
:1056B80008B5024B1B68DB68019308BD4002030074
:1056C80008B5024B1B681B69019308BD4002030023
:1056D80008B5024B1B685B69019308BD40020300D3
:1056E80008B5024B1B689B69019308BD4002030083
:1056F80008B5024B1B68DB69019308BD4002030033
:1057080008B5024B1B681B6A019308BD40020300E1
:1057180008B5024B1B681B6B019308BD40020300D0
:1057280008B5024B1B685B6B019308BD4002030080
:1057380008B5024B1B681B68019308BD1C020300D7
:1057480008B5024B1B685B68019308BD1C02030087
:1057580008B5024B1B689B68019308BD1C02030037
:1057680008B5024B1B681B69019308BD1C020300A6
:1057780008B5024B1B689B69019308BD1C02030016
:1057880008B5024B1B68DB69019308BD1C020300C6
:1057980008B5024B1B68DB6A019308BD1C020300B5
:1057A80008B5024B1B681B6B019308BD1C02030064
:1057B8000021FFF7BFBE10B5836804460BB901F09E
:1057C800D6FBC3689847A3681BB10322214620462D
:1057D800984720461021BDE8104001F0C6BB0022C2
:1057E80011464068FFF76CBF002211464068FFF77A
:1057F80087BF002211464068FFF792BF0022406829
:10580800FFF786BF002281F001014068FFF770BFF3
:1058180000231A4619464068FFF762BF00231A465C
:1058280019464068FFF754BF002211464068FFF749
:1058380037BF002202214068FFF73ABF00231A460B
:105848004068FFF725BF0000F0B51B4B036000253B
:105858000F462833182689B043608560C5603246F4
:1058680029460446103001F0EAFF2A46294678689E
:10587800FFF726FF08B9A0601BE02946324602A8B8
:105888000095019501F0DBFF02A96846ADF80860B4
:10589800FFF7B8FC10B10123A3600AE0009B019A4E
:1058A800A360E2600BB90223A36002A9204600F0BE
:1058B800A9F8204609B0F0BDF4860D0038B50C4CA7
:1058C80028252A460021204601F0B9FF4FF0FF3372
:1058D80063602580074C0423204663602C25064B13
:1058E80040F8083B2A46002101F0A9FF258138BD70
:1058F80050E303201CE30320C0860D007047007DA1
:1059080070470000037D1BB18369B3F1004F02D1DA
:105918009FED050A704707EE903A9FED047AF8EE7E
:10592800E77A87EE870A7047000000000000C84247
:10593800037D1BB1036AB3F1004F02D19FED050A45
:10594800704707EE903A9FED047AF8EEE77A87EE13
:10595800870A7047000000000000C84270B50D4675
:1059680006460A228168284600F00CFE2C210446CF
:10597800284600F09DFD0A220444F168284600F0FC
:1059880001FE204470BDA0F10400FFF7E7BF10B589
:105998002821044601F0E9FA204610BD037D7BB1B9
:1059A800436A002B0CDB07EE903ADFED076A9FEDA8
:1059B800070AB8EEE77AC7EE267A27EE800A70471C
:1059C800BFEE000A704700BF00FF7F470000C842D3
:1059D800037D7BB1C369002B0CDB07EE903ADFED4A
:1059E800076A9FED070AB8EEE77AC7EE267A27EE30
:1059F800800A7047BFEE000A704700BF00FF7F476C
:105A08000000C84230B50D4600F110040FCD0FC498
:105A180095E8030084E80300012030BD70470020AA
:105A2800704710B51021044601F09FFA204610BDBA
:105A380008B508B1FFF7F5FF08BD10B5836804463F
:105A480013B1032201469847204610BD38B5C468F3
:105A5800ECB12378022B02D1E068FFF771FE65688C
:105A680035B12846FFF7E9FF1021284601F07DFAF5
:105A7800A56835B12846FFF7E0FF1021284601F058
:105A880074FA20461421BDE8384001F06EBA38BDDA
:105A980010B588B00446684600F0FCFD694604A8C5
:105AA80000F01AFE04A8A047044604A800F0ABFDC5
:105AB800684600F0A8FD204608B010BDF0B51024D7
:105AC80085B007460E46154600212246684601F075
:105AD800B6FE002269461046ADF8004002970396CC
:105AE8000195FFF77DFD05B0F0BD13B5044691E8BB
:105AF800050000234B600B602060626001A80193E1
:105B08000093FEF733FD204602B010BD0B6803601A
:105B180013B15A6801325A607047F7B50C4602ADA6
:105B280054F8043B45F8083D06460F4601A82146AF
:105B3800FFF7ECFF29463046FFF7D7FF01A8FEF72D
:105B480015FD2046FEF712FD3846082101F00DFA32
:105B5800304603B0F0BD13B50B46044603C88DE8C4
:105B6800030093E8030084E803009DE8030083E84A
:105B7800030002B010BD826810B50AB901F0F7F948
:105B8800C368BDE81040184708B5006800F1100167
:105B9800FFF7F1FF08BD826810B50AB901F0E7F90F
:105BA800C368BDE81040184708B5006800F1100147
:105BB800FFF7F1FF08BD38B5002383608B68044602
:105BC8000D462BB102229847EB68E360AB68A360EF
:105BD800204638BD2DE9F0414FF69C7386B0046825
:105BE800B1F904208B8000230F688DF800300B601A
:105BF8004FF00200D4E84F1F994203D1C4E8450F83
:105C0800002DF7D102D08DF800106BE014F10C05CF
:105C18001EBFE76022821F460123BFF35F8F00206B
:105C2800637004F10803BFF35F8F53E8006F43E824
:105C38000002002AF9D1BFF35F8F002E52D0FFF780
:105C480091FC20B129463046FFF795FF43E03146E5
:105C58006846FFF7B0FFE068B4F9105008B101F0EA
:105C68006BFE04901020ADF81450FEF710FA0546AC
:105C780030B34FF00008C0F808801820FEF707FA84
:105C88000446C0B1C0F8088001466846FFF763FFC4
:105C9800029BA268A360039B0292E268E360BDF8DE
:105CA8001430A3824FF69C73ADF81430049B039212
:105CB8002361CDF810800E4BEB600E4B2C60AB606F
:105CC8000498FFF73DFD6846FFF7B7FE0022294616
:105CD8000948FFF74FFC3046FFF7AFFE102130466A
:105CE80001F043F93846FFF72BFD06B0BDE8F08117
:105CF800915B0D00ED5D0D00BF570D002DE9F04FD4
:105D08008BB007AD4FF0000B0646994614200C23C4
:105D18000F4690469DF850A0C5F804B0C5F808B0E5
:105D28000793FEF7B4F9044638B180F800B080F85C
:105D380001B0C0F804B0C0F808B0002310200394E4
:105D48000493FEF7A4F928B1012343608360234B31
:105D58000360C4600490224B08930820FEF797F96B
:105D6800044628B1039B40F8043B04A9FFF7CEFE84
:105D780000955FFA8AF34A46414638460994FFF788
:105D88005FFCB8B9039B5B7803F0FF0293B94FF649
:105D98009C7305A903A80592ADF81830FFF71AFF00
:105DA8000598FFF7CDFC05A80999FFF7B6FE06A8E8
:105DB800FEF7DCFB039B059304A906A8FFF7A6FEE4
:105DC80005A93046FFF791FE06A8FEF7CFFB04A809
:105DD800FEF7CCFB30460BB0BDE8F08F28870D00EE
:105DE800595F0D00022AF8B5044606D0032A17D0D9
:105DF800012A21D10B6803601EE018200E68FEF707
:105E080046F9054650B13146FFF7D5FE3069B6F977
:105E1800147008B101F090FD2861AF8225600BE095
:105E280004684CB12069FFF78BFC2046FFF705FE9C
:105E38001821204601F099F80020F8BD38B5002354
:105E480083608B6804460D462BB102229847EB68A5
:105E5800E360AB68A360204638BD022A70B50446EB
:105E680006D0032A11D0012A18D10B68036015E067
:105E780014200E68FEF70BF9054620B13146FFF7EE
:105E8800DDFF337C2B74256008E0046834B12046BC
:105E9800FFF7D3FD1421204601F067F8002070BDFC
:105EA800F0B5002387B00C46BFF35F8F50E8006F52
:105EB80040E80032002AF9D1BFF35F8F002E3FD0AF
:105EC8001846FFF74FFB074620B121463046FFF73B
:105ED80062FE2EE0314601A8FFF7B0FF23788DF867
:105EE80014301020FEF7D3F80546D0B1876014208F
:105EF800FEF7CDF8044678B18760014601A8FFF7A0
:105F08002AFE039BA268A360049B0392E268E360F5
:105F18009DF81430049223740A4BEB600A4B2C60F2
:105F2800AB6001A8FFF789FD002229460748FFF763
:105F380021FB3046FFF781FD1021304601F015F8AE
:105F480007B0F0BDB15B0D00635E0D00BF570D00DB
:105F580030B585B004460D4668461146FFF7DDFDAD
:105F68007CB124B228460DB101F0E6FC029002A9EA
:105F78006846ADF80C40FFF72DFE0298FFF7E0FBEE
:105F88001DE000988DF808404FF00102D0E84F3F1F
:105F9800A34203D1C0E8412F0029F7D102D08DF8E0
:105FA80008300CE010F10C014FF0010318BF037327
:105FB800BFF35F8F043000F8033CFFF771FF01A8BF
:105FC800FEF7D4FA05B030BD002211464068FFF74D
:105FD80097BB002211464068FFF7A2BB0022406829
:105FE800FFF796BB002281F001014068FFF780BBF4
:105FF80000231A4619464068FFF772BB00231A4669
:1060080019464068FFF764BB002211464068FFF755
:1060180057BB002211464068FFF742BB002202210D
:106028004068FFF745BB00231A464068FFF730BBBE
:10603800024B03225A60024A1A60704778E3032031
:1060480044870D007047F8B5064615460C468F186C
:10605800BC4206D0336814F8011B9B683046984749
:10606800F6E72846F8BD0022007CFFF783B9002137
:10607800007CFFF787B90021007CFFF78BB900216E
:10608800007CFFF78FB90021007CFFF793B910B5AA
:106098001421044600F069FF204610BD10B50446DF
:1060A8004FF47A730846A3600021044B20746160A2
:1060B8002360FFF78FF9204610BD00BF78870D00D9
:1060C8000021007CFFF77EB9704710B518210446FF
:1060D80000F04BFF204610BDF0B5037D062B8DB0B8
:1060E8000E4600F104074FF0000402D000F1080545
:1060F80018E00CAD394605F8304D2F232A460A2002
:10610800FFF770F9284601F032FC33680246DB6875
:106118002946304698470FE024B12E21304600F03A
:10612800C7F9044415F8011D0A22304600F006FAA2
:10613800BD420444F0D120460DB0F0BD10B5054B6A
:106148000446112240F8043B002101F078FB204668
:1061580010BD00BFA0870D000346074A10B543F8DD
:10616800042B01F1100251F8044B43F8044B9142FF
:10617800F9D10A781A7010BDA0870D0010B59DF8E6
:10618800084044EA032343EA024242EA0161042345
:106198004160037510BD37B50D788B784A78C9789A
:1061A80000912946FFF7EAFF03B030BD014B024AD0
:1061B8001A60704780E303205E880D0000221146B4
:1061C8004068FFF79DBA002211464068FFF7A8BA59
:1061D80000224068FFF79CBA002281F00101406864
:1061E800FFF786BA00231A4619464068FFF778BABF
:1061F80000231A4619464068FFF76ABA002211467A
:106208004068FFF75DBA002211464068FFF748BAB8
:10621800002202214068FFF74BBA00231A46406863
:10622800FFF736BA38B5054688B104684CB1A3689B
:106238001BB103222146204698471021204600F032
:1062480094FE28461421BDE8384000F08EBE38BDC3
:1062580010B103685B681847704710B503680446B7
:10626800BBB15868FEF7DEFF78B923685A7C12B9CB
:106278005868FEF7DFFF23685868FEF7E3FF2068D9
:106288000023236028B1FFF7CDFF206808B1FFF78E
:10629800C9FF204610BD000038B50C4B036004460A
:1062A800D0F8CC0108B1FDF7F6FED4F8C45135B1E9
:1062B8002846FFF7D2FF0421284600F056FEA068C2
:1062C80008B1FFF7C5FF204638BD00BF90880D0014
:1062D80038B50D4C0D4B23600025022304F5E470FE
:1062E8006360A560C4F8C451C4F8C851FEF7BAFF8A
:1062F800074BC4F8CC5123602046064A0649BDE83E
:10630800384000F02DBE00BF84E30320C4880D0090
:1063180090880D0080E10320A1620D0000231A4639
:106328004068FFF7B5B9002202214068FFF7C0B9FD
:10633800002211464068FFF7B3B9002211464068B1
:10634800FFF7BEB900231A4619464068FFF7C0B9DF
:1063580000231A4619464068FFF7C2B9002281F0A7
:1063680001014068FFF7C4B900224068FFF7D0B9BF
:10637800002211464068FFF7D3B900221146406851
:10638800FFF7BEB92DE9F043002495B016460D4637
:106398000746FFF7D3FE214620220CA8009401F0FF
:1063A8004EFA40230C9321466B460CAA3046FFF761
:1063B80029F80446002844D1024601216868FFF7FD
:1063C8007FF90221804622466868FFF779F9009E26
:1063D80081462146002E34D0002932D17368022B21
:1063E80002D00A2B09D02AE0B8F1000F27D0716932
:1063F80038460431FFF7CFFE20E0B9F1000F1ED078
:106408007469112201A801F01AFA06238DF81430D4
:1064180001AD04F108031834186859682A4603C204
:106428000833A3421546F7D101A906A807ADFFF71F
:1064380093FE0FCD3C1D0FC42B6823700121F66914
:10644800C8E70098FEF7D6FF384615B0BDE8F083D8
:10645800024B034A1A6000225A60704754E5032031
:10646800C4880D00F8B506460D468F180024BD42B5
:106478000CD0336815F8011B9B68304698470028F4
:1064880001DB0444F3E7002C08BF04462046F8BDAE
:1064980070B505460C46084649B101F068FA2B6804
:1064A800024621462846DB68BDE87040184770BDA3
:1064B80003689B68184738B50D210546FFF7F8FFB4
:1064C8000A2104462846FFF7F3FF204438BD38B5B3
:1064D8000546FFF7DDFF04462846FFF7ECFF20449A
:1064E80038BD30B58BB00B4600218DF82410012A39
:1064F80098BF0A220DF12304B3FBF2F505FB123312
:1065080003F0FF03092B94BF30333733DBB2214646
:1065180004F801392B46002DEED1FFF7B9FF0BB077
:1065280030BD10B42AB903685DF8044B9B68C9B242
:106538001847D2B25DF8044BFFF7D3BFFFF7F1BF9E
:106548002DE9F04107460E4615462AB90368C9B237
:106558009B68BDE8F04118470A2A02D1002901DAF0
:1065680004E0D2B2BDE8F041FFF7BBBF2D21FFF731
:106578009FFF2A46044671423846FFF7B2FF20447F
:10658800BDE8F081FFF7DCBF10B5044630B101F07B
:1065980087F990FBF4F303FB140010BD10BD10B590
:1065A8000446FFF74AFA204610BD00000348044A93
:1065B80004490023836000F0D3BC00BF5CE50320DE
:1065C80080E10320A7650D00704710B5102104462F
:1065D80000F0CBFC204610BD70B5084B03600446A4
:1065E80000250E4640F80C5FFEF734FE3046267153
:1065F800FEF710FFA560204670BD00BFF8880D00AB
:106608000079FEF70FBF10B504460068FFF798F849
:10661800204610BD10B50446006808B1FFF790F891
:1066280000232360A360636010BD38B504460D469F
:1066380000680131FFF78CF810B184E821000120CF
:1066480038BD10B50368044613B143688B4207D2BE
:106658002046FFF7EAFF20B1A3680BB92268137040
:10666800012010BD70B50E46114604461546FFF7C9
:10667800E8FF18B92046FFF7CDFF09E02A46314662
:10668800A560206801F0D0F82268A3680021D154E1
:10669800204670BD38B5002304460360436083601C
:1066A80003730D4639B1084601F061F929460246DF
:1066B8002046FFF7D7FF204638BD884210B50B4665
:1066C800044607D0096819B19A68FFF7CBFF01E0C3
:1066D800FFF7A0FF204610BD10B500230446036055
:1066E800436083600373FFF7E8FF204610BD38B5A9
:1066F80005460C4641B1084601F039F921460246E3
:106708002846FFF7AFFF01E0FFF784FF284638BDB2
:1067180010B5044600238AB023606360A360237326
:10672800084601A900F0F8FA01A92046FFF7DFFFA3
:1067380020460AB010BD10B5044600238AB0236075
:106748006360A3602373084601A900F07EFA01A9DB
:106758002046FFF7CCFF20460AB010BD08B5826876
:106768000B4612B919B9012008BD11B90368187888
:1067780002E0006801F0CEF8B0FA80F0400908BDE8
:1067880070B50E469AB191B185689D4202D8002332
:106798000B7070BD541EED1A0168AC4228BF2C4620
:1067A80019442246304601F0FFF80023335570BDE6
:1067B800014600228C20FEF765BD0020FFF7F8BFD8
:1067C80010B50446084611461A460023FEF7BAFEDD
:1067D800064B00221A704FF6FF7258809A801A688A
:1067E8009B882260A380204610BD00BF6CE5032073
:1067F80010B500240470448000294FF6FF7484808B
:1068080007DD0139994209D232F81130838001231A
:1068180001E002D10223037010BD418010BD0000C9
:1068280070B586B016461A46002302930C9B019356
:106838000D460B9B009304460A9B31462846FEF7FB
:10684800BDFE33462A46014604A8FFF7D1FF064B92
:106858000498BDF8142018609A801A689B882260F2
:106868002046A38006B070BD6CE50320044B0020D1
:106878004FF6FF72187058809A80FEF753BE00BF1B
:106888006CE50320F0B5144B144F1E68144B0644F6
:1068980018683B6806449E428BB01BD00AA801AD1D
:1068A80040F8286D00F0B4FE436903F26C7343614D
:1068B80004460FCC0FC50FCC0FC5D4F800E0C5F8BF
:1068C80000E001AD0FCD074C0FC40FCD0FC43E60E3
:1068D800C4F800E00BB0F0BDA4E50320A0E5032058
:1068E8009CE5032074E5032008B50020FEF7C0FEF0
:1068F80028B1FEF795FE80F00100C0B208BD012066
:1069080008BD000008B5FFF7BDFF014B586808BD7A
:1069180074E50320FAEE087AB4EEE70AF1EE10FA0D
:106928000FD4F2EE0C7AB4EEE70AF1EE10FA08DCB6
:10693800DFED047A044B20EE270ABDEEC00A83ED92
:10694800000A704700006145A4E5032037B50E4BE7
:106958001B6819440D4B1B68044602A8194440F8EB
:10696800041D00F055FE00F005FE054600F0FFFF8F
:106978002844002300F8013C29462046FFF78AFEF8
:10698800204603B030BD00BFA4E503209CE50320EA
:1069980010B50020FEF7BEFC044668B9FEF7BAFD44
:1069A80001280BD12046FEF7EDFD38B9FFF79CFF13
:1069B80030B9FEF71DFEF9E7012010BD002010BD1B
:1069C800FFF792FF0020FEF7A5FC003018BF01205A
:1069D80010BD08B5FFF7DCFFBDE80840FEF772BC44
:1069E80008B5FFF7F6FFFFF74DFF014B986808BDA4
:1069F80074E5032008B5FFF7ECFFFFF743FF014BF1
:106A0800586808BD74E50320024B1A68024B1A60E7
:106A1800704700BFC8E0032098E503207047417421
:106A2800704708B5007CFEF73DFD20EAE07008BD20
:106A380008B5007CFEF70EFD20EAE07008BD08B539
:106A4800007CFEF717FD30EA200028BF4FF0FF302A
:106A580008BD08B5007CFEF705FD30EA200028BF18
:106A68004FF0FF3008BD007CFEF70CBD10B51421B7
:106A7800044600F07AFA204610BD70B5457C0446FD
:106A88000E4625B9007CFEF70DFD002805DD3146D0
:106A9800207CBDE87040FEF7D5BC284670BD0000DC
:106AA80010B5044608461146002262604FF47A7217
:106AB800A260054A22600122207462741A46FEF719
:106AC800B9FC204610BD00BF30890D00007CFEF7E0
:106AD800E1BC000038B50C4D296811F0010411D152
:106AE8002846FDF7DAFA68B1084A094B09482146F1
:106AF800FFF7D6FF2846FDF7D5FA074A07490548A4
:106B080000F02EFA034838BD40E6032044E603208F
:106B1800BCE50320A8E5032080E10320256A0D00D9
:106B280041747047704708B50021007CFEF7DAFC15
:106B380030EA200028BF4FF0FF3008BD08B501211A
:106B4800007CFEF7CFFC30EA200028BF4FF0FF3072
:106B580008BD08B5007CFEF7BDFC20EAE07008BD62
:106B680008B5007CFEF7AEFC20EAE07008BD007CAA
:106B7800FEF7C8BC10B51421044600F0F6F920460B
:106B880010BD38B50446007C0D46FEF7A3FC00286E
:106B980001DC607C28B12946207CFEF7ABFC20EAAA
:106BA800E07038BD10B50446002363604FF47A7373
:106BB800A360054B236001230846217463741146C2
:106BC800FEF778FC204610BD60890D0010B5142230
:106BD8000446002100F033FE204610BD30B50E4DAE
:106BE80087B001A8FFF7F2FF296811F0010410D15E
:106BF8002846FDF752FA60B101AA21460748FFF777
:106C0800D1FF2846FDF74EFA054A0649034800F029
:106C1800A7F9024807B030BDC8E60320CCE6032038
:106C280080E103202D6B0D0010B5044600F09FFE97
:106C3800013823182046984206D20278197800F8BD
:106C4800011B03F80129F6E710BD2DE9F041931E59
:106C5800232B15468CB034BF15460A2500230A2D70
:106C68000C468DF82C3007D1984205DA2D2301F116
:106C780001080B70404201E0B0B1A0460DF12B06AF
:106C880001272A46014601A800F0BAFD029B019897
:106C9800092BCCBF3722302252FA83F306F8013988
:106CA80001370028EDD106E030238DF82B30A046BF
:106CB8000DF12A0602273A46711C404600F0B4FD41
:106CC80020460CB0BDE8F08170B50C46911E222913
:106CD80020D82546294610B9234430220EE0B0FBBF
:106CE800F2F602FB1600C1B205F8011B092894BF91
:106CF8003031573105F8011C3046EBE7994202D292
:106D080001F8012BFAE7002320460B70FFF78CFFF0
:106D1800204670BD002070BD38B5031E0C461546D0
:106D28000BDAB3F1004F4FF02D0214BF584218464A
:106D380001230A702A46194400E00123FFF7C4FF23
:106D4800204638BD08B50C4B33B1FFF747FF036841
:106D58001B699847002809DC084B63B1FFF7BAFEA6
:106D680003681B699847002803DC08BDAFF300805F
:106D7800F2E7AFF3008008BD00000000000000004B
:106D880008B5FFF7DFFFFEF795FA014B186008BD5D
:106D9800E4E6032007B5002300931A466FF0770155
:106DA800FEF702FC03B05DF804FB000007B543885A
:106DB8000A2B08D0502B09D1094B1B683BB103B0F3
:106DC8005DF804EB1847FFF7E5FF06E000230093A2
:106DD8001A466FF07701FEF7E7FB03B05DF804FB96
:106DE800E0E6032010B5FEF75DFA044600F030FD3A
:106DF800074B13B12046AFF3008000210448FEF78B
:106E08003FFC00210348BDE81040FEF7C3BB00BFAC
:106E180000000000B56D0D0010B504460F48FFF7DF
:106E2800EFFB28B1A4F10B03022B01D8002010BD01
:106E380000F054F8FFF744F908B1012CF6D9FFF730
:106E480049FEFFF743FE18B1A4F10903012BEDD960
:106E5800232C8CBF0020012010BD00BF08E70320B1
:106E6800232838B504460D460AD8FF2908D0FFF76D
:106E7800D3FF28B129462046BDE83840FEF762BA5C
:106E880038BD38B504460D46FEF764FAFF2810D021
:106E9800062804D84D2323FA00F0C30709D4204656
:106EA800FFF7BAFF28B129462046BDE83840FEF76B
:106EB80059BA38BD10B5074C2368DB0708D42046FB
:106EC800FDF7EBF820B1FEF705FA2046FDF7EAF8E2
:106ED800014810BDE8E60320ECE6032038B50B4D69
:106EE800296811F001040FD12846FDF7D6F858B1EA
:106EF80021460748FFF7D2F82846FDF7D3F8054A98
:106F08000549034800F02CF8014838BDF0E6032095
:106F1800F4E6032080E103204D600D0070B50C4CB1
:106F28000C4E0D4D00212046FFF756FB20460B4C1A
:106F38003246294600F014F801212046FFF74CFBA1
:106F4800324629462046BDE8704000F009B800BF27
:106F580008E7032080E10320D1650D0018E703202E
:106F68000B460146184600F045BBFDF792B808B538
:106F7800FEF70EFC244B1A68D0075CBF01221A608A
:106F8800224B1A68D1075CBF01221A60204B1A688D
:106F9800D2075CBF01221A601E4B1A68D0075CBF7B
:106FA80001221A601C4B1A68D1075CBF01221A60C3
:106FB8001A4B1A68D2075CBF01221A60184B1A686C
:106FC800D0075CBF01221A60164B1A68D1075CBF54
:106FD80001221A60144B1A68D2075CBF01221A609A
:106FE800124B1A68D0075CBF01221A60104B1A684E
:106FF800D1075CBF01221A600E4B1A68D2075CBF2A
:1070080001221A60704700BF54E7032050E70320AD
:107018004CE7032048E7032044E7032040E7032028
:107028003CE7032038E7032034E7032030E7032058
:107038002CE7032028E70320184B1A68D1075CBF08
:1070480001221A60164B1A68D2075CBF01221A6027
:10705800144B1A68D0075CBF01221A60124B1A68D9
:10706800D1075CBF01221A60104B1A68D2075CBFB7
:1070780001221A600E4B1A68D0075CBF01221A6001
:107088000C4B1A68D1075CBF01221A600A4B1A68B8
:10709800D2075CBF01221A60704700BF74E7032063
:1070A80070E703206CE7032068E7032064E7032008
:1070B80060E703205CE7032058E70320184B1A68B1
:1070C800D1075CBF01221A60164B1A68D2075CBF51
:1070D80001221A60144B1A68D0075CBF01221A609B
:1070E800124B1A68D1075CBF01221A60104B1A684C
:1070F800D2075CBF01221A600E4B1A68D0075CBF2A
:1071080001221A600C4B1A68D1075CBF01221A6071
:107118000A4B1A68D2075CBF01221A60704700BF89
:1071280094E7032090E703208CE7032088E70320F7
:1071380084E7032080E703207CE7032078E7032027
:10714800244B1A68D0075CBF01221A60224B1A68C8
:10715800D1075CBF01221A60204B1A68D2075CBFB6
:1071680001221A601E4B1A68D0075CBF01221A6000
:107178001C4B1A68D1075CBF01221A601A4B1A68A7
:10718800D2075CBF01221A60184B1A68D0075CBF8F
:1071980001221A60164B1A68D1075CBF01221A60D7
:1071A800144B1A68D2075CBF01221A60124B1A6886
:1071B800D0075CBF01221A60104B1A68D1075CBF68
:1071C80001221A600E4B1A68D2075CBF01221A60AE
:1071D800704700BFC4E70320C0E70320BCE70320D3
:1071E800B8E70320B4E70320B0E70320ACE70320A7
:1071F800A8E70320A4E70320A0E703209CE70320D7
:1072080098E7032081F0004102E000BF83F00043CB
:1072180030B54FEA41044FEA430594EA050F08BF29
:1072280090EA020F1FBF54EA000C55EA020C7FEAED
:10723800645C7FEA655C00F0E2804FEA5454D4EB6A
:107248005555B8BF6D420CDD2C4480EA020281EA34
:10725800030382EA000083EA010180EA020281EA6C
:107268000303362D88BF30BD11F0004F4FEA0131BE
:107278004FF4801C4CEA113102D0404261EB4101CD
:1072880013F0004F4FEA03334CEA133302D0524253
:1072980063EB430394EA050F00F0A780A4F101040F
:1072A800D5F1200E0DDB02FA0EFC22FA05F2801849
:1072B80041F1000103FA0EF2801843FA05F359412F
:1072C8000EE0A5F120050EF1200E012A03FA0EFCAE
:1072D80028BF4CF0020C43FA05F3C01851EBE371D8
:1072E80001F0004507D54FF0000EDCF1000C7EEBF5
:1072F80000006EEB0101B1F5801F1BD3B1F5001F33
:107308000CD349085FEA30004FEA3C0C04F1010451
:107318004FEA445212F5800F80F09A80BCF1004F7A
:1073280008BF5FEA500C50F1000041EB045141EAFC
:10733800050130BD5FEA4C0C404141EB010111F4FD
:10734800801FA4F10104E9D191F0000F04BF0146A8
:107358000020B1FA81F308BF2033A3F10B03B3F186
:1073680020020CDA0C3208DD02F1140CC2F10C0216
:1073780001FA0CF021FA02F10CE002F11402D8BF74
:10738800C2F1200C01FA02F120FA0CFCDCBF41EA40
:107398000C019040E41AA2BF01EB0451294330BD0F
:1073A8006FEA04041F3C1CDA0C340EDC04F11404EC
:1073B800C4F1200220FA04F001FA02F340EA0300C3
:1073C80021FA04F345EA030130BDC4F10C04C4F109
:1073D800200220FA02F001FA04F340EA03002946E9
:1073E80030BD21FA04F0294630BD94F0000F83F433
:1073F800801306BF81F480110134013D4EE77FEA16
:10740800645C18BF7FEA655C29D094EA050F08BF61
:1074180090EA020F05D054EA000C04BF1946104642
:1074280030BD91EA030F1EBF0021002030BD5FEA86
:10743800545C05D14000494128BF41F0004130BDAE
:1074480014F580043CBF01F5801130BD01F0004502
:1074580045F0FE4141F470014FF0000030BD7FEA75
:10746800645C1ABF194610467FEA655C1CBF0B4670
:10747800024650EA013406BF52EA033591EA030F87
:1074880041F4002130BD00BF90F0000F04BF00217F
:10749800704730B54FF4806404F132044FF00005B2
:1074A8004FF0000150E700BF90F0000F04BF00212B
:1074B800704730B54FF4806404F1320410F0004591
:1074C80048BF40424FF000013EE700BF42004FEA8C
:1074D800E2014FEA31014FEA02701FBF12F07F4309
:1074E80093F07F4F81F06051704792F0000F14BF06
:1074F80093F07F4F704730B54FF4607401F000454A
:1075080021F0004120E700BF50EA010208BF7047A0
:1075180030B54FF000050AE050EA010208BF704795
:1075280030B511F0004502D5404261EB41014FF4FE
:10753800806404F132045FEA915C3FF4DCAE4FF002
:1075480003025FEADC0C18BF03325FEADC0C18BFE9
:10755800033202EBDC02C2F1200300FA03FC20FA3A
:1075680002F001FA03FE40EA0E0021FA02F1144487
:10757800C1E600BF094B70B51C68256C06463DB9CD
:107588001A20FEF7D5F81A222064294600F057F988
:10759800216C3046BDE8704000F002B830E10320AD
:1075A80010B50C4641690369826986B001F26C71B5
:1075B8000491016803914168029181680191C16851
:1075C8000091074903EB43030B44064902EB4202CF
:1075D8000A4420460449FEF7C3F8204606B010BD09
:1075E8009D890D0088890D00C1890D000A2200219E
:1075F80000F074BA10B5054C13462CB10A46014682
:107608000220AFF3008010BD204610BD000000002E
:1076180038B5074B1C68E36B05461BB92420FEF7F9
:1076280087F8E063E16B2846BDE8384000F002B80F
:1076380030E103202DE9F0410C46804600F054FD6E
:1076480021460746404600F053FD466906F26C762F
:10765800B307044605D1642296FBF2F302FB1363D9
:107668004BB94FF4C87596FBF5F305FB1365B5FAEE
:1076780085F35B0900E001235F4A302505FB0325FC
:1076880000F066FB00F066FB5C4B1B68F3B17B689F
:107698009E4205D13968D8F80030FA6941B90AE044
:1076A800304600F0ADFA0028F4D14FF0FF330DE07A
:1076B800934208DB01E0934207DABA6B9342ACBF0E
:1076C8000023012302E0002300E001232362236A50
:1076D800012B0CBFF96B396A4FF461633C2091FBB5
:1076E800F3F603FB1613616893FBF0F200FB12300C
:1076F8002368891AA26861601B1A921B3B2B2360BE
:10770800A26003DD013161603C3B04E0002B03DA39
:10771800013961603C33236063683B2B03DD013230
:10772800A2603C3B04E0002B03DA013AA2603C3340
:107738006360A368172B22DDE2690132E261A26966
:107748000132062AC8BF0022A261E268183B013252
:10775800A3602369E26055F823108A4246DD0133AD
:107768000C2B0CBF63692361A2EB0102E26001BF2D
:10777800013300222261636108BFE26136E0002B19
:1077880034DAE269013AE261A269013A48BF0622A5
:10779800A261E2681833013AE260A36032BB236950
:1077A800013B01D423611DE00B23236163695A1E49
:1077B80012F0030F626103F26B7305D1642193FB2E
:1077C800F1F201FB12324AB94FF4C87193FBF1F29E
:1077D80001FB1233B3FA83F35B0900E0012303F5DD
:1077E800B673E361236955F82330E36000F0B1FA1A
:1077F8002046BDE8F08100BF448B0D00E4E703207C
:10780800002910B591FBF2F402FB141304DB002BE2
:1078180007DA01349B1A04E0002BC4BF04F1FF34DB
:107828009B180460436010BD10B5431E0A44914282
:1078380004D011F8014B03F8014FF8E710BD0244DA
:107848000346934202D003F8011BFAE77047000091
:1078580038B5124B1C68A36B0546D3B91820FDF741
:1078680067FF43F20E33A06303804AF6CD334380AB
:1078780041F2342383804EF26D63C3804DF6EC638E
:107888000381052343810B23838101220023C0E95F
:107898000423A36B00221D615A6138BD30E1032027
:1078A800194B10B51C68A36BD3B91820FDF740FF1E
:1078B80043F20E33A06303804AF6CD33438041F28E
:1078C800342383804EF26D63C3804DF6EC630381ED
:1078D800052343810B23838101220023C0E904236C
:1078E800A16B0A4C0B694869094A5C4302FB0040DA
:1078F800A3FB02230132034443F10003C1E904233B
:1079080023F0004010BD00BF30E103202DF4515892
:107918002D7F954C10F8012B11F8013B012A28BF47
:107928009A42F7D0D01A7047034611F8012B03F892
:10793800012B002AF9D17047024B0146186800F064
:1079480003B800BF30E1032070B5064608460C4670
:1079580000F00DF8451C29463046FDF721FF064684
:1079680018B12A462146FFF75FFF304670BD03462F
:1079780013F8012B002AFBD1181A0138704730B5CB
:1079880082B1451E013915F8013F11F8014FA34294
:1079980006D1EC431444E04201D0002BF3D11C463D
:1079A800181B30BD104630BD10B5034642B111F862
:1079B800014B03F8014B013A002CF7D11A4400E0BF
:1079C80010BD934202D003F8014BFAE710BD000046
:1079D8002DE9F04780464048D0F800900F463D46D4
:1079E80015F8014B09EB0400407800F0080000F09E
:1079F800FF0608B12F46F2E72D2C03D1BD1C7C7879
:107A0800012603E02B2C04BF7C78BD1C13B1102B7E
:107A18000AD15BE0302C57D1287800F0DF005828D5
:107A28004DD16C7810230235002E14BF4FF0004C56
:107A38006FF0004C0027BCFBF3FA384603FB1ACC66
:107A480009EB040E9EF801E01EF0040F01D0303C53
:107A58000BE01EF0030E1BD0BEF1010F0CBF4FF060
:107A6800370E4FF0570ECEEB0404A34210DDB7F1EA
:107A7800FF3F0AD0504506D801D1644503DC03FB1B
:107A88000040012701E04FF0FF3715F8014BD7E719
:107A98007B1C0CD1002E4FF0220314BF4FF0004086
:107AA8006FF00040C8F800302AB9BDE8F08706B189
:107AB800404272B107B1691E1160BDE8F0873024F9
:107AC800002BB1D10823AFE70A23ADE7302CA3D0B0
:107AD800AAE7BDE8F08700BFCCE0032013460A46BA
:107AE800014602480068FFF773BF00BF30E103207A
:107AF8002DE9F04780463C48D0F800900E463546C0
:107B080015F8014B09EB0400407800F0080000F07C
:107B1800FF0708B12E46F2E72D2C03D1B51C747867
:107B2800012703E02B2C04BF7478B51C13B1102B6C
:107B38000AD153E0302C4FD1287800F0DF005828C4
:107B480045D16C78102302354FF0FF3C0026BCFB72
:107B5800F3FC03FB0CFA6FEA0A0A304609EB040E41
:107B68009EF801E01EF0040F01D0303C0BE01EF03F
:107B7800030E1AD0BEF1010F0CBF4FF0370E4FF0B5
:107B8800570ECEEB0404A3420FDD002E08DB604540
:107B980006D801D1544503DC03FB0040012601E06F
:107BA8004FF0FF3615F8014BD8E7002E07DA2223ED
:107BB800C8F800304FF0FF302AB9BDE8F08707B1A8
:107BC800404272B106B1691E1160BDE8F0873024E9
:107BD800002BB9D10823B7E70A23B5E7302CABD07F
:107BE800B2E7BDE8F08700BFCCE0032013460A46A1
:107BF800014602480068FFF77BBF00BF30E1032061
:107C08002DE9F74F044600F06FFA40F2B1739C4239
:107C180040F396806FF4F663E318A4F2B2729B10F7
:107C280040F26D1505FB0235A4F26D726FF0630327
:107C380092FBF3F36FF4C8622B44A5184FF4C87293
:107C480095FBF2F51D44642394FBF2F794FBF3F6DD
:107C580002FB174703FB164600F13803B7FA87FE05
:107C6800019304F0030344604FEA5E1E014600934B
:107C78004FF0070C0B7A4A2B0ED14B69009AEC187F
:107C880002B906B927B93B2BD4BF0023012300E072
:107C980000232344013B3FE0442B02D14B692B4492
:107CA8003AE0009B2BB9002E0CBFF0464FF00108BC
:107CB80000E0F046244BCC68302202FB0838A8F1DB
:107CC800040AA9460123A34204DA5AF804BF01337F
:107CD800D944F8E709F1040393FBFCFBCBEBCB0A8F
:107CE800012CCAEB030A4B69B8BF012404F1804494
:107CF800B3EB0A0A0B6904F1FF3403F1FF3348BF01
:107D08000AF1070AC3EBC30358F824405344A342BB
:107D180001DB073BFBE74B448C690C4A02FB03433E
:107D28000C6A234441F81C3F019B9942A2D1C369C4
:107D3800826B9342ACBF002301230360012000E063
:107D4800002003B0BDE8F08F448B0D008051010086
:107D580070477047014B186800F002B830E1032003
:107D68002DE9F04F8DB0074600F0BEF9B049B14E8D
:107D78000446384600F0B0F9054660B9AE4BAF4A44
:107D88001860AF4B1860AF4B30681A605A60FDF747
:107D9800D7FC356048E1316879B93068FDF7D0FC27
:107DA8002846FFF7E4FD411C3846FDF7F9FC306032
:107DB80048B12946FFF7B8FD05E0FFF7ABFD0028FD
:107DC80000F03281E9E72B789F4AA0493A2B08BF97
:107DD80001350AAE33462846FDF7CAFC002840F3B1
:107DE80023810A9BEF18EB5C2D2B03D101374FF051
:107DF800FF3503E02B2B08BF013701250DF1200AC1
:107E08000DF11E0B4FF000080396CDF808A001965F
:107E1800CDF800B0334607AA8D49ADF81E80384624
:107E2800ADF82080FDF7A4FC404540F3FD80BDF887
:107E38001E20BDF82030DFF824923C2101FB0233DC
:107E4800BDF81C204FF4616101FB02335D432562DC
:107E58007C4D7D4B2B600A9B7C491F444A46334628
:107E68003846FDF785FC404508DC2B686B60724B93
:107E7800226A1A60724BC3F80080D5E00A9BC5F8E5
:107E88000490FD18FB5C2D2B03D101354FF0FF3713
:107E980003E02B2B08BF013501270023ADF81C3068
:107EA800ADF81E30ADF820300A930396CDF808A03F
:107EB8000196CDF800B0334607AA65492846FDF774
:107EC80057FC002804DC236AA3F56163E3630EE032
:107ED800BDF81E20BDF820303C2101FB0233BDF85F
:107EE8001C204FF4616101FB02335F43E7630A9B87
:107EF80027461D444FF000092B782C2B08BF01356D
:107F080095F80080B8F14D0F26D10DF126030293A4
:107F180009AB00930396019633460DF122024D49B1
:107F28002846FDF725FC03287ED1BDF822104B1EFC
:107F38000B2B79D8BDF82420531E042B74D8BDF818
:107F48002630062B70D887F80880F9603A617B6183
:107F58000A9B05EB03082AE0B8F14A0F06BF013572
:107F6800434644230A220BA928460593FFF73EFE01
:107F7800DDF82C80ADF826004545059B14D14D232E
:107F8800B9F1000F07D123720323E36002232361B1
:107F9800C4F814900BE084F824300B23A362012367
:107FA800E3620023236302E080B23B72786102231C
:107FB800ADF81C300023ADF81E30ADF820300A9320
:107FC80098F800302F2B0BD10396CDF808A0019616
:107FD800CDF800B0334607AA1F494046FDF7C8FB55
:107FE800BDF81E20BDF820303C2101FB0233BDF84E
:107FF8001C204FF4616101FB0233BB610A9D09F14A
:108008000109B9F1020F454407F11C077FF474AF69
:108018006068FFF7F5FD084B226A1A60E36B9B1A4C
:10802800074A18BF012313600DB0BDE8F08F00BFE9
:10803800A48B0D00E0E70320E8E70320A78B0D00E1
:10804800E4E7032034E10320D3E70320AB8B0D00E2
:10805800CE8B0D00BA8B0D00CD8B0D00C8E7032029
:108068002DE9F84F07468B46904600F0D9F8194B92
:108078001D689A463DB15C46234613F8012B42B170
:108088003D2A1C46F8D1384600F0CBF80020BDE860
:10809800F88FCBEB0404A94659F8040B0028F2D05A
:1080A80022465946FFF76BFC88B959F8043C1E195B
:1080B8001B5D3D2B0BD1DAF80030ED1AAD103846B8
:1080C800C8F8005000F0ADF8701CBDE8F88F4D46B8
:1080D800E1E700BF7CE1032007B501AAFFF7C0FF75
:1080E80003B05DF804FB0000004870473CE1032042
:1080F8000268474BF0B592FBF3F403FB1422002A05
:10810800BCBF02F5A83202F5C0724FF4616004F5F5
:108118002F2492FBF0F300FB13224FF03C00ACBF7E
:1081280004F66C2404F66B248B6092FBF0F300FBDE
:1081380013224B600A600723E21C92FBF3F3C3EBA4
:10814800C303D31A8B61334B334D94FBF5F503FB13
:10815800054448F6AC62B4FBF2F2224440F2B4574C
:10816800B4FBF7F3D21A2D48B4FBF0F048F6946646
:10817800131AB3FBF6F6344440F26D12B3FBF2F077
:10818800B3FBF7F3E31A02FB1033992403EB8302E2
:108198000232B2FBF4F20A2A04FB02F404F10206EA
:1081A8004FF00504B6FBF4F434BF02266FF009065D
:1081B80016444FF4C87202FB05055F1C012E98BFD8
:1081C8000135B3F5997FA7EB040702D3A3F599729C
:1081D80014E0820705D16424B0FBF4F204FB120218
:1081E8004AB94FF4C872B0FBF2F402FB1400B0FABB
:1081F80080F2520900E001223B331A44A5F26C7563
:108208000023CA614D610E61CF600B620846F0BD64
:10821800805101004FC5FDFFB13A0200B03A02009B
:10822800704770471D400D0059400D0085400D00F6
:1082380089400D000000000053746172747570204D
:108248005375636365737366756C00000000000006
:108258000000000000000000000000000000000016
:108268000000000000000000000000000000000006
:108278000000000000000000257320533A25322E2C
:10828800306625252C20513A25322E3066252520AA
:108298000025342E31662025250025692074697053
:1082A800730025342E316620430041542B43465534
:1082B8004E3D31360D0A007B22536F696C6D6F6934
:1082C800737475726531223A25342E31662C20225A
:1082D800536F696C6D6F69737475726532223A25D4
:1082E800342E31662C2022536F696C6D6F6973745C
:1082F80075726533223A25342E31662C2022536F4D
:10830800696C6D6F69737475726534223A25342E01
:1083180031662C2022536F696C6D6F6973747572A6
:108328006535223A25342E31662C2022536F696C2C
:108338006D6F69737475726536223A25342E31660D
:108348002C202250726563697069746174696F6E5C
:10835800223A2025692C2022536F696C74656D7050
:10836800223A25342E31662C202248756D696469BD
:108378007479223A25342E31662C202254656D708A
:1083880065726174757265223A25342E31662C2027
:108398002250616E656C68756D6964697479223AFA
:1083A80025342E31662C202250616E656C74656D03
:1083B8007065726174757265223A25342E31662CA7
:1083C800202242617474657279223A25342E31660E
:1083D8002C2022526164696F74656368223A2025F3
:1083E800692C20225369676E616C223A2025342E4D
:1083F80031662C20225175616C697479223A2025E6
:10840800342E31662C2022526573657473223A2506
:10841800692C2022416C65727473223A25697D00AB
:1084280043656C6C756C61725F4C69506F5F486F27
:108438006F6B004E6F204461746100556269646F10
:10844800747320486F6F6B00526573706F6E73653D
:1084580020526563656976656400537461746500CC
:1084680053657420566572626F7365204D6F64653D
:10847800003000436C656172656420566572626FF6
:108488007365204D6F64650054696D65207A6F6E61
:1084980065206F66667365742025690054696D658B
:1084A800004C6F7720506F776572004E6F726D6168
:1084B8006C204F7065726174696F6E730046726FDD
:1084C8006D20257320746F202573005374617465C3
:1084D800205472616E736974696F6E004D696E75B0
:1084E800746573004572726F722074616B696E6790
:1084F800204D6561737572656D656E747300737078
:1085080061726B2F6465766963652F736573736930
:108518006F6E2F656E6400476F696E6720746F20F9
:10852800536C656570004C6F772042617474657296
:1085380079202D20536C656570696E6700457272ED
:108548006F72205374617465202D205265736574B1
:10855800004572726F72205374617465202D204C2F
:108568006F73742053657373696F6E004572726F11
:1085780072205374617465202D2046756C6C204DF3
:108588006F64656D205265736574005369676E6129
:108598006C005265736574436F756E740052656C38
:1085A800656173650073746174654F66436867003D
:1085B8006C6F77506F7765724D6F64650074656D89
:1085C80070657261747572650068756D6964697447
:1085D8007900536F696C54656D7000536F696C4D09
:1085E8006F6973747572653100536F696C4D6F698B
:1085F80073747572653200536F696C4D6F6973746B
:108608007572653300536F696C4D6F697374757259
:10861800653400536F696C4D6F6973747572653595
:1086280000536F696C4D6F69737475726536004DD0
:108638006561737572652D4E6F77004C6F77506F5B
:108648007765724D6F646500566572626F73652D4C
:108658004D6F64650053657454696D655A6F6E6536
:10866800004661696C656420746F20636F6E6E6587
:108678006374005374617274757000556E6B6E6F1D
:10868800776E004E6F6E6500576946690047534D17
:1086980000554D54530043444D41004C5445004946
:1086A80045454538303231353400312E30350000FB
:1086B800000000000000000045580D003B580D0068
:1086C80031580D00E7570D0025580D0019580D00B9
:1086D8000D580D0005580D00FB570D00F1570D0002
:1086E8008D630D00000000000000000005590D001A
:1086F80097590D0007590D00D9590D000D590D0056
:10870800A5590D0039590D0065590D00FCFFFFFFF3
:10871800000000008F590D0000000000000000005C
:10872800255A0D002B5A0D00555A0D00395A0D00C7
:10873800275A0D0000000000000000002F600D0007
:1087480025600D001B600D0011600D0005600D0017
:10875800F95F0D00ED5F0D00E55F0D00DB5F0D00BB
:10876800D15F0D008D630D000000000000000000C7
:108778004D600D0097600D006F600D004F600D009B
:1087880077600D007F600D0087600D008F600D0021
:108798000000000000000000E1600D00D1600D0045
:1087A800D3600D0066006C6E00666E00636F6465D2
:1087B8000064657461696C00253031307520005D96
:1087C80020002564002C200028293A2000205B0086
:1087D800636F6465203D200064657461696C732073
:1087E8003D2000626175640053657269616C0053D5
:1087F800657269616C3100747970650070617261CD
:108808006D00636D6400696400686E64007374725F
:108818006D0066696C74006C766C00616464486114
:108828006E646C65720072656D6F766548616E6422
:108838006C657200656E756D48616E646C65727307
:10884800004A534F4E53747265616D4C6F674861AF
:108858006E646C657200617070006E6F6E65007496
:108868007261636500696E666F007761726E00659C
:1088780072726F720070616E696300616C6C0000E7
:10888800000000000000000023620D0019620D00C6
:108898000F620D0005620D00F9610D00ED610D001C
:1088A800E1610D00D9610D00CF610D00C5610D00BA
:1088B8008D630D00000000000000000025630D001E
:1088C8002F630D0039630D0043630D004D630D00E8
:1088D80059630D0065630D0071630D0079630D0028
:1088E80083630D008D630D00000000000000000090
:1088F800D1650D00D3650D00252B3033643A253042
:1089080032750025592D256D2D25645425483A25A5
:108918004D3A2553257A0061736374696D650000CB
:108928000000000000000000256A0D00756A0D00B7
:10893800836A0D006D640D00396A0D005B6A0D00D5
:10894800476A0D006F6A0D00276A0D002B6A0D003B
:1089580000000000000000002D6B0D007D6B0D0075
:108968008B6B0D006D640D00696B0D002F6B0D0096
:10897800456B0D00776B0D005B6B0D00296B0D00CF
:1089880053756E4D6F6E54756557656454687546BA
:1089980072695361744A616E4665624D61724170D5
:1089A800724D61794A756E4A756C41756753657089
:1089B8004F63744E6F76446563252E337320252EDE
:1089C800337325336420252E32643A252E32643AD7
:1089D800252E32642025640A000020202020202033
:1089E8002020202828282828202020202020202057
:1089F8002020202020202020202088101010101057
:108A080010101010101010101010040404040404A6
:108A18000404040410101010101010414141414189
:108A280041010101010101010101010101010101EE
:108A3800010101010110101010101042424242427F
:108A480042020202020202020202020202020202BE
:108A580002020202021010101020000000000000A4
:108A680000000000000000000000000000000000FE
:108A780000000000000000000000000000000000EE
:108A880000000000000000000000000000000000DE
:108A980000000000000000000000000000000000CE
:108AA80000000000000000000000000000000000BE
:108AB80000000000000000000000000000000000AE
:108AC800000000000000000000000000000000009E
:108AD800000000000000000000000000000000008E
:108AE800000000000000000000000000000000007E
:108AF800000000000000000000000000000000006E
:108B0800000000000000000000000000000000005D
:108B1800000000000000000000000000000000004D
:108B2800000000000000000000000000000000003D
:108B38000000000000000000000000001F0000000E
:108B48001C0000001F0000001E0000001F000000A5
:108B58001E0000001F0000001F0000001E00000093
:108B68001F0000001E0000001F0000001F00000082
:108B78001D0000001F0000001E0000001F00000074
:108B88001E0000001F0000001F0000001E00000063
:108B98001F0000001E0000001F000000545A00477C
:108BA8004D54002531305B5E302D392C2B2D5D2541
:108BB8006E004D256875256E2E256875256E2E2547
:108BC8006875256E002F256875256E3A2568752508
:108BD8006E3A256875256E00C9510D00C5580D00FF
:108BE80039600D00B5610D00D9620D0059640D00A2
:108BF800B5650D0075680D00116A0D00256F0D0033
:108C08007D6F0D0041700D00C5700D0049710D009C
:088C1800000000000000000054
:108C2000496E697469616C697A650000000045727B
:108C3000726F7200000000000000000049646C6563
:108C4000000000000000000000004D6561737572B7
:108C5000696E6700000000005265706F7274696E83
:108C6000670000000000526573706F6E73652057D7
:108C700061697400536C656570696E67000000007F
:108C800000004C6F772042617474657279000000B7
:108C9000B2860D00010000000000404083860D00F8
:108CA0008B860D0090860D0095860D0099860D002F
:108CB0009E860D00A3860D00A7860D001F890D005E
:108CC000E1890D0000000000E48A0D00048B0D0016
:108CD000248B0D00000000000000000000000000D8
:108CE00000000000B0820D00000000000000000045
:108CF0000000000000000000000000000000000074
:108D00000000000000000000000000000000000063
:108D10000000000000000000000000000000000053
:108D200000000000D0E00320A78B0D00A78B0D00F2
:108D300001000000000000004A00000000000000E8
:108D40000000000000000000000000000000000023
:108D5000000000004A0000000000000000000000C9
:108D60000000000000000000000000000000000003
:048D7000ECE7032009
:108D7400FFFFFFFF00000102030405060708090ABC
:108D84000B0C0D0E0F101112131415161718191AB7
:088D94001B1C1D1E1F202800FE
:048D9C0078563412BF
:04000003D0004018D1
:00000001FF
