:02000002D0002C
:1040000000400D00BC8B0D00000006000D000501F6
:084010000401BB0400000000E4
:1040180054800D0009480A49884208B505D0094A64
:10402800824202D0121A03F013FB0748074A002104
:10403800121A03F018FB014808BD00BF2CE003204A
:10404800408A0D0080E1032080E10320F0E703208F
:1040580070B502F0EFFD074C074BE41AA4080025E1
:104068001E46A54204D056F8253098470135F8E792
:1040780070BD00BF388A0D00008A0D0000F006BF31
:1040880008B500F0F1FCBDE8084002F0A1BD01F060
:104098003BBB01F041BB01F03FBB0078B0FA80F0B8
:1040A80040097047012303707047000008B50449B0
:1040B80002F009FB18B1034B03221A70012008BD56
:1040C8000F840D00F9E1032001F0F8B801F0FEB803
:1040D80037B59DF8184023438DF800303C2305463A
:1040E80001F0F8FD284603B030BD000030B58FB0B0
:1040F8001549164D164C04A801F092FB04A801F0CE
:10410800EAFB286004A801F04FFC04A884ED000A2B
:1041180001F030FC0F4B2D6883ED000A10EE100AF9
:1041280003F0FCF8CDE90201206803F0F7F8CDE9C7
:104138000001094B094A53F825300948402101F08C
:104148000BFB0FB030BD00BF1CE3032064E203206B
:1041580028E2032068E20320A8E00320A8800D00DD
:1041680070E2032007B5642002F0FAF907EE900A1E
:10417800834BF8EEE77AC3ED007A17EE900A03F066
:10418800CDF8804ACDE9000110217F4801F0E4FA1A
:10419800642002F0E5F907EE900A7C4BF8EEE77A26
:1041A800C3ED007A17EE900A03F0B8F8754ACDE926
:1041B80000011021764801F0CFFA642002F0D0F90E
:1041C80007EE900A734BF8EEE77AC3ED007A17EE24
:1041D800900A03F0A3F86B4ACDE9000110216E485C
:1041E80001F0BAFA642002F0BBF907EE900A6B4BB3
:1041F800F8EEE77AC3ED007A17EE900A03F08EF82E
:10420800604ACDE900011021654801F0A5FA642053
:1042180002F0A6F907EE900A624BF8EEE77AC3EDD2
:10422800007A17EE900A03F079F8564ACDE90001B2
:1042380010215D4801F090FA642002F091F907EE30
:10424800900A5A4BF8EEE77AC3ED007A17EE900A17
:1042580003F064F84B4ACDE900011021544801F0FD
:104268007BFA4FF47A7002F07BF9524A03461060E9
:104278001021514A514801F06FFA642002F070F998
:1042880007EE900A4E4BF8EEE77AC3ED007A17EE88
:10429800900A03F043F84B4ACDE9000110214A483F
:1042A80001F05AFA642002F05BF907EE900A474BD6
:1042B800F8EEE77AC3ED007A17EE900A03F02EF8CD
:1042C800304ACDE900011021414801F045FA642047
:1042D80002F046F907EE900A3E4BF8EEE77AC3ED96
:1042E800007A17EE900A03F019F8364ACDE9000172
:1042F8001021394801F030FA642002F031F907EE54
:10430800900A364BF8EEE77AC3ED007A17EE900A7A
:1043180003F004F81B4ACDE900011021304801F0F0
:104328001BFA642002F01CF907EE900A2D4BF8EEF8
:10433800E77AC3ED007A17EE900A02F0EFFF214A00
:10434800CDE900011021284801F006FA274B28483A
:104358004FF081421A60274B0022CDE9002310213B
:10436800084A01F0F9F9244B00221146586801F077
:1043780093F908B1FFF7BAFE012003B05DF804FB1A
:104388004CE20320C1800D009CE1032050E2032091
:10439800C8E1032044E20320E9E1032058E20320B6
:1043A80000E203205CE203202CE2032048E2032021
:1043B800B1E10320E4E10320CA800D0014E20320E8
:1043C80010E20320D2800D000CE30320ACE10320AF
:1043D800E0E2032004E3032085E10320FCE103205D
:1043E800C8E20320E0E10320B8E20320DCE2032076
:1043F800F0E20320000010401CE303202DE9D04325
:104408002A4800231A461946406801F04DF901F080
:10441800E3F84FF4967440F2E7360027002000F0E6
:104428006DFF4FF000098046002000F067FFB0EBF9
:10443800080061EB09018F4208BF864205D301F0ED
:10444800DBF810B901F0C0F8EEE701F0D5F8D0B10B
:1044580001F0D2F8044628B3002000F04FFF0027EF
:1044680006464EF65F284FF00009002000F046FF90
:10447800801B61EB0701894508BF80450CD302F01A
:104488003DFA48B90BE000F001FF094B186001F054
:104498009BF8013CDCD0C1E702F030FA02E001F001
:1044A80093F8E2E72046BDE8D08300BF1CE3032071
:1044B800E4E6032008B501F097F8064800231A46F9
:1044C8001946406801F0F8F84FF47A7001F05CF989
:1044D800012008BD1CE3032008B500F0D7FE044BFB
:1044E8001B68C01AB0F57A7F34BF0020012008BDD0
:1044F80008E3032008B5FFF7EFFF18B1BDE808404F
:10450800FFF7EABF01F060F8F5E7000037B501F002
:104518006BF800F0BBFE43F69725044601F06CF8F3
:1045280040B100F0B3FE001BA84203D8642001F09C
:104538002BF9F3E70021094B47F23052084600F007
:1045480055FE4FF47A7001F01FF9054B0A221B68DB
:104558000121684602F0EAF803B030BDDA800D00A8
:1045680054E2032038B5046805467CB16368013B12
:1045780063605BB9236820469B689847A368013B42
:10458800A3601BB923682046DB689847284638BDD6
:1045980010B5444B444C1B68ADF5247D2193434B27
:1045A8001B682093424B186802F0B8FECDE91E0143
:1045B800404B186802F0B2FECDE91C013E4B1B6867
:1045C8001A933E4B186802F0A9FECDE918013C4B3E
:1045D800186802F0A3FECDE916013A4B186802F0FC
:1045E8009DFECDE91401384B186802F097FECDE91D
:1045F8001201364B186802F091FECDE91001344BD8
:10460800186802F08BFECDE90E01324B1B680C9343
:10461800314B186802F082FECDE90A012F4B186869
:1046280002F07CFECDE908012D4B186802F076FEF9
:10463800CDE906012B4B186802F070FECDE90401A4
:10464800294B186802F06AFECDE90201274B186869
:1046580002F064FE264ACDE900014FF4007124A857
:1046680001F07AF8234B24491B7800228DF80020AA
:1046780022A824AAFFF72CFD23A8FFF773FF02F056
:104688005EF9206002F03EFB21780520FFF71EFD51
:104698001A4B01221A7000F0F9FD194B18600DF53C
:1046A800247D10BD24E20320DCE103203CE203204A
:1046B80068E2032028E2032064E20320DCE203200E
:1046C800E0E10320FCE1032004E30320ACE1032044
:1046D80010E20320E4E1032048E203205CE2032027
:1046E80058E2032044E2032050E203204CE2032076
:1046F800E7800D00B0E1032050820D00A0E0032008
:1047080098E10320F0B585B0084602AF0E4603F0E5
:1047180042F800F1080323F007036D46ADEB030DE3
:1047280002AC421C3146204603F052F89DF808605E
:104738004EB900F061FF00283BD0204B204A1B787F
:104748008DF800602EE0204602F078FEC838012877
:104758001FD800F051FF60B1184B1A491B7800228E
:104768008DF800203846184AFFF7B2FC381DFFF7CD
:10477800F9FE00F08BFD154B186002F0C3FA02F049
:10478800DEF8C1B20520FFF7A1FC114B00221A7018
:104798000FE000F031FF60B1084B00221B788DF864
:1047A8000020224638460B49FFF792FC381DFFF7D8
:1047B800D9FE0C37AD46BD46F0BD00BFB0E10320C1
:1047C80063820D008A820D0078820D0008E30320C1
:1047D800A0E003206B820D0030B5224985B0054664
:1047E80001F071FF0446C0B11F4B204D01241C701D
:1047F80002F088FA0420FFF767FC40F008002870F0
:1048080002F080FA29780420FFF760FC184B002298
:104818001B788DF80020174A1AE01749284601F03E
:1048280052FFE8B1104B114D1C7002F06BFA0420D6
:10483800FFF74AFC20F00800287002F063FA297894
:104848000420FFF743FC0A4B0C4A1B788DF8004004
:104858000B4902A8FFF73CFC03A8FFF783FE0120E1
:1048680005B030BD0F840D00E8E1032000E303200C
:10487800B0E1032090820D00A1820D00A3820D00FB
:10488800B3820D0030B5CDB00A2205A9006803F047
:1048980039F8C4B204F10C03DBB2182B3DD843B28B
:1048A80007EE903AB8EEE70A03931D4D01F0E8FFD2
:1048B80002F028FA21460320FFF708FC0024039B96
:1048C800184A4FF480710CA800F046FF2B7816495F
:1048D8008DF800400CAA08A8FFF7FAFB09A8FFF713
:1048E80041FE4FF47A7000F04FFF02F028F80146BD
:1048F80008A801F0E1FF089B0393039A2B780A4963
:104908008DF8004006A8FFF7E3FB07A8FFF72AFE8B
:1049180008A801F064FE012000E000204DB030BD81
:10492800B0E10320B8820D00CC820D007FB5264986
:10493800054601F0C8FE28B92449284601F0C3FEFF
:1049480000283FD002F0DEF90420FFF7BDFB204C21
:104958001D492070284601F0B6FE0646A0B11D4B41
:104968001D491B7800228DF8002002A81B4AFFF77A
:10497800AFFB03A8FFF7F6FD237843F0010323708C
:10498800174B01221A7016E01049284601F09BFEC9
:1049980088B1104B134A1B780F498DF8006002A8A4
:1049A800FFF796FB03A8FFF7DDFD237803F07E03EE
:1049B80023700B4B1E7002F0A5F904202178FFF735
:1049C80085FB012004B070BD0F840D00A1820D008D
:1049D80000E30320B0E10320B3820D00D1820D0073
:1049E80060E20320DB820D0030B5184D184C1949E0
:1049F8002A7820788FB00E2303FB0212009203FB63
:104A08000013154A282104A800F0A6FE2B7823706D
:104A180000F0F2FD90B1FFF76DFD104B10491B78C7
:104A280000228DF8002002A804AAFFF751FB03A872
:104A3800FFF798FD00F02AFC0A4B186002F084F892
:104A480004A901F030FD0FB030BD00BFF9E103202B
:104A5800D8E103202CE00320ED820D00B0E1032013
:104A6800FB820D0008E30320F0B58C4C2378013B52
:104A780089B0062B00F2E481DFE813F07B01070020
:104A88003C0068008000B3004001854B1B782BB1C7
:104A9800844B1B78022B01D0FFF7A6FF824B1B78B3
:104AA8004BB100F0F3FB814B1B68C01A804B1B68AD
:104AB800984200F2BF8101F053FF052390FBF3F306
:104AC80003EB8303984207D101F039FF794B1B6848
:104AD800C01A3C2800F3B181774B93ED007A774BED
:104AE800D3ED007AB4EEE77AF1EE10FA00F2A8817D
:104AF800072329E06A4B1A781D462AB1694B1B78AF
:104B0800032B01D0FFF770FFFFF72CFB0646D0B947
:104B1800012323702B78002B00F09281FFF7EAFC29
:104B280000F06AFD58B1664B664A1B7866498DF8F5
:104B3800006006A8FFF7CCFA07A8FFF713FD00F0FE
:104B4800A5FB624B2EE00423237079E1544B1B78BC
:104B58002BB1544B1B78042B01D0FFF745FF00F015
:104B68004BFD00283BD001F0F1FE0C2802D10020BB
:104B780000F062FDFFF70CFD0523E5E7484B1B78C5
:104B88002BB1484B1B78052B01D0FFF72DFF504B5D
:104B98001B784BB902232370454B4E4A1A6000F02C
:104BA80075FB424B18604BE100F070FB4A4B1B68E9
:104BB800C01A4AF6C873984240F2428100F066FB78
:104BC800464B474918603E4B00221B788DF8002061
:104BD80006A8444AFFF77CFA07A8FFF7C3FC01239D
:104BE800B2E72F4B1A781D462AB12E4B1B78062B9D
:104BF80001D0FFF7F9FE3C4B1E781F465EBB00F064
:104C0800FBFCC8B12B788BB1FFF774FC2C4B374AEF
:104C18001B782D498DF8006006A8FFF759FA07A8F8
:104C2800FFF7A0FC00F032FB284B18604FF47A70B5
:104C380000F0AAFDFFF73EFC02F064F82C4B0220BE
:104C48001978FFF743FA2B4B00210720197002F05F
:104C580040F801233B7001F072FE274B19680623C8
:104C6800ADF8163008AB012203F80B2D02914FF472
:104C7800967190FBF1F505FB1100081A8842A8BF50
:104C88000846019000920DF1160106A801F07EFD7C
:104C980002232370FFF7B2FBD2E000BFF9E1032043
:104CA800E8E10320D8E1032060E203206CE203205E
:104CB800B0E20320DCE10320DCE20320A4E00320CF
:104CC800B0E103200C830D008A820D0008E3032065
:104CD800A0E00320905F010098E10320B4E20320E4
:104CE80026830D00E6800D0084E103203F830D003C
:104CF8003CE20320D8E2032054E20320514B1A7807
:104D08001C462AB1504B1B78072B01D0FFF76CFECD
:104D180000F072FCD0B1237893B1FFF7EBFB4B4B5B
:104D28004B491B7800228DF8002006A8494AFFF756
:104D3800CFF907A8FFF716FC00F0A8FA464B186051
:104D48004FF47A7000F020FDFFF7B4FB434B0021CD
:104D58000720197001F0BDFF01F002FE404BC0F1C1
:104D68003C003C2242431B68012106A801F0DEFCFE
:104D780066E0344B1B782BB1334B1B78012B01D0E9
:104D8800FFF732FE00F082FA364B1B6803F5EA4360
:104D98003033984254D9344B1B68032B16DC00F08F
:104DA8002BFC60B1294B2A491B7800228DF8002082
:104DB80006A82E4AFFF78CF907A8FFF7D3FB4FF494
:104DC800FA6000F0E1FC01F0ADFC39E001F0B7FD5C
:104DD800044601F097FF0520FFF776F9201AB0F591
:104DE800E15F1CDD00F008FC60B1184B00221B7865
:104DF8008DF800201E4A164906A8FFF769F907A88A
:104E0800FFF7B0FB4FF4FA6000F0BEFC01F07AFF48
:104E180000210220FFF75AF9FFF778FB10E000F0B5
:104E2800EBFB0028EED0094B00221B788DF8002000
:104E3800104AE0E7062323703DE6032323704BE680
:104E480009B0F0BDE8E10320D8E10320B0E1032078
:104E58008A820D004E830D0008E30320D8E2032068
:104E680054E20320B4E203203CE2032065830D00F2
:104E780079830D0094830D000023042200F094BB75
:104E88000246014800F006BE715A0D00F0B5914B7C
:104E9800B9B008AA03F110051646186859681446EF
:104EA80003C40833AB422246F7D119889B78A37014
:104EB8002D2221800DF133000021874F02F0D3FB12
:104EC8000225012107203D7001F0F2FE04A800240C
:104ED80000F09AFB00237D2218A904A801F005FC24
:104EE800234622467D490194009418A800F09CFBB3
:104EF8007B497C48FFF7C0FF23462A467A497B480E
:104F080000F052FB7A497B4809682346042200F0E6
:104F18004BFB79497948FFF7AFFF234601227849CF
:104F2800784800F041FB78497848FFF7A5FF7849B1
:104F38007848FFF7A1FF78497848FFF79DFF78493F
:104F48007848FFF799FF78497848FFF795FF78493F
:104F58007848FFF791FF78497848FFF78DFF78493F
:104F68007848FFF789FF78497848FFF785FF78493F
:104F78007848FFF785FF78497848FFF781FF784937
:104F88007848FFF77DFF78497848FFF779FF01F007
:104F9800B9FE2046FFF798F8012819D101F0B2FEB2
:104FA8000220FFF791F8504C00222060114602A819
:104FB800029200F05BF9029B142B1ED12368013387
:104FC800236001F09FFE21780220FFF77FF814E0AC
:104FD80001F098FE0125042202A92046029500F05E
:104FE8007DF901F08FFE2846042202A901350294BA
:104FF80000F074F90A2DF4D1D0E72368052B07DDFA
:1050080001F080FE04210220FFF760F8FFF77EFA26
:1050180001F078FE0320FFF757F800F10C03DBB22C
:10502800182B9ABF43B200EE103A9FED510A514C2B
:1050380098BFB8EEC00A01F023FC01F063FE05201A
:10504800FFF742F801F014FC4B4B187001F05AFEC0
:105058000420FFF739F8494B1870294B00F001027A
:10506800C0F3C0001A702070FFF77CF8444B93ED32
:10507800007A444BD3ED007AB4EEE77AF1EE10FAF9
:1050880002D807233B7008E0FFF7B8F928B90123D5
:105098003D493B70304602F05BFB00F0ADFA08B1C9
:1050A800237843B900F0F2F8384B186004A801F0EF
:1050B80096FA39B0F0BD364B36491B7800228DF888
:1050C800002002A83246FFF703F803A8FFF74AFAC0
:1050D800E8E700BF68800D00F9E103200D470D00E7
:1050E80070E20320B3830D003CE20320BA830D0075
:1050F8009CE00320C5830D00F0E20320CD830D0062
:1051080060E20320D8830D0085E10320E5830D00CC
:10511800E0E20320F1830D000CE30320FA830D0085
:105128009CE1032003840D00C8E1032011840D00D5
:10513800E9E103201F840D0000E203202D840D0007
:105148002CE203203B840D00B1E1032049840D00CB
:10515800B5400D0057840D0035490D0063840D00DE
:10516800E1470D0070840D008D480D007D840D0011
:1051780000000000E8E1032040E2032000E30320F0
:10518800DCE20320A4E0032089840D0008E3032067
:10519800B0E103209B840D0038B50D4B00241C6042
:1051A8000C4B01251D7000F0B1F80B4B4FF6FF7248
:1051B8001C705C809A80022000F0A0F921462846E5
:1051C80000F0B4F929460420BDE8384000F03EB8A4
:1051D80054E20320B0E10320C2E1032008B5024BEA
:1051E8001B685B6C019308BD7402030008B5024B91
:1051F8001B689B6C019308BD7402030008B5024B41
:105208001B689B68019308BD4802030008B5024B60
:105218001B681B69019308BD4802030008B5024BCF
:105228001B685B69019308BD4802030008B5024B7F
:105238001B681B6B019308BD4802030008B5024BAD
:105248001B685B6C019308BD4802030008B5024B5C
:105258001B685B6E019308BD3402030008B5024B5E
:105268001B689B6E019308BD3402030008B5024B0E
:105278001B68DB6E019308BD3402030008B5024BBE
:105288001B685B68019308BD1802030008B5024B50
:105298001B685B69019308BD1802030008B5024B3F
:1052A8001B68DB69019308BD1802030008B5024BAF
:1052B8001B689B6A019308BD1802030008B5024BDE
:1052C8001B68DB6A019308BD1802030008B5024B8E
:1052D8001B681B6B019308BD1802030008B5024B3D
:1052E8001B689B6C019308BD1802030008B5024BAC
:1052F8001B689B6D019308BD1802030008B5024B9B
:105308001B68DB6D019308BD1802030008B5024B4A
:105318001B681B68019308BD2C02030008B5024BEB
:105328001B689B68019308BD2C02030008B5024B5B
:105338001B68DB68019308BD2C02030008B5024B0B
:105348001B681B69019308BD2C02030008B5024BBA
:105358001B681B6A019308BD2802030008B5024BAD
:105368001B685B6A019308BD2802030008B5024B5D
:105378001B689B6A019308BD2802030008B5024B0D
:105388001B68DB6A019308BD2802030008B5024BBD
:105398001B681B6B019308BD2802030008B5024B6C
:1053A8001B685B6B019308BD2802030008B5024B1C
:1053B8001B681B6C019308BD2802030008B5024B4B
:1053C8001B685B69019308BD6402030008B5024BC2
:1053D8001B689B68019308BD6802030008B5024B6F
:1053E8001B68DB68019308BD6802030008B5024B1F
:1053F8001B68DB69019308BD3002030008B5024B46
:105408001B681B6A019308BD3002030008B5024BF4
:105418001B681B68019308BD3C02030008B5024BDA
:105428001B68DB68019308BD3C02030008B5024B0A
:105438001B681B69019308BD3C02030008B5024BB9
:105448001B685B69019308BD3C02030008B5024B69
:105458001B689B69019308BD3C02030008B5024B19
:105468001B68DB69019308BD3C02030008B5024BC9
:105478001B681B6A019308BD3C02030008B5024B78
:105488001B689B6A019308BD3C02030008B5024BE8
:105498001B681B68019308BD4C02030008B5024B4A
:1054A8001B681B69019308BD4C02030008B5024B39
:1054B8001B685B69019308BD4C02030008B5024BE9
:1054C8001B689B69019308BD4C02030008B5024B99
:1054D8001B68DB69019308BD4C02030008B5024B49
:1054E8001B681B6A019308BD4C02030008B5024BF8
:1054F8001B681B68019308BD2002030008B5024B16
:105508001B685B68019308BD2002030008B5024BC5
:105518001B685B69019308BD2002030008B5024BB4
:105528001B689B69019308BD2002030008B5024B64
:105538001B68DB6A019308BD2002030008B5024B13
:105548001B68DB6C019308BD2002030008B5024B01
:105558001B685B6D019308BD2002030008B5024B70
:105568001B689B6D019308BD2002030008B5034B1F
:105578001B68D3F88830019308BD0000200203009F
:1055880008B5034B1B68D3F89430019308BD00009D
:105598002002030008B5034B1B68D3F8A030019321
:1055A80008BD00002002030008B5024B1B681B68F9
:1055B800019308BD4402030008B5024B1B685B68F1
:1055C800019308BD4402030008B5024B1B689B68A1
:1055D800019308BD4402030008B5024B1B68DB6851
:1055E800019308BD4402030008B5024B1B681B6900
:1055F800019308BD4402030008B5024B1B685B69B0
:10560800019308BD4402030008B5024B1B68DB691F
:10561800019308BD4402030008B5024B1B681B6ACE
:10562800019308BD4402030008B5024B1B685B6A7E
:10563800019308BD4402030008B5024B1B68DB6AEE
:10564800019308BD4402030008B5024B1B681B6B9D
:10565800019308BD4402030008B5024B1B68DB6BCD
:10566800019308BD4402030008B5024B1B685B6840
:10567800019308BD4002030008B5024B1B689B68F4
:10568800019308BD4002030008B5024B1B68DB68A4
:10569800019308BD4002030008B5024B1B681B6953
:1056A800019308BD4002030008B5024B1B685B6903
:1056B800019308BD4002030008B5024B1B689B69B3
:1056C800019308BD4002030008B5024B1B68DB6963
:1056D800019308BD4002030008B5024B1B681B6A12
:1056E800019308BD4002030008B5024B1B681B6B01
:1056F800019308BD4002030008B5024B1B685B6BB1
:10570800019308BD4002030008B5024B1B681B68E3
:10571800019308BD1C02030008B5024B1B685B68B7
:10572800019308BD1C02030008B5024B1B689B6867
:10573800019308BD1C02030008B5024B1B681B69D6
:10574800019308BD1C02030008B5024B1B689B6946
:10575800019308BD1C02030008B5024B1B68DB69F6
:10576800019308BD1C02030008B5024B1B68DB6AE5
:10577800019308BD1C02030008B5024B1B681B6B94
:10578800019308BD1C0203000021FFF7BFBE10B53E
:10579800836804460BB901F012FBC3689847A368F5
:1057A8001BB1032221462046984720461021BDE818
:1057B800104001F002BB002211464068FFF76CBFA1
:1057C800002211464068FFF787BF00221146406853
:1057D800FFF792BF00224068FFF786BF002281F0E2
:1057E80001014068FFF770BF00231A461946406858
:1057F800FFF762BF00231A4619464068FFF754BFF7
:10580800002211464068FFF737BF00220221406896
:10581800FFF73ABF00231A464068FFF725BF00008C
:10582800F0B51B4B036000250F462833182689B0B6
:1058380043608560C560324629460446103001F051
:1058480012FF2A4629467868FFF726FF08B9A060A4
:105858001BE02946324602A80095019501F003FF96
:1058680002A96846ADF80860FFF7B8FC10B101233B
:10587800A3600AE0009B019AA360E2600BB90223CF
:10588800A36002A9204600F0A9F8204609B0F0BD9F
:1058980014850D0038B50C4C28252A4600212046D1
:1058A80001F0E1FE4FF0FF3363602580074C0423CD
:1058B800204663602C25064B40F8083B2A46002109
:1058C80001F0D1FE258138BD50E303201CE30320FD
:1058D800E0840D007047007D70470000037D1BB118
:1058E8008369B3F1004F02D19FED050A704707EEB7
:1058F800903A9FED047AF8EEE77A87EE870A7047C8
:10590800000000000000C842037D1BB1036AB3F128
:10591800004F02D19FED050A704707EE903A9FEDC0
:10592800047AF8EEE77A87EE870A704700000000ED
:105938000000C84270B50D4606460A22816828460E
:1059480000F00CFE2C210446284600F09DFD0A229A
:105958000444F168284600F001FE204470BDA0F11F
:105968000400FFF7E7BF10B52821044601F025FA27
:10597800204610BD037D7BB1436A002B0CDB07EE8C
:10598800903ADFED076A9FED070AB8EEE77AC7EEAF
:10599800267A27EE800A7047BFEE000A704700BFDC
:1059A80000FF7F470000C842037D7BB1C369002B1D
:1059B8000CDB07EE903ADFED076A9FED070AB8EEB9
:1059C800E77AC7EE267A27EE800A7047BFEE000A0C
:1059D800704700BF00FF7F470000C84230B50D4642
:1059E80000F110040FCD0FC495E8030084E803000C
:1059F800012030BD70470020704710B510210446C3
:105A080001F0DBF9204610BD08B508B1FFF7F5FF36
:105A180008BD10B58368044613B1032201469847B0
:105A2800204610BD38B5C468ECB12378022B02D1EA
:105A3800E068FFF771FE656835B12846FFF7E9FFB2
:105A48001021284601F0B9F9A56835B12846FFF7B5
:105A5800E0FF1021284601F0B0F920461421BDE8E6
:105A6800384001F0AAB938BD10B588B00446684678
:105A780000F0FCFD694604A800F01AFE04A8A0473F
:105A8800044604A800F0ABFD684600F0A8FD2046D7
:105A980008B010BDF0B5102485B007460E4615466F
:105AA80000212246684601F0DEFD002269461046C4
:105AB800ADF80040029703960195FFF77DFD05B00C
:105AC800F0BD13B5044691E8050000234B600B6058
:105AD8002060626001A801930093FEF743FD204611
:105AE80002B010BD0B68036013B15A6801325A60E6
:105AF8007047F7B50C4602AD54F8043B45F8083D2D
:105B080006460F4601A82146FFF7ECFF2946304616
:105B1800FFF7D7FF01A8FEF725FD2046FEF722FD77
:105B28003846082101F049F9304603B0F0BD13B5F5
:105B38000B46044603C88DE8030093E8030084E895
:105B480003009DE8030083E8030002B010BD8268EB
:105B580010B50AB901F033F9C368BDE81040184719
:105B680008B5006800F11001FFF7F1FF08BD826871
:105B780010B50AB901F023F9C368BDE81040184709
:105B880008B5006800F11001FFF7F1FF08BD38B54E
:105B9800002383608B6804460D462BB10222984788
:105BA800EB68E360AB68A360204638BD2DE9F0419F
:105BB8004FF69C7386B00468B1F904208B800023EB
:105BC8000F688DF800300B604FF00200D4E84F1FCB
:105BD800994203D1C4E8450F002DF7D102D08DF8C2
:105BE80000106BE014F10C051EBFE76022821F460F
:105BF8000123BFF35F8F0020637004F10803BFF334
:105C08005F8F53E8006F43E80002002AF9D1BFF321
:105C18005F8F002E52D0FFF791FC20B12946304605
:105C2800FFF795FF43E031466846FFF7B0FFE068AD
:105C3800B4F9105008B101F093FD04901020ADF8AC
:105C48001450FEF724FA054630B34FF00008C0F8A8
:105C580008801820FEF71BFA0446C0B1C0F8088077
:105C680001466846FFF763FF029BA268A360039B97
:105C78000292E268E360BDF81430A3824FF69C7389
:105C8800ADF81430049B03922361CDF810800E4BBD
:105C9800EB600E4B2C60AB600498FFF73DFD684647
:105CA800FFF7B7FE002229460948FFF74FFC3046A8
:105CB800FFF7AFFE1021304601F07FF83846FFF7B6
:105CC8002BFD06B0BDE8F081695B0D00C55D0D00D8
:105CD80097570D002DE9F04F8BB007AD4FF0000B33
:105CE8000646994614200C230F4690469DF850A06E
:105CF800C5F804B0C5F808B00793FEF7C8F904461C
:105D080038B180F800B080F801B0C0F804B0C0F82D
:105D180008B00023102003940493FEF7B8F928B1C3
:105D2800012343608360234B0360C4600490224BCB
:105D380008930820FEF7ABF9044628B1039B40F806
:105D4800043B04A9FFF7CEFE00955FFA8AF34A46A2
:105D5800414638460994FFF75FFCB8B9039B5B7866
:105D680003F0FF0293B94FF69C7305A903A80592A7
:105D7800ADF81830FFF71AFF0598FFF7CDFC05A816
:105D88000999FFF7B6FE06A8FEF7ECFB039B0593FF
:105D980004A906A8FFF7A6FE05A93046FFF791FE5D
:105DA80006A8FEF7DFFB04A8FEF7DCFB30460BB0C5
:105DB800BDE8F08F48850D00315F0D00022AF8B567
:105DC800044606D0032A17D0012A21D10B680360A4
:105DD8001EE018200E68FEF75AF9054650B1314604
:105DE800FFF7D5FE3069B6F9147008B101F0B8FCB8
:105DF8002861AF8225600BE004684CB12069FFF789
:105E08008BFC2046FFF705FE1821204600F0D5FF41
:105E18000020F8BD38B5002383608B6804460D4622
:105E28002BB102229847EB68E360AB68A360204679
:105E380038BD022A70B5044606D0032A11D0012ABB
:105E480018D10B68036015E014200E68FEF71FF9DF
:105E5800054620B13146FFF7DDFF337C2B74256002
:105E680008E0046834B12046FFF7D3FD142120462A
:105E780000F0A3FF002070BDF0B5002387B00C46EA
:105E8800BFF35F8F50E8006F40E80032002AF9D175
:105E9800BFF35F8F002E3FD01846FFF74FFB074632
:105EA80020B121463046FFF762FE2EE0314601A8B8
:105EB800FFF7B0FF23788DF814301020FEF7E7F8CD
:105EC8000546D0B187601420FEF7E1F8044678B1A2
:105ED8008760014601A8FFF72AFE039BA268A3601A
:105EE800049B0392E268E3609DF8143004922374E3
:105EF8000A4BEB600A4B2C60AB6001A8FFF789FDE9
:105F0800002229460748FFF721FB3046FFF781FDAD
:105F18001021304600F051FF07B0F0BD895B0D003D
:105F28003B5E0D0097570D0030B585B004460D4611
:105F380068461146FFF7DDFD7CB124B228460DB155
:105F480001F00EFC029002A96846ADF80C40FFF77C
:105F58002DFE0298FFF7E0FB1DE000988DF8084041
:105F68004FF00102D0E84F3FA34203D1C0E8412FD0
:105F78000029F7D102D08DF808300CE010F10C019F
:105F88004FF0010318BF0373BFF35F8F043000F8AD
:105F9800033CFFF771FF01A8FEF7E4FA05B030BD36
:105FA800002211464068FFF797BB0022114640685F
:105FB800FFF7A2BB00224068FFF796BB002281F0E2
:105FC80001014068FFF780BB00231A461946406864
:105FD800FFF772BB00231A4619464068FFF764BBF7
:105FE800002211464068FFF757BB0022114640685F
:105FF800FFF742BB002202214068FFF745BB0023A0
:106008001A464068FFF730BB024B03225A60024A27
:106018001A60704778E3032064850D007047F8B56F
:10602800064615460C468F18BC4206D0336814F84D
:10603800011B9B6830469847F6E72846F8BD0022C2
:10604800007CFFF783B90021007CFFF787B90021A6
:10605800007CFFF78BB90021007CFFF78FB9002186
:10606800007CFFF793B910B51421044600F0A5FE93
:10607800204610BD10B504464FF47A730846A36055
:106088000021044B207461602360FFF78FF92046DC
:1060980010BD00BF98850D000021007CFFF77EB978
:1060A800704710B51821044600F087FE204610BD41
:1060B800F0B5037D062B8DB00E4600F104074FF0B6
:1060C800000402D000F1080518E00CAD394605F8C7
:1060D800304D2F232A460A20FFF770F9284601F091
:1060E8005AFB33680246DB682946304698470FE07A
:1060F80024B12E21304600F0C7F9044415F8011DDB
:106108000A22304600F006FABD420444F0D1204687
:106118000DB0F0BD10B5054B0446112240F8043B04
:10612800002101F0A0FA204610BD00BFC0850D0077
:106138000346074A10B543F8042B01F1100251F841
:10614800044B43F8044B9142F9D10A781A7010BDF8
:10615800C0850D0010B59DF8084044EA032343EAC2
:10616800024242EA016104234160037510BD37B55C
:106178000D788B784A78C97800912946FFF7EAFFAD
:1061880003B030BD014B024A1A60704780E3032018
:106198007E860D00002211464068FFF79DBA002256
:1061A80011464068FFF7A8BA00224068FFF79CBA7A
:1061B800002281F001014068FFF786BA00231A46E1
:1061C80019464068FFF778BA00231A46194640680E
:1061D800FFF76ABA002211464068FFF75DBA00224D
:1061E80011464068FFF748BA002202214068FFF7CD
:1061F8004BBA00231A464068FFF736BA38B5054649
:1062080088B104684CB1A3681BB10322214620461B
:1062180098471021204600F0D0FD28461421BDE8FB
:10622800384000F0CABD38BD10B103685B68184734
:10623800704710B503680446BBB15868FEF7DEFF27
:1062480078B923685A7C12B95868FEF7DFFF2368CB
:106258005868FEF7E3FF20680023236028B1FFF7A2
:10626800CDFF206808B1FFF7C9FF204610BD000028
:1062780038B50C4B03600446D0F8CC0108B1FDF7E3
:106288000AFFD4F8C45135B12846FFF7D2FF0421DC
:10629800284600F092FDA06808B1FFF7C5FF204628
:1062A80038BD00BFB0860D0038B50D4C0D4B2360CE
:1062B8000025022304F5E4706360A560C4F8C451A6
:1062C800C4F8C851FEF7BAFF074BC4F8CC51236095
:1062D8002046064A0649BDE8384000F069BD00BFBF
:1062E80084E30320E4860D00B0860D0080E10320DE
:1062F80079620D0000231A464068FFF7B5B90022FD
:1063080002214068FFF7C0B9002211464068FFF734
:10631800B3B9002211464068FFF7BEB900231A46F8
:1063280019464068FFF7C0B900231A461946406865
:10633800FFF7C2B9002281F001014068FFF7C4B934
:1063480000224068FFF7D0B9002211464068FFF7E5
:10635800D3B9002211464068FFF7BEB92DE9F043D2
:10636800002495B016460D460746FFF7D3FE214692
:1063780020220CA8009401F076F940230C932146C2
:106388006B460CAA3046FFF729F80446002844D18A
:10639800024601216868FFF77FF9022180462246FC
:1063A8006868FFF779F9009E81462146002E34D0AF
:1063B800002932D17368022B02D00A2B09D02AE0B7
:1063C800B8F1000F27D0716938460431FFF7CFFEC6
:1063D80020E0B9F1000F1ED07469112201A801F064
:1063E80042F906238DF8143001AD04F1080318347E
:1063F800186859682A4603C20833A3421546F7D1DC
:1064080001A906A807ADFFF793FE0FCD3C1D0FC4E9
:106418002B6823700121F669C8E70098FEF7D6FFBC
:10642800384615B0BDE8F083024B034A1A600022D3
:106438005A60704754E50320E4860D00F8B5064617
:106448000D468F180024BD420CD0336815F8011B87
:106458009B6830469847002801DB0444F3E7002C8A
:1064680008BF04462046F8BD70B505460C460846E8
:1064780049B101F090F92B68024621462846DB68AD
:10648800BDE87040184770BD03689B68184738B569
:106498000D210546FFF7F8FF0A2104462846FFF7B5
:1064A800F3FF204438BD38B50546FFF7DDFF044645
:1064B8002846FFF7ECFF204438BD30B58BB00B46BB
:1064C80000218DF82410012A98BF0A220DF1230417
:1064D800B3FBF2F505FB123303F0FF03092B94BF5E
:1064E80030333733DBB2214604F801392B46002D0F
:1064F800EED1FFF7B9FF0BB030BD10B42AB903686D
:106508005DF8044B9B68C9B21847D2B25DF8044BDA
:10651800FFF7D3BFFFF7F1BF2DE9F04107460E465D
:1065280015462AB90368C9B29B68BDE8F041184707
:106538000A2A02D1002901DA04E0D2B2BDE8F0410A
:10654800FFF7BBBF2D21FFF79FFF2A460446714284
:106558003846FFF7B2FF2044BDE8F081FFF7DCBF03
:1065680010B5044630B101F0AFF890FBF4F303FB2B
:10657800140010BD10BD10B50446FFF74AFA2046B6
:1065880010BD00000348044A04490023836000F05A
:106598000FBC00BF5CE5032080E103207F650D0090
:1065A800704710B51021044600F007FC204610BDC6
:1065B80070B5084B0360044600250E4640F80C5F92
:1065C800FEF734FE30462671FEF710FFA560204620
:1065D80070BD00BF18870D000079FEF70FBF10B51A
:1065E80004460068FFF798F8204610BD10B5044629
:1065F800006808B1FFF790F800232360A360636088
:1066080010BD38B504460D4600680131FFF78CF817
:1066180010B184E82100012038BD10B50368044694
:1066280013B143688B4207D22046FFF7EAFF20B137
:10663800A3680BB922681370012010BD70B50E460F
:10664800114604461546FFF7E8FF18B92046FFF73C
:10665800CDFF09E02A463146A560206800F0F8FF22
:106668002268A3680021D154204670BD38B50023A4
:10667800044603604360836003730D4639B10846DE
:1066880001F089F8294602462046FFF7D7FF204641
:1066980038BD884210B50B46044607D0096819B1C1
:1066A8009A68FFF7CBFF01E0FFF7A0FF204610BD77
:1066B80010B5002304460360436083600373FFF74B
:1066C800E8FF204610BD08B582680B4612B919B913
:1066D800012008BD11B90368187802E0006801F0CC
:1066E8002DF8B0FA80F0400908BD70B50E469AB191
:1066F80091B185689D4202D800230B7070BD541E6D
:10670800ED1A0168AC4228BF2C461944224630468F
:1067180001F05EF80023335570BD014600228C203D
:10672800FEF79CBD0020FFF7F8BF000010B5044637
:10673800084611461A460023FEF7F0FE064B0022D3
:106748001A704FF6FF7258809A801A689B882260E8
:10675800A380204610BD00BF6CE5032010B50024BF
:106768000470448000294FF6FF74848007DD0139E6
:10677800994209D232F811308380012301E002D115
:106788000223037010BD418010BD000070B586B0B3
:1067980016461A46002302930C9B01930D460B9B49
:1067A800009304460A9B31462846FEF7F3FE33461B
:1067B8002A46014604A8FFF7D1FF064B0498BDF806
:1067C800142018609A801A689B8822602046A3804B
:1067D80006B070BD6CE50320044B00204FF6FF7235
:1067E800187058809A80FEF789BE00BF6CE50320B8
:1067F800F0B5144B144F1E68144B064418683B68D8
:1068080006449E428BB01BD00AA801AD40F8286D03
:1068180000F026FE436903F26C73436104460FCC13
:106828000FC50FCC0FC5D4F800E0C5F800E001ADE6
:106838000FCD074C0FC40FCD0FC43E60C4F800E065
:106848000BB0F0BDA4E50320A0E503209CE50320E0
:1068580074E5032008B50020FEF7F6FE28B1FEF720
:10686800CBFE80F00100C0B208BD012008BD0000C9
:1068780008B5FFF7BDFF014B586808BD74E5032054
:10688800FAEE087AB4EEE70AF1EE10FA0FD4F2EE57
:106898000C7AB4EEE70AF1EE10FA08DCDFED047AC0
:1068A800044B20EE270ABDEEC00A83ED000A7047AC
:1068B80000006145A4E5032037B50E4B1B68194459
:1068C8000D4B1B68044602A8194440F8041D00F04B
:1068D800C7FD00F077FD054600F05DFF2844002362
:1068E80000F8013C29462046FFF7C0FE204603B0C9
:1068F80030BD00BFA4E503209CE5032010B50020AF
:10690800FEF7F4FC044668B9FEF7F0FD01280BD148
:106918002046FEF723FE38B9FFF79CFF30B9FEF793
:1069280053FEF9E7012010BD002010BDFFF792FFCC
:106938000020FEF7DBFC003018BF012010BD08B5B1
:10694800FFF7DCFFBDE80840FEF7A8BC08B5FFF775
:10695800F6FFFFF74DFF014B986808BD74E503206B
:1069680008B5FFF7ECFFFFF743FF014B586808BD78
:1069780074E50320024B1A68024B1A60704700BF87
:10698800C8E0032098E5032070474174704708B5B4
:10699800007CFEF773FD20EAE07008BD08B5007CB6
:1069A800FEF744FD20EAE07008BD08B5007CFEF75C
:1069B8004DFD30EA200028BF4FF0FF3008BD08B574
:1069C800007CFEF73BFD30EA200028BF4FF0FF3087
:1069D80008BD007CFEF742BD10B51421044600F046
:1069E800ECF9204610BD70B5457C04460E4625B925
:1069F800007CFEF743FD002805DD3146207CBDE81C
:106A08007040FEF70BBD284670BD000010B5044667
:106A180008461146002262604FF47A72A260054A65
:106A280022600122207462741A46FEF7EFFC2046A9
:106A380010BD00BF50870D00007CFEF717BD000099
:106A480038B50C4D296811F0010411D12846FDF71D
:106A580024FB68B1084A094B09482146FFF7D6FFCD
:106A68002846FDF71FFB074A0749054800F0A0F92B
:106A7800034838BD40E6032044E60320BCE5032074
:106A8800A8E5032080E1032091690D004174704757
:106A9800704708B50021007CFEF710FD30EA2000A1
:106AA80028BF4FF0FF3008BD08B50121007CFEF774
:106AB80005FD30EA200028BF4FF0FF3008BD08B5BB
:106AC800007CFEF7F3FC20EAE07008BD08B5007C06
:106AD800FEF7E4FC20EAE07008BD007CFEF7FEBC8F
:106AE80010B51421044600F068F9204610BD38B5E9
:106AF8000446007C0D46FEF7D9FC002801DC607CCA
:106B080028B12946207CFEF7E1FC20EAE07038BD78
:106B180010B50446002363604FF47A73A360054BF5
:106B2800236001230846217463741146FEF7AEFC06
:106B3800204610BD80870D0010B5142204460021A0
:106B480000F091FD204610BD30B50E4D87B001A86C
:106B5800FFF7F2FF296811F0010410D12846FDF76C
:106B68009CFA60B101AA21460748FFF7D1FF2846E1
:106B7800FDF798FA054A0649034800F019F9024852
:106B880007B030BDC8E60320CCE6032080E103202F
:106B9800996A0D0008B50C4B33B1FFF7D5FF0368B0
:106BA8001B699847002809DC084B63B1FFF748FFC9
:106BB80003681B699847002803DC08BDAFF3008011
:106BC800F2E7AFF3008008BD0000000000000000FD
:106BD80008B5FFF7DFFFFEF759FB014B186008BD4A
:106BE800E4E6032007B5002300931A466FF0770107
:106BF800FEF7C6FC03B05DF804FB000007B5438848
:106C08000A2B08D0502B09D1094B1B683BB103B0A4
:106C18005DF804EB1847FFF7E5FF06E00023009353
:106C28001A466FF07701FEF7ABFC03B05DF804FB82
:106C3800E0E6032010B5FEF721FB044600F01CFD3A
:106C4800074B13B12046AFF3008000210448FEF73C
:106C580003FD00210348BDE81040FEF787BC00BFD4
:106C680000000000056C0D0010B504460F48FFF742
:106C7800B3FC28B1A4F10B03022B01D8002010BDEE
:106C880000F054F8FFF708FA08B1012CF6D9FFF71D
:106C9800D7FEFFF7D1FE18B1A4F10903012BEDD9F6
:106CA800232C8CBF0020012010BD00BF08E7032063
:106CB800232838B504460D460AD8FF2908D0FFF71F
:106CC800D3FF28B129462046BDE83840FEF726BB49
:106CD80038BD38B504460D46FEF728FBFF2810D00E
:106CE800062804D84D2323FA00F0C30709D4204608
:106CF800FFF7BAFF28B129462046BDE83840FEF71D
:106D08001DBB38BD10B5074C2368DB0708D42046E7
:106D1800FDF7C3F920B1FEF7C9FA2046FDF7C2F91D
:106D2800014810BDE8E60320ECE6032038B50B4D1A
:106D3800296811F001040FD12846FDF7AEF958B1C2
:106D480021460748FFF796F92846FDF7ABF9054AAB
:106D58000549034800F02CF8014838BDF0E6032047
:106D6800F4E6032080E1032025600D0070B50C4C8B
:106D78000C4E0D4D00212046FFF71AFC20460B4C07
:106D88003246294600F014F801212046FFF710FC8E
:106D9800324629462046BDE8704000F009B800BFD9
:106DA80008E7032080E10320A9650D0018E7032008
:106DB8000B460146184600F045BBFDF76AB908B511
:106DC800FEF7D2FC244B1A68D0075CBF01221A6078
:106DD800224B1A68D1075CBF01221A60204B1A683F
:106DE800D2075CBF01221A601E4B1A68D0075CBF2D
:106DF80001221A601C4B1A68D1075CBF01221A6075
:106E08001A4B1A68D2075CBF01221A60184B1A681D
:106E1800D0075CBF01221A60164B1A68D1075CBF05
:106E280001221A60144B1A68D2075CBF01221A604B
:106E3800124B1A68D0075CBF01221A60104B1A68FF
:106E4800D1075CBF01221A600E4B1A68D2075CBFDB
:106E580001221A60704700BF54E7032050E703205F
:106E68004CE7032048E7032044E7032040E70320DA
:106E78003CE7032038E7032034E7032030E703200A
:106E88002CE7032028E70320184B1A68D1075CBFBA
:106E980001221A60164B1A68D2075CBF01221A60D9
:106EA800144B1A68D0075CBF01221A60124B1A688B
:106EB800D1075CBF01221A60104B1A68D2075CBF69
:106EC80001221A600E4B1A68D0075CBF01221A60B3
:106ED8000C4B1A68D1075CBF01221A600A4B1A686A
:106EE800D2075CBF01221A60704700BF74E7032015
:106EF80070E703206CE7032068E7032064E70320BA
:106F080060E703205CE7032058E70320184B1A6862
:106F1800D1075CBF01221A60164B1A68D2075CBF02
:106F280001221A60144B1A68D0075CBF01221A604C
:106F3800124B1A68D1075CBF01221A60104B1A68FD
:106F4800D2075CBF01221A600E4B1A68D0075CBFDB
:106F580001221A600C4B1A68D1075CBF01221A6023
:106F68000A4B1A68D2075CBF01221A60704700BF3B
:106F780094E7032090E703208CE7032088E70320A9
:106F880084E7032080E703207CE7032078E70320D9
:106F9800244B1A68D0075CBF01221A60224B1A687A
:106FA800D1075CBF01221A60204B1A68D2075CBF68
:106FB80001221A601E4B1A68D0075CBF01221A60B2
:106FC8001C4B1A68D1075CBF01221A601A4B1A6859
:106FD800D2075CBF01221A60184B1A68D0075CBF41
:106FE80001221A60164B1A68D1075CBF01221A6089
:106FF800144B1A68D2075CBF01221A60124B1A6838
:10700800D0075CBF01221A60104B1A68D1075CBF19
:1070180001221A600E4B1A68D2075CBF01221A605F
:10702800704700BFC4E70320C0E70320BCE7032084
:10703800B8E70320B4E70320B0E70320ACE7032058
:10704800A8E70320A4E70320A0E703209CE7032088
:1070580098E7032081F0004102E000BF83F000437D
:1070680030B54FEA41044FEA430594EA050F08BFDB
:1070780090EA020F1FBF54EA000C55EA020C7FEA9F
:10708800645C7FEA655C00F0E2804FEA5454D4EB1C
:107098005555B8BF6D420CDD2C4480EA020281EAE6
:1070A800030382EA000083EA010180EA020281EA1E
:1070B8000303362D88BF30BD11F0004F4FEA013170
:1070C8004FF4801C4CEA113102D0404261EB41017F
:1070D80013F0004F4FEA03334CEA133302D0524205
:1070E80063EB430394EA050F00F0A780A4F10104C1
:1070F800D5F1200E0DDB02FA0EFC22FA05F28018FB
:1071080041F1000103FA0EF2801843FA05F35941E0
:107118000EE0A5F120050EF1200E012A03FA0EFC5F
:1071280028BF4CF0020C43FA05F3C01851EBE37189
:1071380001F0004507D54FF0000EDCF1000C7EEBA6
:1071480000006EEB0101B1F5801F1BD3B1F5001FE4
:107158000CD349085FEA30004FEA3C0C04F1010403
:107168004FEA445212F5800F80F09A80BCF1004F2C
:1071780008BF5FEA500C50F1000041EB045141EAAE
:10718800050130BD5FEA4C0C404141EB010111F4AF
:10719800801FA4F10104E9D191F0000F04BF01465A
:1071A8000020B1FA81F308BF2033A3F10B03B3F138
:1071B80020020CDA0C3208DD02F1140CC2F10C02C8
:1071C80001FA0CF021FA02F10CE002F11402D8BF26
:1071D800C2F1200C01FA02F120FA0CFCDCBF41EAF2
:1071E8000C019040E41AA2BF01EB0451294330BDC1
:1071F8006FEA04041F3C1CDA0C340EDC04F114049E
:10720800C4F1200220FA04F001FA02F340EA030074
:1072180021FA04F345EA030130BDC4F10C04C4F1BA
:10722800200220FA02F001FA04F340EA030029469A
:1072380030BD21FA04F0294630BD94F0000F83F4E4
:10724800801306BF81F480110134013D4EE77FEAC7
:10725800645C18BF7FEA655C29D094EA050F08BF13
:1072680090EA020F05D054EA000C04BF19461046F4
:1072780030BD91EA030F1EBF0021002030BD5FEA38
:10728800545C05D14000494128BF41F0004130BD60
:1072980014F580043CBF01F5801130BD01F00045B4
:1072A80045F0FE4141F470014FF0000030BD7FEA27
:1072B800645C1ABF194610467FEA655C1CBF0B4622
:1072C800024650EA013406BF52EA033591EA030F39
:1072D80041F4002130BD00BF90F0000F04BF002131
:1072E800704730B54FF4806404F132044FF0000564
:1072F8004FF0000150E700BF90F0000F04BF0021DD
:10730800704730B54FF4806404F1320410F0004542
:1073180048BF40424FF000013EE700BF42004FEA3D
:10732800E2014FEA31014FEA02701FBF12F07F43BA
:1073380093F07F4F81F06051704792F0000F14BFB7
:1073480093F07F4F704730B54FF4607401F00045FB
:1073580021F0004120E700BF50EA010208BF704752
:1073680030B54FF000050AE050EA010208BF704747
:1073780030B511F0004502D5404261EB41014FF4B0
:10738800806404F132045FEA915C3FF4DCAE4FF0B4
:1073980003025FEADC0C18BF03325FEADC0C18BF9B
:1073A800033202EBDC02C2F1200300FA03FC20FAEC
:1073B80002F001FA03FE40EA0E0021FA02F1144439
:1073C800C1E600BF094B70B51C68256C06463DB97F
:1073D8001A20FEF799F91A222064294600F043F989
:1073E800216C3046BDE8704000F002B830E103205F
:1073F80010B50C4641690369826986B001F26C7167
:107408000491016803914168029181680191C16802
:107418000091074903EB43030B44064902EB420280
:107428000A4420460449FEF787F9204606B010BDF5
:10743800BD870D00A8870D00E1870D000A220021F5
:1074480000F060BA10B5054C13462CB10A46014647
:107458000220AFF3008010BD204610BD00000000E0
:1074680038B5074B1C68E36B05461BB92420FEF7AB
:107478004BF9E063E16B2846BDE8384000F002B8FC
:1074880030E103202DE9F0410C46804600F040FD34
:1074980021460746404600F03FFD466906F26C76F5
:1074A800B307044605D1642296FBF2F302FB13638B
:1074B8004BB94FF4C87596FBF5F305FB1365B5FAA0
:1074C80085F35B0900E001235F4A302505FB0325AE
:1074D80000F052FB00F052FB5C4B1B68F3B17B6879
:1074E8009E4205D13968D8F80030FA6941B90AE0F6
:1074F800304600F099FA0028F4D14FF0FF330DE040
:10750800934208DB01E0934207DABA6B9342ACBFBF
:107518000023012302E0002300E001232362236A01
:10752800012B0CBFF96B396A4FF461633C2091FB66
:10753800F3F603FB1613616893FBF0F200FB1230BD
:107548002368891AA26861601B1A921B3B2B23606F
:10755800A26003DD013161603C3B04E0002B03DAEB
:10756800013961603C33236063683B2B03DD0132E2
:10757800A2603C3B04E0002B03DA013AA2603C33F2
:107588006360A368172B22DDE2690132E261A26918
:107598000132062AC8BF0022A261E268183B013204
:1075A800A3602369E26055F823108A4246DD01335F
:1075B8000C2B0CBF63692361A2EB0102E26001BFDF
:1075C800013300222261636108BFE26136E0002BCB
:1075D80034DAE269013AE261A269013A48BF062257
:1075E800A261E2681833013AE260A36032BB236902
:1075F800013B01D423611DE00B23236163695A1EFB
:1076080012F0030F626103F26B7305D1642193FBDF
:10761800F1F201FB12324AB94FF4C87193FBF1F24F
:1076280001FB1233B3FA83F35B0900E0012303F58E
:10763800B673E361236955F82330E36000F09DFADF
:107648002046BDE8F08100BF64890D00E4E703200F
:1076580010B5431E0A44914204D011F8014B03F8B7
:10766800014FF8E710BD02440346934202D003F8E5
:10767800011BFAE77047000038B5124B1C68A36B72
:107688000546D3B91820FEF73FF843F20E33A0633E
:1076980003804AF6CD33438041F2342383804EF28F
:1076A8006D63C3804DF6EC630381052343810B238F
:1076B800838101220023C0E90423A36B00221D61FA
:1076C8005A6138BD30E10320194B10B51C68A36B13
:1076D800D3B91820FEF718F843F20E33A0630380DD
:1076E8004AF6CD33438041F2342383804EF26D63F2
:1076F800C3804DF6EC630381052343810B2383810B
:1077080001220023C0E90423A16B0A4C0B694869D4
:10771800094A5C4302FB0040A3FB022301320344F5
:1077280043F10003C1E9042323F0004010BD00BF6A
:1077380030E103202DF451582D7F954C10F8012B82
:1077480011F8013B012A28BF9A42F7D0D01A704796
:10775800034611F8012B03F8012B002AF9D17047D1
:10776800024B0146186800F003B800BF30E103205F
:1077780070B5064608460C4600F00DF8451C29462B
:107788003046FDF7F9FF064618B12A462146FFF7AD
:107798005FFF304670BD034613F8012B002AFBD16A
:1077A800181A0138704730B582B1451E013915F8ED
:1077B800013F11F8014FA34206D1EC431444E042C3
:1077C80001D0002BF3D11C46181B30BD104630BD2C
:1077D80010B5034642B111F8014B03F8014B013AC9
:1077E800002CF7D11A4400E010BD934202D003F8F0
:1077F800014BFAE710BD00002DE9F04780464048EC
:10780800D0F800900F463D4615F8014B09EB0400EF
:10781800407800F0080000F0FF0608B12F46F2E7B4
:107828002D2C03D1BD1C7C78012603E02B2C04BF32
:107838007C78BD1C13B1102B0AD15BE0302C57D1DA
:10784800287800F0DF0058284DD16C7810230235D5
:10785800002E14BF4FF0004C6FF0004C0027BCFB0B
:10786800F3FA384603FB1ACC09EB040E9EF801E044
:107878001EF0040F01D0303C0BE01EF0030E1BD0AD
:10788800BEF1010F0CBF4FF0370E4FF0570ECEEB85
:107898000404A34210DDB7F1FF3F0AD0504506D8D3
:1078A80001D1644503DC03FB0040012701E04FF0F0
:1078B800FF3715F8014BD7E77B1C0CD1002E4FF092
:1078C800220314BF4FF000406FF00040C8F80030AA
:1078D8002AB9BDE8F08706B1404272B107B1691E06
:1078E8001160BDE8F0873024002BB1D10823AFE741
:1078F8000A23ADE7302CA3D0AAE7BDE8F08700BF84
:10790800CCE0032013460A46014602480068FFF708
:1079180073BF00BF30E103202DE9F04780463C48A3
:10792800D0F800900E46354615F8014B09EB0400D7
:10793800407800F0080000F0FF0708B12E46F2E793
:107948002D2C03D1B51C7478012703E02B2C04BF20
:107958007478B51C13B1102B0AD153E0302C4FD1D9
:10796800287800F0DF00582845D16C7810230235BC
:107978004FF0FF3C0026BCFBF3FC03FB0CFA6FEA5C
:107988000A0A304609EB040E9EF801E01EF0040FC7
:1079980001D0303C0BE01EF0030E1AD0BEF1010FEF
:1079A8000CBF4FF0370E4FF0570ECEEB0404A34236
:1079B8000FDD002E08DB604506D801D1544503DCF5
:1079C80003FB0040012601E04FF0FF3615F8014B9C
:1079D800D8E7002E07DA2223C8F800304FF0FF302E
:1079E8002AB9BDE8F08707B1404272B106B1691EF5
:1079F8001160BDE8F0873024002BB9D10823B7E720
:107A08000A23B5E7302CABD0B2E7BDE8F08700BF5A
:107A1800CCE0032013460A46014602480068FFF7F7
:107A28007BBF00BF30E103202DE9F74F044600F08B
:107A38006FFA40F2B1739C4240F396806FF4F6639C
:107A4800E318A4F2B2729B1040F26D1505FB0235E3
:107A5800A4F26D726FF0630392FBF3F36FF4C862E4
:107A68002B44A5184FF4C87295FBF2F51D44642306
:107A780094FBF2F794FBF3F602FB174703FB164659
:107A880000F13803B7FA87FE019304F0030344605A
:107A98004FEA5E1E014600934FF0070C0B7A4A2B03
:107AA8000ED14B69009AEC1802B906B927B93B2BDD
:107AB800D4BF0023012300E000232344013B3FE01F
:107AC800442B02D14B692B443AE0009B2BB9002E82
:107AD8000CBFF0464FF0010800E0F046244BCC689C
:107AE800302202FB0838A8F1040AA9460123A34260
:107AF80004DA5AF804BF0133D944F8E709F104035A
:107B080093FBFCFBCBEBCB0A012CCAEB030A4B69BA
:107B1800B8BF012404F18044B3EB0A0A0B6904F1ED
:107B2800FF3403F1FF3348BF0AF1070AC3EBC3036D
:107B380058F824405344A34201DB073BFBE74B447E
:107B48008C690C4A02FB03430C6A234441F81C3F2E
:107B5800019B9942A2D1C369826B9342ACBF0023B7
:107B680001230360012000E0002003B0BDE8F08F8E
:107B780064890D008051010070477047014B1868F7
:107B880000F002B830E103202DE9F04F8DB0074630
:107B980000F0BEF9B049B14E0446384600F0B0F9DD
:107BA800054660B9AE4BAF4A1860AF4B1860AF4B93
:107BB80030681A605A60FDF7AFFD356048E13168FA
:107BC80079B93068FDF7A8FD2846FFF7E4FD411CA8
:107BD8003846FDF7D1FD306048B12946FFF7B8FDBA
:107BE80005E0FFF7ABFD002800F03281E9E72B78CC
:107BF8009F4AA0493A2B08BF01350AAE33462846AA
:107C0800FDF7A2FD002840F323810A9BEF18EB5CE7
:107C18002D2B03D101374FF0FF3503E02B2B08BF85
:107C2800013701250DF1200A0DF11E0B4FF0000858
:107C38000396CDF808A00196CDF800B0334607AA00
:107C48008D49ADF81E803846ADF82080FDF77CFDE3
:107C5800404540F3FD80BDF81E20BDF82030DFF818
:107C680024923C2101FB0233BDF81C204FF46161D2
:107C780001FB02335D4325627C4D7D4B2B600A9BE3
:107C88007C491F444A4633463846FDF75DFD40456A
:107C980008DC2B686B60724B226A1A60724BC3F85F
:107CA8000080D5E00A9BC5F80490FD18FB5C2D2BDD
:107CB80003D101354FF0FF3703E02B2B08BF013507
:107CC80001270023ADF81C30ADF81E30ADF8203088
:107CD8000A930396CDF808A00196CDF800B0334674
:107CE80007AA65492846FDF72FFD002804DC236A0A
:107CF800A3F56163E3630EE0BDF81E20BDF82030F4
:107D08003C2101FB0233BDF81C204FF4616101FBEB
:107D180002335F43E7630A9B27461D444FF000097F
:107D28002B782C2B08BF013595F80080B8F14D0F42
:107D380026D10DF12603029309AB00930396019611
:107D480033460DF122024D492846FDF7FDFC032874
:107D58007ED1BDF822104B1E0B2B79D8BDF82420FC
:107D6800531E042B74D8BDF82630062B70D887F81C
:107D78000880F9603A617B610A9B05EB03082AE0F9
:107D8800B8F14A0F06BF0135434644230A220BA91E
:107D980028460593FFF73EFEDDF82C80ADF8260057
:107DA8004545059B14D14D23B9F1000F07D1237226
:107DB8000323E36002232361C4F814900BE084F8E2
:107DC80024300B23A3620123E3620023236302E030
:107DD80080B23B7278610223ADF81C300023ADF805
:107DE8001E30ADF820300A9398F800302F2B0BD1B5
:107DF8000396CDF808A00196CDF800B0334607AA3F
:107E08001F494046FDF7A0FCBDF81E20BDF82030F4
:107E18003C2101FB0233BDF81C204FF4616101FBDA
:107E28000233BB610A9D09F10109B9F1020F45440A
:107E380007F11C077FF474AF6068FFF7F5FD084B86
:107E4800226A1A60E36B9B1A074A18BF0123136062
:107E58000DB0BDE8F08F00BFC4890D00E0E7032036
:107E6800E8E70320C7890D00E4E7032034E1032095
:107E7800D3E70320CB890D00EE890D00DA890D00C8
:107E8800ED890D00C8E703202DE9F84F07468B461A
:107E9800904600F0D9F8194B1D689A463DB15C46EA
:107EA800234613F8012B42B13D2A1C46F8D1384627
:107EB80000F0CBF80020BDE8F88FCBEB0404A9460E
:107EC80059F8040B0028F2D022465946FFF76BFCFC
:107ED80088B959F8043C1E191B5D3D2B0BD1DAF803
:107EE8000030ED1AAD103846C8F8005000F0ADF873
:107EF800701CBDE8F88F4D46E1E700BF7CE1032028
:107F080007B501AAFFF7C0FF03B05DF804FB000046
:107F1800004870473CE103200268474BF0B592FBEC
:107F2800F3F403FB1422002ABCBF02F5A83202F5C1
:107F3800C0724FF4616004F52F2492FBF0F300FB4C
:107F480013224FF03C00ACBF04F66C2404F66B24FB
:107F58008B6092FBF0F300FB13224B600A6007234F
:107F6800E21C92FBF3F3C3EBC303D31A8B61334BCD
:107F7800334D94FBF5F503FB054448F6AC62B4FBBE
:107F8800F2F2224440F2B457B4FBF7F3D21A2D4868
:107F9800B4FBF0F048F69466131AB3FBF6F63444D3
:107FA80040F26D12B3FBF2F0B3FBF7F3E31A02FBF6
:107FB8001033992403EB83020232B2FBF4F20A2A4B
:107FC80004FB02F404F102064FF00504B6FBF4F4D6
:107FD80034BF02266FF0090616444FF4C87202FB3C
:107FE80005055F1C012E98BF0135B3F5997FA7EBF6
:107FF800040702D3A3F5997214E0820705D164241B
:10800800B0FBF4F204FB12024AB94FF4C872B0FB99
:10801800F2F402FB1400B0FA80F2520900E00122E7
:108028003B331A44A5F26C750023CA614D610E6199
:10803800CF600B620846F0BD805101004FC5FDFFBF
:10804800B13A0200B03A0200704770471D400D0077
:1080580059400D0085400D0089400D0000000000CA
:1080680053746172747570205375636365737366B6
:10807800756C000000000000000000000000000017
:1080880000000000000000000000000000000000E8
:1080980000000000000000000000000000000000D8
:1080A800257320533A25322E306625252C20513A47
:1080B80025322E30662525200025342E31662025D0
:1080C8002500256920746970730025342E316620D7
:1080D800430041542B4346554E3D31360D0A007B33
:1080E80022536F696C6D6F69737475726531223ACA
:1080F80025342E31662C2022536F696C6D6F69739D
:108108007475726532223A25342E31662C2022533A
:108118006F696C6D6F69737475726533223A2534B3
:108128002E31662C2022536F696C6D6F69737475DC
:10813800726534223A25342E31662C2022536F6919
:108148006C6D6F69737475726535223A25342E31FA
:10815800662C2022536F696C6D6F69737475726534
:1081680036223A25342E31662C20225072656369F6
:108178007069746174696F6E223A2025692C202217
:10818800536F696C74656D70223A25342E31662CF4
:10819800202248756D6964697479223A25342E3134
:1081A800662C202254656D70657261747572652243
:1081B8003A25342E31662C202250616E656C687524
:1081C8006D6964697479223A25342E31662C20222F
:1081D80050616E656C74656D7065726174757265F9
:1081E800223A25342E31662C20224261747465723D
:1081F80079223A25342E31662C2022526164696F27
:1082080074656368223A2025692C20225369676EB9
:10821800616C223A2025342E31662C20225175615A
:108228006C697479223A2025342E31662C2022522A
:108238006573657473223A25692C2022416C657236
:108248007473223A25697D0043656C6C756C6172A4
:108258005F4C69506F5F486F6F6B004E6F204461D1
:10826800746100556269646F747320486F6F6B00A6
:10827800526573706F6E73652052656365697665C4
:1082880064005374617465005365742056657262A6
:108298006F7365204D6F6465003000436C656172D3
:1082A800656420566572626F7365204D6F64650062
:1082B80054696D65207A6F6E65206F6666736574A4
:1082C8002025690054696D65004C6F7720506F77E1
:1082D8006572004E6F726D616C204F7065726174CB
:1082E800696F6E730046726F6D20257320746F205E
:1082F8002573005374617465205472616E736974D8
:10830800696F6E004572726F722074616B696E6777
:10831800204D6561737572656D656E747300737059
:1083280061726B2F6465766963652F736573736912
:108338006F6E2F656E6400476F696E6720746F20DB
:10834800536C656570004C6F772042617474657278
:1083580079202D20536C656570696E6700457272CF
:108368006F72205374617465202D20526573657493
:10837800004572726F72205374617465202D204C11
:108388006F73742053657373696F6E004572726FF3
:1083980072205374617465202D2046756C6C204DD5
:1083A8006F64656D205265736574005369676E610B
:1083B8006C005265736574436F756E740052656C1A
:1083C800656173650073746174654F66436867001F
:1083D8006C6F77506F7765724D6F64650074656D6B
:1083E80070657261747572650068756D6964697429
:1083F8007900536F696C54656D7000536F696C4DEB
:108408006F6973747572653100536F696C4D6F696C
:1084180073747572653200536F696C4D6F6973744C
:108428007572653300536F696C4D6F69737475723B
:10843800653400536F696C4D6F6973747572653577
:1084480000536F696C4D6F69737475726536004DB2
:108458006561737572652D4E6F77004C6F77506F3D
:108468007765724D6F646500566572626F73652D2E
:108478004D6F64650053657454696D655A6F6E6518
:10848800004661696C656420746F20636F6E6E6569
:108498006374005374617274757000556E6B6E6FFF
:1084A800776E004E6F6E6500576946690047534DF9
:1084B80000554D54530043444D41004C5445004928
:1084C80045454538303231353400312E30340000DE
:1084D80000000000000000001D580D0013580D009A
:1084E80009580D00BF570D00FD570D00F1570D003D
:1084F800E5570D00DD570D00D3570D00C9570D0086
:1085080065630D000000000000000000DD580D004C
:108518006F590D00DF580D00B1590D00E5580D00D9
:108528007D590D0011590D003D590D00FCFFFFFF4D
:108538000000000067590D00000000000000000066
:10854800FD590D00035A0D002D5A0D00115A0D004A
:10855800FF590D00000000000000000007600D003A
:10856800FD5F0D00F35F0D00E95F0D00DD5F0D009D
:10857800D15F0D00C55F0D00BD5F0D00B35F0D003D
:10858800A95F0D0065630D000000000000000000F9
:1085980025600D006F600D0047600D0027600D001D
:1085A8004F600D0057600D005F600D0067600D00A3
:1085B8000000000000000000B9600D00A9600D0077
:1085C800AB600D0066006C6E00666E00636F6465DC
:1085D8000064657461696C00253031307520005D78
:1085E80020002564002C200028293A2000205B0068
:1085F800636F6465203D200064657461696C732055
:108608003D2000626175640053657269616C0053B6
:10861800657269616C3100747970650070617261AE
:108628006D00636D6400696400686E640073747241
:108638006D0066696C74006C766C006164644861F6
:108648006E646C65720072656D6F766548616E6404
:108658006C657200656E756D48616E646C657273E9
:10866800004A534F4E53747265616D4C6F67486191
:108678006E646C657200617070006E6F6E65007478
:108688007261636500696E666F007761726E00657E
:1086980072726F720070616E696300616C6C0000C9
:1086A8000000000000000000FB610D00F1610D00FA
:1086B800E7610D00DD610D00D1610D00C5610D00A0
:1086C800B9610D00B1610D00A7610D009D610D003C
:1086D80065630D000000000000000000FD620D0051
:1086E80007630D0011630D001B630D0025630D006A
:1086F80031630D003D630D0049630D0051630D00AA
:108708005B630D0065630D000000000000000000C1
:10871800A9650D00AB650D00252B3033643A253073
:1087280032750025592D256D2D25645425483A2587
:108738004D3A2553257A0061736374696D650000AD
:10874800000000000000000091690D00E1690D00C3
:10875800EF690D0045640D00A5690D00C7690D009E
:10876800B3690D00DB690D0093690D0097690D0071
:108778000000000000000000996A0D00E96A0D0081
:10878800F76A0D0045640D00D56A0D009B6A0D005F
:10879800B16A0D00E36A0D00C76A0D00956A0D0005
:1087A80053756E4D6F6E547565576564546875469C
:1087B80072695361744A616E4665624D61724170B7
:1087C800724D61794A756E4A756C4175675365706B
:1087D8004F63744E6F76446563252E337320252EC0
:1087E800337325336420252E32643A252E32643AB9
:1087F800252E32642025640A000020202020202015
:108808002020202828282828202020202020202038
:108818002020202020202020202088101010101038
:108828001010101010101010101004040404040488
:10883800040404041010101010101041414141416B
:1088480041010101010101010101010101010101D0
:108858000101010101101010101010424242424261
:1088680042020202020202020202020202020202A0
:108878000202020202101010102000000000000086
:1088880000000000000000000000000000000000E0
:1088980000000000000000000000000000000000D0
:1088A80000000000000000000000000000000000C0
:1088B80000000000000000000000000000000000B0
:1088C80000000000000000000000000000000000A0
:1088D8000000000000000000000000000000000090
:1088E8000000000000000000000000000000000080
:1088F8000000000000000000000000000000000070
:10890800000000000000000000000000000000005F
:10891800000000000000000000000000000000004F
:10892800000000000000000000000000000000003F
:10893800000000000000000000000000000000002F
:10894800000000000000000000000000000000001F
:108958000000000000000000000000001F000000F0
:108968001C0000001F0000001E0000001F00000087
:108978001E0000001F0000001F0000001E00000075
:108988001F0000001E0000001F0000001F00000064
:108998001D0000001F0000001E0000001F00000056
:1089A8001E0000001F0000001F0000001E00000045
:1089B8001F0000001E0000001F000000545A00475E
:1089C8004D54002531305B5E302D392C2B2D5D2523
:1089D8006E004D256875256E2E256875256E2E2529
:1089E8006875256E002F256875256E3A25687525EA
:1089F8006E3A256875256E00A1510D009D580D0031
:108A080011600D008D610D00B1620D0031640D0023
:108A18008D650D00E1670D007D690D00756D0D0018
:108A2800CD6D0D00916E0D00156F0D00996F0D0045
:088A3800000000000000000036
:108A4000496E697469616C697A650000000045725D
:108A5000726F7200000000000000000049646C6545
:108A6000000000000000000000004D656173757299
:108A7000696E6700000000005265706F7274696E65
:108A8000670000000000526573706F6E73652057B9
:108A900061697400536C656570696E670000000061
:108AA00000004C6F77204261747465727900000099
:108AB000D2840D000100000000004040A3840D009E
:108AC000AB840D00B0840D00B5840D00B9840D0099
:108AD000BE840D00C3840D00C7840D003F870D00C8
:108AE00001880D000000000004890D0024890D009C
:108AF00044890D000000000000000000000000009C
:108B000000000000D8800D00000000000000000000
:108B10000000000000000000000000000000000055
:108B20000000000000000000000000000000000045
:108B30000000000000000000000000000000000035
:108B400000000000D0E00320C7890D00C7890D0098
:108B500001000000000000004A00000000000000CA
:108B60000000000000000000000000000000000005
:108B7000000000004A0000000000000000000000AB
:108B800000000000000000000000000000000000E5
:048B9000ECE70320EB
:108B9400FFFFFFFF00000102030405060708090A9E
:108BA4000B0C0D0E0F101112131415161718191A99
:088BB4001B1C1D1E1F202800E0
:048BBC0078563412A1
:04000003D0004018D1
:00000001FF
