:020000040808EA
:1000000000000808404F0808000006000A0005012B
:0800100004024E040000000090
:100018004444080809480A4908B5884205D0094AED
:10002800824202D0121A03F00DFD0748074A002148
:10003800121A03F012FD064808BD00BF0004002094
:10004800C44D08085405002054050020380D002030
:10005800380D002070B502F0A5FC074B074C1E4672
:10006800E41AA4080025A54204D056F8253098477C
:100078000135F8E770BD00BF8C4D0808C04D080871
:1000880000F0D2BE08B500F0A1FCBDE8084002F0BF
:100098004BBC01F0F1BA01F0F7BA0078B0FA80F081
:1000A80040097047012303707047000008B50449F0
:1000B80002F079F918B1034B03221A70012008BD28
:1000C800FE470808C105002001F0C0B801F0C6B815
:1000D80037B505469DF8184023438DF800303C237A
:1000E80001F0C0FD284603B030BD000030B58FB028
:1000F800134904A801F06CFB04A801F0C4FB114DDE
:10010800114C286004A801F01DFC206004A801F02F
:1001180001FC0E4B2D68186003F000F8CDE90201D0
:10012800206802F0FBFFCDE90001094B094A53F8AA
:1001380025304021084801F0C7FA0FB030BD00BF94
:10014800FC060020A4050020F4050020400600203D
:100158007C040020984408084C06002007B5642059
:1001680002F06FF803F0E8F8684B186002F0D6FF69
:10017800674ACDE900011021664801F0A5FA64201C
:1001880002F05FF803F0D8F8634B186002F0C6FF7E
:100198005F4ACDE900011021604801F095FA64201A
:1001A80002F04FF803F0C8F85D4B186002F0B6FF94
:1001B800574ACDE9000110215A4801F085FA642018
:1001C80002F03FF803F0B8F8574B186002F0A6FFAA
:1001D8004F4ACDE900011021544801F075FA642016
:1001E80002F02FF803F0A8F8514B186002F096FFC0
:1001F800474ACDE9000110214E4801F065FA642014
:1002080002F01FF803F098F84B4B186002F086FFD5
:100218003F4ACDE900011021484801F055FA4FF452
:100228007A7002F00EF8464A034610211060454ADB
:10023800454801F049FA642002F003F803F07CF81D
:10024800424B186002F06AFF414ACDE900011021D3
:10025800404801F039FA642001F0F3FF03F06CF82C
:100268003D4B186002F05AFF294ACDE900011021E0
:100278003A4801F029FA642001F0E3FF03F05CF842
:10028800374B186002F04AFF314ACDE900011021CE
:10029800344801F019FA642001F0D3FF03F04CF858
:1002A800314B186002F03AFF194ACDE900011021DC
:1002B8002E4801F009FA642001F0C3FF03F03CF86E
:1002C8002B4B186002F02AFF214ACDE900011021CA
:1002D800284801F0F9F9284B4FF081421A60274B62
:1002E8000022CDE900231021094A254801F0ECF944
:1002F800244B00221146586801F086F908B1FFF72F
:10030800F5FE012003B05DF804FB00BF28060020BD
:10031800B1440808700500202C0600209005002034
:1003280010060020B105002034060020C905002071
:1003380038060020F80500203C060020140600209E
:10034800AC050020BA440808E0050020DC050020C0
:10035800C2440808E806002080050020BC060020EA
:10036800E006002059050020C4050020A40600204E
:10037800A805002094060020B806002000001040C0
:10038800CC060020FC0600202DE9D0431A480023A3
:100398001A461946406801F03FF940F2E73601F085
:1003A800D3F84FF496740027002000F06FFF8046C2
:1003B8004FF00009002000F069FFB0EB080061EB86
:1003C80009018F4208BF864205D301F0CDF810B964
:1003D80001F0B2F8EEE701F0C7F818B1BDE8D04374
:1003E80001F0C2B800F01AFF044B186001F0A4F83D
:1003F800013CF3D0D8E700BFFC060020140C002015
:1004080008B501F0A9F8064800231A4619464068BD
:1004180001F00AF94FF47A7001F06EF9012008BD75
:10042800FC06002008B500F0F9FE044B1B68C01A52
:10043800B0F57A7F34BF0020012008BDE406002013
:1004480008B5FFF7EFFF18B1BDE80840FFF7EABFAE
:1004580001F072F8F5E7000037B501F07DF800F01B
:10046800DDFE43F69725044601F07EF840B100F022
:10047800D5FE001BA84203D8642001F03DF9F3E73C
:100488000021094B47F23052084600F097FE4FF41E
:100498007A7001F031F9054B0A221B680121684680
:1004A80001F0B4FF03B030BDCA440808300600208C
:1004B80038B5046805467CB16368013B63605BB985
:1004C800236820469B689847A368013BA3601BB933
:1004D80023682046DB689847284638BD10B5464B48
:1004E800ADF5247D1B6800242193444B1B682093A1
:1004F800434B186802F012FECDE91E01414B186803
:1005080002F00CFECDE91C013F4B1B681A933F4BD0
:10051800186802F003FECDE918013D4B186802F097
:10052800FDFDCDE916013B4B186802F0F7FDCDE95A
:100538001401394B186802F0F1FDCDE91201374B6F
:10054800186802F0EBFDCDE91001354B186802F090
:10055800E5FDCDE90E01334B1B680C93324B18684F
:1005680002F0DCFDCDE90A01304B186802F0D6FD37
:10057800CDE908012E4B186802F0D0FDCDE906013F
:100588002C4B186802F0CAFDCDE904012A4B186803
:1005980002F0C4FDCDE90201284B186802F0BEFD47
:1005A800274ACDE900014FF4007124A801F08CF826
:1005B800244B24AA24491B7822A88DF80040FFF771
:1005C80087FD23A8FFF774FF02F032F81F4B18705D
:1005D80002F024F81E4B187002F034F81D4B01226B
:1005E80018701D4B1A7000F019FE1C4B18601C4B3C
:1005F8001C700DF5247D10BDF005002008060020B4
:1006080040060020F4050020A4050020B8060020BC
:10061800A8050020C4050020E00600208005002071
:10062800DC050020AC0500203C0600203806002030
:1006380034060020100600202C0600202806002082
:10064800D74408088405002040460808B40600205E
:100658000C060020C8050020740400206C0500204A
:1006680044060020F0B585B0084602AF0E4603F0F8
:100678008CFA00F1080323F007036D46ADEB030D78
:1006880002AC421C3146204603F09CFA9DF80860F3
:100698004EB900F069FF00283BD0204B204A1B7858
:1006A8008DF800602EE0204603F0C2F8C838012813
:1006B8001FD800F059FF60B1184B00221B7838464C
:1006C8008DF800201749184AFFF702FD381DFFF77B
:1006D800EFFE00F0A3FD154B186002F0F1F901F0F0
:1006E80096FFC1B20520FFF7F1FC114B00221A70EA
:1006F8000FE000F039FF60B1084B00221B788DF83D
:100708000020224638460B49FFF7E2FC381DFFF768
:10071800CFFEAD460C37BD46F0BD00BF84050020B6
:10072800534608087A46080868460808E406002080
:10073800740400205B46080830B5224985B0054698
:1007480001F031FE0446C0B11F4B01241C7002F0B9
:10075800B7F90420FFF7B8FC1C4D40F008002870DA
:1007680002F0AEF929780420FFF7B0FC184B0022FC
:100778001B788DF80020174A1AE01749284601F01F
:1007880012FEE8B1104B114D1C7002F099F90420CB
:10079800FFF79AFC20F00800287002F091F92978F8
:1007A8000420FFF793FC0A4B0C4A1B788DF8004095
:1007B8000B4902A8FFF78CFC03A8FFF779FE01207C
:1007C80005B030BDFE470808B0050020DC06002053
:1007D80084050020804608089146080893460808C2
:1007E800A346080870B5CCB00A2205A9006803F032
:1007F80083FAC5B205F10C03DBB2182B3DD844B21D
:10080800204602F099FD01F0A3FE02F059F92946AD
:100818000320FFF75BFC01F0FAFE194E194D234641
:100828003060194A4FF4807100240CA800F04CFF86
:100838002B780CAA154908A88DF80040FFF748FC4A
:1008480009A8FFF735FE4FF47A7000F055FF3168BC
:1008580008A801F099FE089B0C490393039A2B788A
:1008680006A88DF80040FFF733FC07A8FFF720FE25
:1008780008A801F024FD012000E000204CB070BD64
:100888008C05002084050020A8460808BC460808F6
:100898007FB52649054601F086FD28B92449284632
:1008A80001F081FD00283FD002F00AF90420FFF78B
:1008B8000BFC204C1D492070284601F074FD0646AB
:1008C800A0B11D4B00221B781C498DF8002002A8FE
:1008D8001B4AFFF7FDFB03A8FFF7EAFD2378012277
:1008E80043F001032370174B1A7016E0104928468D
:1008F80001F059FD88B1104B134A1B780F4902A823
:100908008DF80060FFF7E4FB03A8FFF7D1FD23781B
:1009180003F07E0323700B4B1E7002F0D1F8042005
:100928002178FFF7D3FB012004B070BDFE4708080B
:1009380091460808DC06002084050020A346080824
:10094800C1460808F8060020CB46080830B5184DFF
:1009580018492A780E2303FB0212174C8FB020780F
:10096800009203FB0013154A282104A800F0ACFEEE
:100978002B78237000F0F8FD90B1FFF761FD104B64
:1009880000221B780F498DF8002002A804AAFFF75F
:100998009FFB03A8FFF78CFD00F040FC0A4B186092
:1009A80001F022FF04A901F0F2FB0FB030BD00BF37
:1009B800C105002000040020A0050020DD4608082D
:1009C80084050020EB460808E4060020F0B58F4CAB
:1009D80089B02378013B062B00F20082DFE813F090
:1009E80083010700380064008400B7004801884B81
:1009F8001B782BB1874B1B78022B01D0FFF7A6FF82
:100A0800854B1B784BB100F009FC844B1B68C01A5E
:100A1800834B1B68984200F2DB8101F009FE052335
:100A280090FBF3F303EB8303984206D101F000FE39
:100A38007C4B1B78984240F0CE817B4B19687B4BEE
:100A4800186802F075FE002800F0C881072329E025
:100A58006F4B1A781D462AB16E4B1B78032B01D0B9
:100A6800FFF774FFFFF77AFB0646D0B9012323701E
:100A78002B78002B00F0B281FFF7E2FC00F074FD48
:100A880058B16B4B06A81B786A4A8DF800606A4912
:100A9800FFF71EFB07A8FFF70BFD00F0BFFB674B36
:100AA80036E00423237099E1594B1B782BB1594B3D
:100AB8001B78042B01D0FFF749FF00F055FD0028F3
:100AC80043D001F0ABFD0C2802D1002000F06CFDF2
:100AD800514B1B7813B15A4B1B781BB1FFF7FEFC27
:100AE8000523DFE70223DDE7494B1B782BB1494B90
:100AF8001B78052B01D0FFF729FF524B1B784BB908
:100B080002232370504A464B1A6000F087FB434B80
:100B1800186063E100F082FB4C4B1B68C01A4AF670
:100B2800C873984240F25A8100F078FB484B002283
:100B380018603F4B06A81B7846498DF80020464AA6
:100B4800FFF7C6FA07A8FFF7B3FC0123AAE7304B63
:100B58001A781D462AB12F4B1B78062B01D0FFF7B8
:100B6800F5FE3E4B1E781F465EBB00F0FDFCC8B18B
:100B78002B788BB1FFF764FC2D4B394A1B782E4933
:100B880006A88DF80060FFF7A3FA07A8FFF790FC06
:100B980000F044FB294B18604FF47A7000F0ACFD6C
:100BA800FFF72EFC01F08CFF2E4B02201978FFF77F
:100BB8008DFA2D4B00210720197001F054FF0123F5
:100BC8003B7001F024FD294B01251A680623ADF876
:100BD800163008AB03F80B5D02924FF4967290FB47
:100BE800F2F101FB1200101A9042A8BF10460095BE
:100BF80001902A460DF1160106A801F037FC0223E0
:100C080023700F4B1D70FFF7BFFBE7E0C105002005
:100C1800B0050020A0050020F806002048060020A6
:100C28008C060020B406002078040020B8060020B6
:100C380084050020FC4608087A460808E4060020D7
:100C48004406002074040020905F01006C05002019
:100C58009006002016470808D644080858050020C2
:100C68002F47080808060020240600203006002028
:100C78005B4B1A781C462AB15A4B1B78072B01D0BC
:100C8800FFF764FE00F070FCD0B1237893B1FFF752
:100C9800D7FB554B00221B7854498DF8002006A835
:100CA800534AFFF715FA07A8FFF702FC00F0B6FA57
:100CB800504B18604FF47A7000F01EFDFFF7A0FB50
:100CC8004D4B00210720197001F0CDFE01F0B0FC5A
:100CD8004A4BC0F13C003C2242431B68012106A854
:100CE80001F094FB7AE03E4B1B782BB13D4B1B780F
:100CF800012B01D0FFF72AFE00F090FA404B1B6849
:100D080003F5EA433033984268D93E4B1B68032BFE
:100D180016DC00F029FC60B1334B00221B7806A8D2
:100D28008DF800203149384AFFF7D2F907A8FFF7B4
:100D3800BFFB4FF4FA6000F0DFFC01F063FB4DE00D
:100D480001F065FC044601F0BBFE0520FFF7BCF985
:100D5800201AB0F5E15F1EDD00F006FC60B1224B01
:100D680000221B7806A88DF800202049274AFFF7A3
:100D7800AFF907A8FFF79CFB4FF4FA6000F0BCFC42
:100D880001F09EFE00210220FFF7A0F901210420B6
:100D980001F069FE22E000F0E7FB60B1124B00228F
:100DA8001B7806A88DF800201049194AFFF790F91A
:100DB80007A8FFF77DFB4FF4FA6000F09DFC01F0F7
:100DC8007FFE00210220FFF781F9FFF745FB05E0D0
:100DD8000623237021E6032323702EE609B0F0BD15
:100DE800B0050020A0050020840500207A460808E8
:100DF8003E470808E40600202406002030060020AC
:100E0800900600200806002055470808694708088A
:100E1800834708080023042200F07EBB02460148ED
:100E280000F000BE011A08082DE9F041B8B008AA80
:100E380016469A4B03F1100514461868596808338A
:100E480003C4AB422246F7D119889B782D22A370A0
:100E580021800DF133000021914F02F0FEFD0225A3
:100E6800012107203D7001F0EDFD0021052001F072
:100E7800E9FD0121062001F0E5FD0021112001F026
:100E8800E1FD0121042001F0DDFD04A8002400F0AB
:100E980073FB00237D2218A904A801F096FA2346C3
:100EA800224680490194009418A800F075FB7E49F9
:100EB8007E48FFF7AFFF23462A467D497D4800F06C
:100EC8002BFB7D492346042209687C4800F024FB5B
:100ED8007B497C48FFF79EFF234601227A497B48DD
:100EE80000F01AFB7A497B48FFF794FF7A497B4860
:100EF800FFF790FF7A497B48FFF78CFF7A497B48D8
:100F0800FFF788FF7A497B48FFF784FF7A497B48D7
:100F1800FFF780FF7A497B48FFF77CFF7A497B48D7
:100F2800FFF778FF7A497B48FFF774FF7A497B48D7
:100F3800FFF774FF7A497B48FFF770FF7A497B48CF
:100F4800FFF76CFF7A497B48FFF768FF01F0B8FDAF
:100F58002046FFF7B9F8012819D101F0B1FD0220A8
:100F6800FFF7B2F8524C00222060114602A8029204
:100F780000F044F9029B142B1ED12368013323602F
:100F880001F09EFD21780220FFF7A0F814E001F09F
:100F980097FD0125042202A92046029500F066F972
:100FA80001F08EFD2846042202A90135029400F0C2
:100FB8005DF90A2DF4D1D0E72368052B07DD01F090
:100FC8007FFD04210220FFF781F8FFF745FA01F0C1
:100FD80077FD0320FFF778F800F10C03DBB2182B3C
:100FE80003D840B202F0A8F900E0002001F0B0FAFE
:100FF80001F066FD0420FFF767F8DFF85881324CEE
:101008004D4D00F0010388F80000C0F3C0002370C4
:101018002870FFF7A3F8052001F03EFD68B998F89D
:101028000030207023F0010388F8003001F048FDFB
:10103800042198F80000FFF749F8404B1968404B25
:10104800186802F075FB10B107233B7008E0FFF742
:101058009BF928B901233B4930463B7002F072FDE9
:1010680000F082FA08B12B784BB900F0D7F8364B6C
:10107800186004A801F023F938B0BDE8F081334BBB
:1010880000221B7802A88DF8002031493246FFF76C
:101098001FF803A8FFF70CFAE7E700BF5844080851
:1010A800C10500206D0608084C060020A247080864
:1010B80008060020A947080870040020B44708085B
:1010C800CC060020BC470808F8060020C7470808D7
:1010D80059050020D4470808BC060020E047080846
:1010E800E8060020E947080870050020F2470808CC
:1010F8009005002000480808B10500200E4808089F
:10110800C90500201C480808F80500202A480808D6
:101118001406002038480808B5000808464808089A
:101128009908080852480808410708085F4808084D
:10113800ED0708086C480808B0050020780400206E
:10114800B806002078480808E40600208405002036
:101158008A480808DC06002038B50D4B00241C60BE
:101168000C4B01251D7000F099F84FF6FF720A4BE1
:1011780002201C705C809A8000F078F9214628468D
:1011880000F08CF92946BDE83840042000F026B864
:1011980030060020840500208605002008B5024B93
:1011A8001B68DB6B019308BD2000060808B5024BDD
:1011B8001B685B6C019308BD2000060808B5024B4C
:1011C8001B689B6C019308BD2000060808B5024BFC
:1011D8001B681B6B019308BDD001040808B5024BBE
:1011E8001B685B6E019308BDB801040808B5024B83
:1011F8001B689B6E019308BDB801040808B5024B33
:101208001B68DB6E019308BDB801040808B5024BE2
:101218001B685B68019308BD9C01040808B5024B74
:101228001B685B69019308BD9C01040808B5024B63
:101238001B68DB69019308BD9C01040808B5024BD3
:101248001B689B6A019308BD9C01040808B5024B02
:101258001B68DB6A019308BD9C01040808B5024BB2
:101268001B681B6B019308BD9C01040808B5024B61
:101278001B689B6C019308BD9C01040808B5024BD0
:101288001B689B6D019308BD9C01040808B5024BBF
:101298001B68DB6D019308BD9C01040808B5024B6F
:1012A8001B681B68019308BDB001040808B5024B10
:1012B8001B689B68019308BDB001040808B5024B80
:1012C8001B68DB68019308BDB001040808B5024B30
:1012D8001B681B69019308BDB001040808B5024BDF
:1012E8001B685B69019308BDB001040808B5024B8F
:1012F8001B681B6A019308BDAC01040808B5024BC2
:101308001B685B6A019308BDAC01040808B5024B71
:101318001B689B6A019308BDAC01040808B5024B21
:101328001B68DB6A019308BDAC01040808B5024BD1
:101338001B681B6B019308BDAC01040808B5024B80
:101348001B685B6B019308BDAC01040808B5024B30
:101358001B681B6C019308BDAC01040808B5024B5F
:101368001B68DB69019308BDB401040808B5024B8A
:101378001B681B6A019308BDB401040808B5024B39
:101388001B689B69019308BDC401040808B5024B9A
:101398001B685B6A019308BDC401040808B5024BC9
:1013A8001B689B6A019308BDC401040808B5024B79
:1013B8001B68DB6A019308BDC401040808B5024B29
:1013C8001B681B6B019308BDC401040808B5024BD8
:1013D8001B685B6B019308BDC401040808B5024B88
:1013E8001B689B6B019308BDC401040808B5024B38
:1013F8001B681B6C019308BDC401040808B5024BA7
:101408001B681B68019308BD1C00060808B5024B41
:101418001B681B69019308BD1C00060808B5024B30
:101428001B685B69019308BD1C00060808B5024BE0
:101438001B689B69019308BD1C00060808B5024B90
:101448001B68DB69019308BD1C00060808B5024B40
:101458001B681B6A019308BD1C00060808B5024BEF
:101468001B681B68019308BDA401040808B5024B5A
:101478001B685B68019308BDA401040808B5024B0A
:101488001B685B69019308BDA401040808B5024BF9
:101498001B689B69019308BDA401040808B5024BA9
:1014A8001B68DB6A019308BDA401040808B5024B58
:1014B8001B68DB6C019308BDA401040808B5024B46
:1014C8001B685B6D019308BDA401040808B5024BB5
:1014D8001B689B6D019308BDA401040808B5034B64
:1014E8001B68D3F89030019308BD0000A4010408DC
:1014F80008B5034B1B68D3F89C30019308BD000066
:10150800A401040808B5034B1B68D3F8A83001935D
:1015180008BD0000A401040808B5024B1B681B683D
:10152800019308BDCC01040808B5024B1B685B6831
:10153800019308BDCC01040808B5024B1B689B68E1
:10154800019308BDCC01040808B5024B1B68DB6891
:10155800019308BDCC01040808B5024B1B681B6940
:10156800019308BDCC01040808B5024B1B685B69F0
:10157800019308BDCC01040808B5024B1B68DB6960
:10158800019308BDCC01040808B5024B1B681B6A0F
:10159800019308BDCC01040808B5024B1B685B6ABF
:1015A800019308BDCC01040808B5024B1B68DB6A2F
:1015B800019308BDCC01040808B5024B1B681B6BDE
:1015C800019308BDCC01040808B5024B1B68DB6B0E
:1015D800019308BDCC01040808B5024B1B685B6881
:1015E800019308BDC801040808B5024B1B689B6835
:1015F800019308BDC801040808B5024B1B68DB68E5
:10160800019308BDC801040808B5024B1B681B6993
:10161800019308BDC801040808B5024B1B685B6943
:10162800019308BDC801040808B5024B1B689B69F3
:10163800019308BDC801040808B5024B1B68DB69A3
:10164800019308BDC801040808B5024B1B681B6A52
:10165800019308BDC801040808B5024B1B681B6B41
:10166800019308BDC801040808B5024B1B685B6BF1
:10167800019308BDC801040808B5024B1B681B6824
:10168800019308BDA001040808B5024B1B685B68FC
:10169800019308BDA001040808B5024B1B689B68AC
:1016A800019308BDA001040808B5024B1B681B691B
:1016B800019308BDA001040808B5024B1B689B698B
:1016C800019308BDA001040808B5024B1B68DB693B
:1016D800019308BDA001040808B5024B1B68DB6A2A
:1016E800019308BDA001040808B5024B1B681B6BD9
:1016F800019308BDA00104080021FFF7BFBE10B583
:10170800836804460BB901F05AFAC3689847A3687E
:101718001BB103222146204698472046BDE81040C9
:10172800FEF7B9BC002211464068FFF76DBF2DE9EE
:10173800FF41002604AC054610468846174644F883
:10174800046D02F022FA009681B2D8F804302246DD
:101758003846FFF723FD20B13146284600F058FCF3
:1017680003E02146284600F04BFC284604B0BDE8BB
:10177800F081002211464068FFF766BF002211463B
:101788004068FFF771BF00224068FFF765BF00227D
:1017980081F001014068FFF74FBF00231A46194640
:1017A8004068FFF741BF00231A4619464068FFF713
:1017B80033BF002211464068FFF716BF00220221FE
:1017C8004068FFF719BF00231A464068FFF704BFB7
:1017D800F0B50F461A4B002503601826283389B048
:1017E80043608560C560324629460446103002F0E1
:1017F80034F92A4629467868FFF706FF08B9A06039
:101808001BE02946324602A80095019502F025F909
:1018180002A96846ADF80860FFF7C8FC10B10123BB
:10182800A3600AE0009B019AA360E2600BB902235F
:10183800A36002A9204600F09DF8204609B0F0BD3B
:101848000449080838B50C4C28252A4600212046AA
:1018580002F003F94FF0FF3363602580074C04233F
:1018680020466360064B2C2540F8083B2A46002199
:1018780002F0F3F8258138BD30070020FC0600206F
:10188800D04808087047007D7047000008B5037D00
:101898001BB18069B0F1004F01D1002008BD01F0F3
:1018A8004BFD024901F050FE08BD00BF0000C842D0
:1018B80008B5037D1BB1006AB0F1004F01D10020CB
:1018C80008BD01F039FD024901F03EFE08BD00BF28
:1018D8000000C84270B50D4606460A2281682846AF
:1018E80000F0ADFC2C210446284600F041FC0A22F9
:1018F8000444F168284600F0A2FC204470BDA0F121
:101908000400FFF7E7BF10B50446FEF7C4FB204606
:1019180010BD000008B5037D5BB1406A002808DBF4
:1019280001F00AFD044901F00FFE044901F058FDD9
:1019380008BD034808BD00BF00FF7F470000C8423C
:10194800000080BF08B5037D5BB1C069002808DBD3
:1019580001F0F2FC044901F0F7FD044901F040FDF3
:1019680008BD034808BD00BF00FF7F470000C8420C
:10197800000080BF30B50D4600F110040FCD0FC434
:1019880095E8030084E80300012030BD704700207B
:10199800704710B50446FEF77EFB204610BD08B51B
:1019A80008B1FFF7F6FF08BD10B58368044613B108
:1019B800032201469847204610BD38B5C468D4B103
:1019C8002378022B02D1E068FFF75EFE65682DB12F
:1019D8002846FFF7E9FF2846FEF75DFBA5682DB10D
:1019E8002846FFF7E1FF2846FEF755FB2046BDE8ED
:1019F8003840FEF750BB38BD10B588B0044668467D
:101A080000F0A4FC694604A800F0C2FC04A8A047A2
:101A1800044604A800F053FC684600F050FC204639
:101A280008B010BDF0B507460E46154685B010241F
:101A380022460021684602F010F800226946104646
:101A4800ADF80040029703960195FFF76DFD05B0CC
:101A5800F0BD13B5044691E8050000234B600B6008
:101A68002060626001A801930093FEF721FD2046E3
:101A780002B010BD0B68036013B15A6801325A6096
:101A88007047F7B50C4606460F4654F8043B02ADBE
:101A980045F8083D214601A8FFF7ECFF29463046E6
:101AA800FFF7D7FF01A8FEF703FD2046FEF700FD6C
:101AB8003846FEF7F0FA304603B0F0BD13B50B46D2
:101AC800044603C88DE8030093E8030084E8030094
:101AD8009DE8030083E8030002B010BD826810B5DA
:101AE8000AB901F06CF8C368BDE81040184708B59A
:101AF800006800F11001FFF7F1FF08BD826810B51A
:101B08000AB901F05CF8C368BDE81040184708B589
:101B1800006800F11001FFF7F1FF08BD38B5002398
:101B280083608B6804460D462BB102229847EB6808
:101B3800E360AB68A360204638BD00002DE9F041A2
:101B48004FF69C7304684FF0020086B0B1F9042088
:101B58008B8000230F688DF800300B60D4E84F1F8E
:101B6800994203D1C4E8450F002DF7D102D08DF872
:101B780000106BE014F10C051CBFE7602282BFF374
:101B88005F8F18BF1F4601236370BFF35F8F04F197
:101B98000803002053E8006F43E80002002AF9D147
:101BA800BFF35F8F002E51D0FFF780FC20B129468C
:101BB8003046FFF793FF43E031466846FFF7AEFF34
:101BC800E068B4F9105008B101F0C4FF0490102087
:101BD800ADF81450FEF75DFA054630B34FF0000833
:101BE800C0F808801820FEF754FA0446C0B1C0F8BF
:101BF800088001466846FFF761FF029BA268A36060
:101C0800039B0292E268E360BDF814300392A3825A
:101C18004FF69C73ADF81430049BCDF81080236107
:101C28000D4B2C60EB600D4BAB600498FFF72CFD5F
:101C38006846FFF7B9FE002229460948FFF73EFC2F
:101C48003046FFF7B1FE3046FEF725FA3846FFF773
:101C58001BFD06B0BDE8F081F71A0808551D0808F5
:101C6800071708082DE9F04F8BB007AD4FF0000BB0
:101C78000646994614200C230F4690469DF850A01E
:101C8800C5F804B0C5F808B00793FEF702FA044691
:101C980038B180F800B080F801B0C0F804B0C0F8DE
:101CA80008B00023102003940493FEF7F2F928B13A
:101CB800012343608360234BC4600360224B04907C
:101CC80008200893FEF7E5F9044628B1039B04A908
:101CD80040F8043BFFF7CEFE00955FFA8AF34A46C8
:101CE800414638460994FFF74FFCB8B9039B5B7827
:101CF80003F0FF0293B94FF69C7305A903A8059258
:101D0800ADF81830FFF71AFF0598FFF7BDFC05A8D6
:101D18000999FFF7B6FE06A8FEF7CAFB039B04A9BC
:101D280006A80593FFF7A6FE05A93046FFF791FE22
:101D380006A8FEF7BDFB04A8FEF7BAFB30460BB0B9
:101D4800BDE8F08F38490808BD1E0808022AF8B512
:101D5800044606D0032A17D0012A20D10B68036055
:101D68001DE018200E68FEF794F9054650B131467B
:101D7800FFF7D4FE3069B6F9147008B101F0EAFE35
:101D88002861AF8225600AE0046844B12069FFF742
:101D98007BFC2046FFF708FE2046FEF77CF9002072
:101DA800F8BD38B5002383608B6804460D462BB117
:101DB80002229847EB68E360AB68A360204638BD11
:101DC800022A70B5044606D0032A11D0012A17D179
:101DD8000B68036014E014200E68FEF75AF90546F4
:101DE80020B13146FFF7DDFF337C2B74256007E017
:101DF80004682CB12046FFF7D7FD2046FEF74BF9C3
:101E0800002070BDF0B50C46BFF35F8F87B000238C
:101E180050E8006F40E80032002AF9D1BFF35F8F25
:101E2800002E3ED01846FFF741FB074620B1214659
:101E38003046FFF763FE2EE0314601A8FFF7B1FFF9
:101E4800237810208DF81430FEF723F90546D0B119
:101E580087601420FEF71DF9044678B187600146B3
:101E680001A8FFF72BFE039BA268A360049B0392C3
:101E7800E268E3609DF81430049223740A4B2C60E6
:101E8800EB600A4BAB6001A8FFF78EFD00222946E4
:101E98000748FFF713FB3046FFF786FD3046FEF78D
:101EA800FAF807B0F0BD00BF171B0808C91D0808DD
:101EB8000717080830B5044685B00D466846114630
:101EC800FFF7DFFD7CB124B228460DB101F042FED8
:101ED800029002A96846ADF80C40FFF72FFE029861
:101EE800FFF7D2FB1DE04FF0010200988DF8084083
:101EF800D0E84F3FA34203D1C0E8412F0029F7D1D2
:101F080002D08DF808300CE010F10C014FF00103FD
:101F180018BF0373BFF35F8F043000F8033CFFF76B
:101F280071FF01A8FEF7C4FA05B030BD7047F8B5D7
:101F3800064615460C468F18BC4206D0336814F87E
:101F4800011B9B6830469847F6E72846F8BD0022F3
:101F5800007CFFF7CBB90021007CFFF7CFB9002147
:101F6800007CFFF7D3B90021007CFFF7D7B9002127
:101F7800007CFFF7DBB910B50446FEF78CF8204665
:101F880010BD000010B5044608464FF47A73A360EC
:101F9800044B0021207461602360FFF7D7F92046C5
:101FA80010BD00BF544908080021007CFFF7C6B9DE
:101FB800704710B50446FEF76EF8204610BDF8B518
:101FC8000F4600F10806051D002416F8011D0A2217
:101FD800384600F010F9AE42044407D0002CF4D083
:101FE8002E21384600F0C4F80444EEE72046F8BD38
:101FF800024A026000224260704700BF7C4908081C
:10200800024A02600A684260704700BF7C490808BB
:10201800014A4160026070477C49080810B59DF884
:10202800084044EA032343EA024242EA016141606C
:1020380010BD000037B5044D05609DF81850009597
:10204800FFF7ECFF03B030BD7C490808014A024B9A
:102058001A6070473D4A08085807002000231A46AE
:102068004068FFF7B9BA002202214068FFF7C4BAF6
:10207800002211464068FFF7B7BA002211464068AF
:10208800FFF7C2BA00231A4619464068FFF7C4BAD8
:1020980000231A4619464068FFF7C6BA002281F0A5
:1020A80001014068FFF7C8BA00224068FFF7D4BAB8
:1020B800002211464068FFF7D7BA0022114640684F
:1020C800FFF7C2BAF0B5174687B0054604A8FFF770
:1020D8008FFF002606AC384644F80C6D01F055FD1C
:1020E8000A4B009681B25B6822463846FFF756F8DD
:1020F80020B131462846FFF78BFF03E021462846EA
:10210800FFF77EFF284607B0F0BD00BFFC060020A1
:10211800024B034A1A6000225A6070475C0700208D
:10212800704A0808F8B506460D468F180024BD42C7
:102138000CD0336815F8011B9B6830469847002877
:1021480001DB0444F3E7002C08BF04462046F8BD31
:1021580070B505460C46084649B101F016FD2B68D6
:10216800024621462846BDE87040DB68184770BD26
:1021780003689B68184738B50D210546FFF7F8FF37
:102188000A2104462846FFF7F3FF204438BD38B536
:102198000546FFF7DDFF04462846FFF7ECFF20441D
:1021A80038BD012A98BF0A2230B50B468BB00021F2
:1021B8008DF824100DF12304B3FBF2F505FB12335F
:1021C800DBB2092B94BF30333733DBB2214604F836
:1021D80001392B46002DEFD1FFF7BAFF0BB030BD08
:1021E80010B422B90368C9B29B6810BC1847D2B2B0
:1021F80010BCFFF7D6BFFFF7F3BF2DE9F041074644
:102208000E4615462AB9BDE8F0410368C9B29B6875
:1022180018470A2A02D1002901DA04E0D2B2BDE83F
:10222800F041FFF7BEBF2D21FFF7A2FF2A46044663
:1022380071423846FFF7B5FF2044BDE8F081FFF74B
:10224800DCBF10B5044630B101F038FC90FBF4F364
:1022580003FB140010BD10BD10B50446FFF7A4FB26
:10226800204610BD034800238360034A034900F059
:10227800A1BC00BF640700205405002061220808A3
:10228800704710B50446FDF706FF204610BD000054
:1022980070B504460E46074B0025036040F80C5FF6
:1022A800FEF794FF30462671FFF758F8A5602046E0
:1022B80070BD00BFA44A08080079FFF757B810B5E9
:1022C80004460068FFF7E0F9204610BD10B5044643
:1022D800006808B1FFF7D8F900232360A3606360A2
:1022E80010BD38B504460D4600680131FFF7D4F932
:1022F80010B184E82100012038BD10B503680446F8
:1023080013B143688B4207D22046FFF7EAFF20B19A
:10231800A3680BB922681370012010BD70B50E4672
:10232800114604461546FFF7E8FF18B92046FFF79F
:10233800CDFF09E02A463146A560206801F082FBFE
:102348002268A3680021D154204670BD38B5002307
:10235800044603604360836003730D4639B1084641
:1023680001F013FC294602462046FFF7D7FF204616
:1023780038BD884210B50B46044607D0096819B124
:102388009A68FFF7CBFF01E0FFF7A0FF204610BDDA
:1023980010B5044600230360436083600373FFF7AE
:1023A800E8FF204610BD08B582680B4612B919B976
:1023B800012008BD11B90368187802E0006801F02F
:1023C800B7FBB0FA80F0400908BD70B50E469AB167
:1023D80091B185689D4202D800230B7070BD541ED0
:1023E800ED1AAC4228BF2C460168224619443046F3
:1023F80001F0E8FB0023335570BD014600228C2014
:10240800FEF7F4BE0020FFF7F8BF000010B5044641
:10241800084611461A460023FFF738F8064B0022F3
:102428001A704FF6FF7258809A801A689B8822604B
:10243800A380204610BD00BF7407002010B50024FB
:10244800047044804FF6FF740029848007DD013949
:10245800994209D232F811308380012301E002D178
:102468000223037010BD418010BD000070B50D46F9
:10247800164686B01A46002302930C9B0446019325
:102488000B9B3146009328460A9BFFF73BF83346DF
:102498002A46014604A8FFF7D1FF064B0498BDF869
:1024A8001420186020469A801A689B882260A380AE
:1024B80006B070BD740700204FF6FF72034B002072
:1024C800187058809A80FEF7D1BF00BF74070020AB
:1024D800F0B5144B144F1E68144B064418683B683B
:1024E80006449E428BB01BD00AA840F8286D01F024
:1024F800B1F90446436901AD03F26C7343610FCC33
:102508000FC50FCC0FC5D4F800E0094CC5F800E0A2
:1025180001AD0FCD0FC40FCD0FC43E60C4F800E06D
:102528000BB0F0BDAC070020A8070020A4070020CE
:102538007C07002008B50020FFF73EF828B1FFF718
:1025480013F880F00100C0B208BD012008BD0000EA
:1025580010B50949044601F0E1F860B90749204679
:1025680001F0FAF838B90649204600F039FF01F0C1
:10257800FDF8044B186010BD000040C10000604128
:1025880000006145AC07002037B50E4B04461B68B8
:1025980002A819440C4B1B68194440F8041D01F0AB
:1025A80059F901F009F9054601F0EFFA002328442A
:1025B80000F8013C29462046FFF7C8FE204603B034
:1025C80030BD00BFAC070020A407002010B50020D4
:1025D800FEF754FE044668B9FEF740FF01280BD108
:1025E8002046FEF773FF38B9FFF7A4FF30B9FEF7AE
:1025F800A3FFF9E7012010BD002010BDFFF79AFFE7
:102608000020FEF73BFE003018BF012010BD08B5C2
:10261800FFF7DCFFBDE80840FEF708BE08B5FFF786
:10262800F6FFFFF755FF014B986808BD7C070020AF
:1026380008B5FFF7ECFFFFF74BFF014B586808BDE3
:102648007C07002008B5FFF7E2FFFFF741FF014BC9
:10265800D86808BD7C070020024B1A68024B1A6034
:10266800704700BF9C040020A007002070474174F9
:102678007047007CFEF7BABE007CFEF78FBE007C78
:10268800FEF79CBE007CFEF791BE007CFEF79EBE66
:1026980010B50446FDF7FFFC204610BD70B5457C1B
:1026A80004460E4625B9007CFEF7A0FE002805DD8D
:1026B8003146207CBDE87040FEF768BE284670BDF4
:1026C80010B5044608461146002262604FF47A723B
:1026D800A260054A20742260012262741A46FEF73D
:1026E8004DFE204610BD00BFDC4A0808007CFEF7FE
:1026F80075BE000038B50C4D296811F0010411D1E0
:102708002846FDF7CAFC68B1084A2146084B094823
:10271800FFF7D6FF2846FDF7C5FC074A07490548D5
:1027280000F048FA034838BD480800204C0800204B
:10273800C4070020B00700205405002075260808AB
:102748004174704770470021007CFEF76FBE01217D
:10275800007CFEF76BBE007CFEF760BE007CFEF7D7
:1027680055BE38B50446007C0D46FEF757FE0028D6
:1027780001DC607C20B12946207CFEF75FFE012049
:1027880038BD007CFEF762BE10B50446FDF783FC39
:10279800204610BD10B50446002363604FF47A73D9
:1027A800A360054B08462360012321746374114616
:1027B800FEF724FE204610BD0C4B080810B5044651
:1027C8001422002101F049F9054B20466360054BAE
:1027D800E36040F2011323818123238210BD00BFEF
:1027E80055090020D408002030B50E4D87B001A847
:1027F800FFF7E4FF296811F0010410D12846FDF71E
:102808004CFC60B101AA21460748FFF7C3FF2846E0
:10281800FDF748FC054A0649034800F0CBF9024891
:1028280007B030BDD0080020580A00205405002009
:102838004D27080810B504461422002101F00DF9AF
:10284800054B20466360054BE36040F2011323818A
:102858008123238210BD00BF080B0020700A0020CE
:1028680010B50E4C86B001A8FFF7E4FF2368DB071C
:1028780010D42046FDF711FC60B101AA01210848D7
:10288800FFF788FF2046FDF70DFC064A0649044875
:1028980000F090F9024806B010BD00BF6C0A002095
:1028A800F40A0020540500204D27080808B5184BE5
:1028B80033B1FFF799FF03681B69984700281EDCAE
:1028C800144B33B1FFF716FF03681B6998470028BC
:1028D80018DC114B0BB1AFF30080104B0BB1AFF309
:1028E80000800F4B0BB1AFF300800E4B7BB1FFF7AD
:1028F800B7FF03681B699847002806DC08BDAFF3DB
:102908000080DDE7AFF30080E3E7AFF3008008BDA8
:1029180000000000000000000000000000000000AF
:10292800000000000000000008B5FFF7BFFFFEF739
:1029380075FC014B186008BD140C00200248034ABE
:102948000349121A01F07EB80040024004400240D8
:10295800C04D080807B5002300931A466FF07701A9
:10296800FEF7C6FD03B05DF804FB000007B5438819
:102978000A2B08D0502B09D1094B1B683BB103B077
:102988005DF804EB1847FFF7E5FF06E00023009326
:102998001A466FF07701FEF7ABFD03B05DF804FB54
:1029A8000C0C002038B5104C104D2368AB42104B6E
:1029B8000CBF012200221A7002D0FFF7BFFF25606A
:1029C800FEF724FC044601F051F80A4B13B12046E7
:1029D800AFF3008000210748FEF7F6FDBDE8384058
:1029E80000210548FEF77ABD004002401E1C279AC8
:1029F800100C0020000000007529080810B50446D6
:102A08000F48FFF759FC28B1A4F10D03022B01D898
:102A1800002010BD00F068F8FFF7C6FA08B1012CD5
:102A2800F6D9FFF767FEFFF761FE18B1A4F11203AC
:102A3800012BEDD92E2C8CBF0020012010BD00BF2A
:102A4800400C00202E2838B504460D460AD8FF2928
:102A580008D0FFF7D3FF28B129462046BDE8384003
:102A6800FEF724BC38BD38B504460D46FEF726FCF3
:102A7800FF2810D0062804D84D2323FA00F0C307F6
:102A880009D42046FFF7BAFF28B129462046BDE8F9
:102A98003840FEF71BBC38BD10B50446FEF70EFCE7
:102AA8000438C0B2012808D92046FFF7A7FF20B193
:102AB8002046BDE81040FEF711BC002010BD000004
:102AC80010B5074C2368DB0708D42046FDF7E5FA64
:102AD80020B1FEF7B3FB2046FDF7E4FA014810BD2C
:102AE800180C00201C0C002038B50B4D296811F07B
:102AF80001040FD12846FDF7D0FA58B121460748FE
:102B0800FFF740FA2846FDF7CDFA054A054903487C
:102B180000F050F8014838BD200C0020240C00209B
:102B280054050020351F080813B5084C00231A4621
:102B3800194600932046FFF77DFA2046044A0549C6
:102B480002B0BDE8104000F035B800BF380C0020D6
:102B580054050020B91F080870B5114E114D124CCC
:102B680000213046FFF794FB3046104E2A46214696
:102B780000F020F801213046FFF78AFB30460C4E62
:102B88002A46214600F016F802213046FFF780FB5E
:102B98002A4621463046BDE8704000F00BB800BF19
:102BA800400C00205405002089220808500C002001
:102BB800600C00200B460146184600F03DBE08B5E3
:102BC800FEF78AFD244B1A68D0075CBF01221A6001
:102BD800224B1A68D1075CBF01221A60204B1A6881
:102BE800D2075CBF01221A601E4B1A68D0075CBF6F
:102BF80001221A601C4B1A68D1075CBF01221A60B7
:102C08001A4B1A68D2075CBF01221A60184B1A685F
:102C1800D0075CBF01221A60164B1A68D1075CBF47
:102C280001221A60144B1A68D2075CBF01221A608D
:102C3800124B1A68D0075CBF01221A60104B1A6841
:102C4800D1075CBF01221A600E4B1A68D2075CBF1D
:102C580001221A60704700BF9C0C0020980C0020CD
:102C6800940C0020900C00208C0C0020880C002074
:102C7800840C0020800C00207C0C0020780C0020A4
:102C8800740C0020700C0020184B1A68D1075CBF28
:102C980001221A60164B1A68D2075CBF01221A601B
:102CA800144B1A68D0075CBF01221A60124B1A68CD
:102CB800D1075CBF01221A60104B1A68D2075CBFAB
:102CC80001221A600E4B1A68D0075CBF01221A60F5
:102CD8000C4B1A68D1075CBF01221A600A4B1A68AC
:102CE800D2075CBF01221A60704700BFBC0C0020ED
:102CF800B80C0020B40C0020B00C0020AC0C002054
:102D0800A80C0020A40C0020A00C0020184B1A6866
:102D1800D1075CBF01221A60164B1A68D2075CBF44
:102D280001221A60144B1A68D0075CBF01221A608E
:102D3800124B1A68D1075CBF01221A60104B1A683F
:102D4800D2075CBF01221A600E4B1A68D0075CBF1D
:102D580001221A600C4B1A68D1075CBF01221A6065
:102D68000A4B1A68D2075CBF01221A60704700BF7D
:102D7800DC0C0020D80C0020D40C0020D00C002043
:102D8800CC0C0020C80C0020C40C0020C00C002073
:102D9800244B1A68D0075CBF01221A60224B1A68BC
:102DA800D1075CBF01221A60204B1A68D2075CBFAA
:102DB80001221A601E4B1A68D0075CBF01221A60F4
:102DC8001C4B1A68D1075CBF01221A601A4B1A689B
:102DD800D2075CBF01221A60184B1A68D0075CBF83
:102DE80001221A60164B1A68D1075CBF01221A60CB
:102DF800144B1A68D2075CBF01221A60124B1A687A
:102E0800D0075CBF01221A60104B1A68D1075CBF5B
:102E180001221A600E4B1A68D2075CBF01221A60A1
:102E2800704700BF0C0D0020080D0020040D002085
:102E3800000D0020FC0C0020F80C0020F40C0020F1
:102E4800F00C0020EC0C0020E80C0020E40C002022
:102E5800E00C002081F0004102E000BF83F0004355
:102E680030B54FEA41044FEA430594EA050F08BF1D
:102E780090EA020F1FBF54EA000C55EA020C7FEAE1
:102E8800645C7FEA655C00F0E2804FEA5454D4EB5E
:102E98005555B8BF6D420CDD2C4480EA020281EA28
:102EA800030382EA000083EA010180EA020281EA60
:102EB8000303362D88BF30BD11F0004F4FEA0131B2
:102EC8004FF4801C4CEA113102D0404261EB4101C1
:102ED80013F0004F4FEA03334CEA133302D0524247
:102EE80063EB430394EA050F00F0A780A4F1010403
:102EF800D5F1200E0DDB02FA0EFC22FA05F280183D
:102F080041F1000103FA0EF2801843FA05F3594122
:102F18000EE0A5F120050EF1200E012A03FA0EFCA1
:102F280028BF4CF0020C43FA05F3C01851EBE371CB
:102F380001F0004507D54FF0000EDCF1000C7EEBE8
:102F480000006EEB0101B1F5801F1BD3B1F5001F26
:102F58000CD349085FEA30004FEA3C0C04F1010445
:102F68004FEA445212F5800F80F09A80BCF1004F6E
:102F780008BF5FEA500C50F1000041EB045141EAF0
:102F8800050130BD5FEA4C0C404141EB010111F4F1
:102F9800801FA4F10104E9D191F0000F04BF01469C
:102FA8000020B1FA81F308BF2033A3F10B03B3F17A
:102FB80020020CDA0C3208DD02F1140CC2F10C020A
:102FC80001FA0CF021FA02F10CE002F11402D8BF68
:102FD800C2F1200C01FA02F120FA0CFCDCBF41EA34
:102FE8000C019040E41AA2BF01EB0451294330BD03
:102FF8006FEA04041F3C1CDA0C340EDC04F11404E0
:10300800C4F1200220FA04F001FA02F340EA0300B6
:1030180021FA04F345EA030130BDC4F10C04C4F1FC
:10302800200220FA02F001FA04F340EA03002946DC
:1030380030BD21FA04F0294630BD94F0000F83F426
:10304800801306BF81F480110134013D4EE77FEA09
:10305800645C18BF7FEA655C29D094EA050F08BF55
:1030680090EA020F05D054EA000C04BF1946104636
:1030780030BD91EA030F1EBF0021002030BD5FEA7A
:10308800545C05D14000494128BF41F0004130BDA2
:1030980014F580043CBF01F5801130BD01F00045F6
:1030A80045F0FE4141F470014FF0000030BD7FEA69
:1030B800645C1ABF194610467FEA655C1CBF0B4664
:1030C800024650EA013406BF52EA033591EA030F7B
:1030D80041F4002130BD00BF90F0000F04BF002173
:1030E800704730B54FF4806404F132044FF00005A6
:1030F8004FF0000150E700BF90F0000F04BF00211F
:10310800704730B54FF4806404F1320410F0004584
:1031180048BF40424FF000013EE700BF42004FEA7F
:10312800E2014FEA31014FEA02701FBF12F07F43FC
:1031380093F07F4F81F06051704792F0000F14BFF9
:1031480093F07F4F704730B54FF4607401F000453D
:1031580021F0004120E700BF50EA010208BF704794
:1031680030B54FF000050AE050EA010208BF704789
:1031780030B511F0004502D5404261EB41014FF4F2
:10318800806404F132045FEA915C3FF4DCAE4FF0F6
:1031980003025FEADC0C18BF03325FEADC0C18BFDD
:1031A800033202EBDC02C2F1200300FA03FC20FA2E
:1031B80002F001FA03FE40EA0E0021FA02F114447B
:1031C800C1E600BF80F0004002E000BF81F000418E
:1031D80042001FBF5FEA410392EA030F7FEA226CB5
:1031E8007FEA236C6AD04FEA1262D2EB1363C1BF45
:1031F800D218414048404140B8BF5B42192B88BFB4
:10320800704710F0004F40F4000020F07F4018BFD6
:10321800404211F0004F41F4000121F07F4118BFF6
:10322800494292EA030F3FD0A2F1010241FA03FC9E
:1032380010EB0C00C3F1200301FA03F100F0004386
:1032480002D5494260EB4000B0F5000F13D3B0F14E
:10325800807F06D340084FEA310102F10102FE2ABD
:1032680051D2B1F1004F40EBC25008BF20F001002D
:1032780040EA03007047490040EB000010F4000FDB
:10328800A2F10102EDD1B0FA80FCACF1080CB2EB6E
:103298000C0200FA0CF0AABF00EBC25052421843CD
:1032A800BCBFD0401843704792F0000F81F4000172
:1032B80006BF80F400000132013BB5E74FEA410345
:1032C8007FEA226C18BF7FEA236C21D092EA030FB1
:1032D80004D092F0000F08BF0846704790EA010F2B
:1032E8001CBF0020704712F07F4F04D1400028BF58
:1032F80040F00040704712F100723CBF00F500003A
:10330800704700F0004343F0FE4040F4000070476F
:103318007FEA226216BF08467FEA2363014642021B
:1033280006BF5FEA412390EA010F40F4800070472E
:103338004FF0000304E000BF10F0004348BF4042D4
:103348005FEA000C08BF704743F0964301464FF010
:1033580000001CE050EA010208BF70474FF000036C
:103368000AE000BF50EA010208BF704711F00043AD
:1033780002D5404261EB41015FEA010C02BF84467D
:103388000146002043F0B64308BFA3F18053A3F5DC
:103398000003BCFA8CF2083AA3EBC25310DB01FA23
:1033A80002FC634400FA02FCC2F12002BCF1004FA7
:1033B80020FA02F243EB020008BF20F00100704738
:1033C80002F1200201FA02FCC2F1200250EA4C008C
:1033D80021FA02F243EB020008BF20EADC707047D2
:1033E8004FF0FF0C1CEAD0521EBF1CEAD15392EAE0
:1033F8000C0F93EA0C0F6FD01A4480EA010C4002BC
:1034080018BF5FEA41211ED04FF0006343EA501015
:1034180043EA5111A0FB01310CF00040B1F5000F57
:103428003EBF490041EAD3715B0040EA010062F106
:103438007F02FD2A1DD8B3F1004F40EBC25008BFF0
:1034480020F00100704790F0000F0CF0004C08BF0E
:1034580049024CEA502040EA51207F3AC2BFD2F1DB
:10346800FF0340EAC250704740F400004FF00003E9
:10347800013A5DDC12F1190FDCBF00F00040704723
:10348800C2F10002410021FA02F1C2F1200200FA61
:1034980002FC5FEA310040F1000053EA4C0308BF28
:1034A80020EADC70704792F0000F00F0004C02BF79
:1034B800400010F4000F013AF9D040EA0C0093F0F4
:1034C800000F01F0004C02BF490011F4000F013B4E
:1034D800F9D041EA0C018FE70CEAD15392EA0C0FBC
:1034E80018BF93EA0C0F0AD030F0004C18BF31F027
:1034F800004CD8D180EA010000F00040704790F0FD
:10350800000F17BF90F0004F084691F0000F91F0A0
:10351800004F14D092EA0C0F01D142020FD193EA66
:103528000C0F03D14B0218BF084608D180EA0100EE
:1035380000F0004040F0FE4040F40000704740F0CA
:10354800FE4040F4400070474FF0FF0C1CEAD05298
:103558001EBF1CEAD15392EA0C0F93EA0C0F69D0F4
:10356800A2EB030280EA010C49024FEA402037D05F
:103578004FF0805343EA111143EA10130CF0004056
:103588008B4238BF5B0042F17D024FF4000C8B4246
:1035980024BF5B1A40EA0C00B3EB510F24BFA3EB26
:1035A800510340EA5C00B3EB910F24BFA3EB9103F6
:1035B80040EA9C00B3EBD10F24BFA3EBD10340EA50
:1035C800DC001B0118BF5FEA1C1CE0D1FD2A3FF696
:1035D80050AF8B4240EBC25008BF20F0010070474B
:1035E8000CF0004C4CEA50207F32C2BFD2F1FF03EE
:1035F80040EAC250704740F400004FF00003013A1F
:1036080037E792F0000F00F0004C02BF400010F4C2
:10361800000F013AF9D040EA0C0093F0000F01F0D6
:10362800004C02BF490011F4000F013BF9D041EAF8
:103638000C0195E70CEAD15392EA0C0F08D142022B
:103648007FF47DAF93EA0C0F7FF470AF084676E7FE
:1036580093EA0C0F04D14B023FF44CAF08466EE7D7
:1036680030F0004C18BF31F0004CCAD130F00042A5
:103678007FF45CAF31F000437FF43CAF5FE700BFFD
:103688004FF0FF3C06E000BF4FF0010C02E000BF26
:103698004FF0010C4DF804CD4FEA40024FEA4103C8
:1036A8007FEA226C18BF7FEA236C11D001B052EA7E
:1036B800530C18BF90EA010F58BFB2EB030088BF44
:1036C800C81738BF6FEAE17018BF40F001007047B3
:1036D8007FEA226C02D15FEA402C05D17FEA236C95
:1036E800E4D15FEA412CE1D05DF8040B704700BFDC
:1036F800844608466146FFE70FB5FFF7C9FF002873
:1037080048BF10F1000F0FBD4DF808EDFFF7F4FFAB
:103718000CBF012000205DF808FB00BF4DF808ED44
:10372800FFF7EAFF34BF012000205DF808FB00BF67
:103738004DF808EDFFF7E0FF94BF012000205DF889
:1037480008FB00BF4DF808EDFFF7D2FF94BF01203A
:1037580000205DF808FB00BF4DF808EDFFF7C8FF33
:1037680034BF012000205DF808FB00BF4FEA40028B
:10377800B2F1FE4F0FD34FF09E03B3EB12620DD997
:103788004FEA002343F0004310F0004F23FA02F001
:1037980018BF404270474FF00000704712F1610FA8
:1037A80001D1420205D110F0004008BF6FF000407F
:1037B80070474FF000007047094B70B51C6806460B
:1037C800256C3DB91A20FDF757FF1A2220642946B7
:1037D80000F043F9216C3046BDE8704000F002B8B3
:1037E8000405002010B50C46416986B001F26C71E1
:1037F800036982690491016803EB430303914168FB
:1038080002EB4202029181680191C1682046009151
:1038180004490B4404490A440449FDF745FF20467E
:1038280006B010BD494B0808344B08086D4B080812
:103838000A22002100F060BA10B5054C13462CB1DD
:103848000A4601460220AFF3008010BD204610BD95
:103858000000000038B5074B05461C68E36B1BB930
:103868002420FDF709FFE063E16B2846BDE83840F6
:1038780000F002B8040500202DE9F0410C4680460E
:1038880000F040FD21460746404600F03FFD4669EE
:10389800044606F26C76B30705D1642296FBF2F370
:1038A80002FB13634BB94FF4C87596FBF5F305FBA0
:1038B8001365B5FA85F35B0900E001235F4A3025FB
:1038C80005FB032500F052FB00F052FB5C4B1B6824
:1038D800F3B17B689E4205D13968D8F80030FA699F
:1038E80041B90AE0304600F099FA0028F4D14FF0C7
:1038F800FF330DE0934208DB01E0934207DABA6B2D
:103908009342ACBF0023012302E0002300E001231F
:103918002362236A3C20012B0CBFF96B396A4FF4F0
:10392800616391FBF3F603FB161393FBF0F200FBC4
:10393800123061682368891AA2681B1A921B3B2BF4
:1039480023606160A26003DD013161603C3B04E0FB
:10395800002B03DA013961603C33236063683B2B39
:1039680003DD0132A2603C3B04E0002B03DA013A9C
:10397800A2603C336360A368172B22DDE269183B21
:103988000132E261A269A3600132062AC8BF00229F
:10399800A261E26823690132E26055F823108A4285
:1039A80046DD01330C2B08BF6369A2EB0102E2601C
:1039B80005BF013300222361226104BF6361E26114
:1039C80036E0002B34DAE2691833013AE261A26981
:1039D800A360013A48BF0622A261E268013AE260A8
:1039E80032BB2369013B01D423611DE00B23236112
:1039F80063695A1E12F0030F626103F26B7305D1FB
:103A0800642193FBF1F201FB12324AB94FF4C871F9
:103A180093FBF1F201FB1233B3FA83F35B0900E085
:103A2800012303F5B673E361236955F82330E36096
:103A380000F09DFA2046BDE8F08100BFF04C080870
:103A48002C0D002010B5431E0A44914204D011F8F1
:103A5800014B03F8014FF8E710BD034602449342B7
:103A680002D003F8011BFAE77047000038B5124B83
:103A780005461C68A36BD3B91820FDF7FDFD43F27A
:103A88000E33A06303804AF6CD33438041F23423DA
:103A980083804EF26D63C3804DF6EC63038105238A
:103AA80043810B23838101220023C0E90423A36BF4
:103AB80000221D615A6138BD04050020194B10B55C
:103AC8001C68A36BD3B91820FDF7D6FD43F20E335B
:103AD800A06303804AF6CD33438041F234238380C8
:103AE8004EF26D63C3804DF6EC6303810523438179
:103AF8000B23838101220023C0E90423A16B0A4C14
:103B08000B6948695C43094A02FB0040A3FB022396
:103B18000132034443F10003C1E9042323F00040C8
:103B280010BD00BF040500202DF451582D7F954C81
:103B380010F8012B11F8013B012A28BF9A42F7D04F
:103B4800D01A7047034611F8012B03F8012B002AFD
:103B5800F9D17047024B0146186800F003B800BF5E
:103B68000405002070B5064608460C4600F00DF81E
:103B7800451C29463046FDF7B7FD064618B12A46CA
:103B88002146FFF75FFF304670BD034613F8012B4F
:103B9800002AFBD1181A0138704730B582B1451E8A
:103BA800013915F8013F11F8014FA34206D1EC4342
:103BB8001444E04201D0002BF3D11C46181B30BD41
:103BC800104630BD034610B542B111F8014B013A19
:103BD80003F8014B002CF7D11A4400E010BD9342C2
:103BE80002D003F8014BFAE710BD00002DE9F047B9
:103BF8000F4680463F48D0F800903D4615F8014BE7
:103C080009EB0400407800F0080000F0FF0608B156
:103C18002F46F2E72D2C03D1BD1C7C78012603E04A
:103C28002B2C04BF7C78BD1C13B1102B0AD15BE090
:103C3800302C57D1287800F0DF0058284DD16C7807
:103C480010230235002E14BF4FF0004C6FF0004CCB
:103C5800BCFBF3FA0027384603FB1ACC09EB040E29
:103C68009EF801E01EF0040F01D0303C0BE01EF07E
:103C7800030E1BD0BEF1010F0CBF4FF0370E4FF0F3
:103C8800570ECEEB0404A34210DDB7F1FF3F0AD074
:103C9800504506D801D1644503DC03FB00400127E9
:103CA80001E04FF0FF3715F8014BD7E77B1C0CD12B
:103CB800002E4FF0220314BF4FF000406FF0004079
:103CC800C8F800302AB9BDE8F08706B1404272B1A1
:103CD80007B1691E1160BDE8F0873024002BB1D10F
:103CE8000823AFE70A23ADE7302CA3D0AAE7BDE845
:103CF800F08700BFA004002013460A460146024888
:103D08000068FFF773BF00BF040500202DE9F047E6
:103D18000E4680463B48D0F80090354615F8014BD2
:103D280009EB0400407800F0080000F0FF0708B134
:103D38002E46F2E72D2C03D1B51C7478012703E039
:103D48002B2C04BF7478B51C13B1102B0AD153E087
:103D5800302C4FD1287800F0DF00582845D16C78F6
:103D6800102302354FF0FF3CBCFBF3FC03FB0CFABD
:103D780000266FEA0A0A304609EB040E9EF801E0B5
:103D88001EF0040F01D0303C0BE01EF0030E1AD0D9
:103D9800BEF1010F0CBF4FF0370E4FF0570ECEEBB0
:103DA8000404A3420FDD002E08DB604506D801D1CC
:103DB800544503DC03FB0040012601E04FF0FF36C9
:103DC80015F8014BD8E7002E07DA2223C8F800308F
:103DD8004FF0FF302AB9BDE8F08707B1404272B111
:103DE80006B1691E1160BDE8F0873024002BB9D1F7
:103DF8000823B7E70A23B5E7302CABD0B2E7BDE814
:103E0800F08700BFA004002013460A460146024876
:103E18000068FFF77BBF00BF040500202DE9F74FBE
:103E2800044600F06FFA40F2B1739C4240F396806A
:103E380040F26D156FF4F663E318A4F2B2729B10AA
:103E480005FB0235A4F26D726FF0630392FBF3F386
:103E58006FF4C8622B44A5184FF4C87294FBF2F7AC
:103E680095FBF2F502FB17471D44642394FBF3F618
:103E7800B7FA87FE014603FB164600F138030193A3
:103E880004F0030344604FEA5E1E00934FF0070CF2
:103E98000B7A4A2B0ED14B69009AEC1802B906B975
:103EA80027B93B2BD4BF0023012300E00023234480
:103EB800013B3FE0442B02D14B692B443AE0009B85
:103EC8002BB9002E0CBFF0464FF0010800E0F04679
:103ED800A946244B302202FB0838CC68A8F1040A12
:103EE8000123A34204DA5AF804BF0133D944F8E79E
:103EF80009F1040393FBFCFBCBEBCB0ACAEB030AE7
:103F08004B69012CB8BF0124B3EB0A0A0B6904F111
:103F1800804403F1FF3304F1FF3448BF0AF1070A74
:103F2800C3EBC30358F824405344A34201DB073BC7
:103F3800FBE74B448C690C4A02FB03430C6A23449D
:103F480041F81C3F019B9942A2D1C369826B9342FD
:103F5800ACBF002301230360012000E0002003B070
:103F6800BDE8F08FF04C0808805101007047704799
:103F7800014B186800F002B8040500202DE9F04F45
:103F88008DB0074600F0BEF9B0490446384600F047
:103F9800B1F9AF4E054660B9AE4BAF4A1860AF4BAA
:103FA8001860AF4B30681A605A60FDF76DFB3560DA
:103FB80048E1316879B93068FDF766FB2846FFF7B4
:103FC800E4FD411C3846FDF78FFB306048B12946B7
:103FD800FFF7B8FD05E0FFF7ABFD002800F03281E0
:103FE800E9E72B780AAE3A2B08BF013533469D4ADC
:103FF8009D492846FDF760FB002840F323810A9B72
:10400800EF18EB5C2D2B03D101374FF0FF3503E0A0
:104018002B2B08BF013701250DF1200A0DF11E0BCE
:104028004FF000080396CDF808A00196CDF800B02F
:10403800334607AA8D493846ADF81E80ADF8208072
:10404800FDF73AFB404540F3FD80BDF81E20BDF862
:1040580020303C2101FB0233BDF81C204FF4616184
:1040680001FB02335D437F4B25627D4DDFF80892EB
:104078002B600A9B4A461F447B4933463846FDF766
:104088001BFB404508DC2B68226A6B60714B1A6089
:10409800724BC3F80080D5E00A9BC5F80490FD1860
:1040A800FB5C2D2B03D101354FF0FF3703E02B2BA1
:1040B80008BF013501270023ADF81C30ADF81E30CC
:1040C800ADF820300A930396CDF808A00196CDF8F4
:1040D80000B0334607AA65492846FDF7EDFA0028DF
:1040E80004DC236AA3F56163E3630EE0BDF81E20D8
:1040F800BDF820303C2101FB0233BDF81C204FF4F1
:10410800616101FB02335F43E76327460A9B4FF077
:1041180000091D442B782C2B08BF013595F8008029
:10412800B8F14D0F26D10DF12603029309AB009388
:104138000396019633460DF122024D492846FDF7B4
:10414800BBFA03287ED1BDF822104B1E0B2B79D861
:10415800BDF82420531E042B74D8BDF82630062B36
:1041680070D887F80880F9603A617B610A9B05EB93
:1041780003082AE0B8F14A0F06BF43460135442335
:104188000A220BA928460593FFF73EFEDDF82C808E
:10419800ADF826004545059B14D14D23B9F1000F14
:1041A80007D123720323E36002232361C4F8149028
:1041B8000BE084F824300B23A3620123E36200237D
:1041C800236302E080B23B7278610223ADF81C30B1
:1041D8000023ADF81E30ADF820300A9398F800306F
:1041E8002F2B0BD10396CDF808A00196CDF800B07F
:1041F800334607AA1F494046FDF75EFABDF81E2060
:10420800BDF820303C2101FB0233BDF81C204FF4DF
:10421800616101FB0233BB610A9D09F10109B9F132
:10422800020F454407F11C077FF474AF6068FFF77D
:10423800F5FD226A074B1A60E36B9B1A074A18BF01
:10424800012313600DB0BDE8F08F00BF504D080882
:10425800280D0020300D0020534D08082C0D00209B
:10426800080500201B0D0020574D08087A4D080846
:10427800664D0808794D0808100D00202DE9F84F03
:1042880007468B46904600F0D7F8194B1D689A46AA
:104298003DB15C46234613F8012B42B13D2A1C462A
:1042A800F8D1384600F0C9F80020BDE8F88FCBEB0C
:1042B8000404A94659F8040B0028F2D022465946AE
:1042C800FFF76BFC88B959F8043C1E191B5D3D2BA0
:1042D8000BD1DAF800303846ED1AAD10C8F80050A6
:1042E80000F0ABF8701CBDE8F88F4D46E1E700BF61
:1042F8005005002007B501AAFFF7C0FF03B05DF81D
:1043080004FB000000487047100500200268464B77
:10431800F0B592FBF3F403FB1422002ABCBF02F5AC
:10432800A83202F5C0724FF4616092FBF0F300FB13
:1043380013224FF03C008B6092FBF0F300FB13223A
:1043480004F52F24ACBF04F66C2404F66B244B60F0
:104358000A600723E21C92FBF3F3344DC3EBC3035B
:1043680094FBF5F5D31A48F6AC6240F2B4578B616A
:104378002F4B304803FB0544B4FBF2F2B4FBF7F3D0
:10438800B4FBF0F02244D21A48F69466131A40F2AD
:104398006D12B3FBF6F6B3FBF2F0B3FBF7F334445C
:1043A800E31A02FB103303EB830299240232B2FBB7
:1043B800F4F25443A61C0524B6FBF4F40A2A34BFCD
:1043C80002266FF0090616444FF4C87202FB050571
:1043D8005F1C012E98BF0135B3F5997FA7EB040741
:1043E80002D3A3F5997214E0820705D16424B0FBC7
:1043F800F4F204FB12024AB94FF4C872B0FBF2F4AB
:1044080002FB1400B0FA80F2520900E001223B33AB
:104418001A44A5F26C750023CA614D610E61CF6024
:104428000B620846F0BD00BF80510100B13A02009E
:104438004FC5FDFFB03A0200704770471D000808DD
:104448005D000808890008088D00080800000000C1
:104458005374617274757020537563636573736602
:10446800756C000000000000000000000000000063
:104478000000000000000000000000000000000034
:104488000000000000000000000000000000000024
:10449800257320533A25322E306625252C20513A93
:1044A80025322E30662525200025342E316620251C
:1044B8002500256920746970730025342E31662023
:1044C800430041542B4346554E3D31360D0A007B7F
:1044D80022536F696C6D6F69737475726531223A16
:1044E80025342E31662C2022536F696C6D6F6973E9
:1044F8007475726532223A25342E31662C20225387
:104508006F696C6D6F69737475726533223A2534FF
:104518002E31662C2022536F696C6D6F6973747528
:10452800726534223A25342E31662C2022536F6965
:104538006C6D6F69737475726535223A25342E3146
:10454800662C2022536F696C6D6F69737475726580
:1045580036223A25342E31662C2022507265636942
:104568007069746174696F6E223A2025692C202263
:10457800536F696C74656D70223A25342E31662C40
:10458800202248756D6964697479223A25342E3180
:10459800662C202254656D7065726174757265228F
:1045A8003A25342E31662C202250616E656C687570
:1045B8006D6964697479223A25342E31662C20227B
:1045C80050616E656C74656D706572617475726545
:1045D800223A25342E31662C202242617474657289
:1045E80079223A25342E31662C2022526164696F73
:1045F80074656368223A2025692C20225369676E06
:10460800616C223A2025342E31662C2022517561A6
:104618006C697479223A2025342E31662C20225276
:104628006573657473223A25692C2022416C657282
:104638007473223A25697D0043656C6C756C6172F0
:104648005F4C69506F5F486F6F6B004E6F2044611D
:10465800746100556269646F747320486F6F6B00F2
:10466800526573706F6E7365205265636569766510
:1046780064005374617465005365742056657262F2
:104688006F7365204D6F6465003000436C6561721F
:10469800656420566572626F7365204D6F646500AE
:1046A80054696D65207A6F6E65206F6666736574F0
:1046B8002025690054696D65004C6F7720506F772D
:1046C8006572004E6F726D616C204F706572617417
:1046D800696F6E730046726F6D20257320746F20AA
:1046E8002573005374617465205472616E73697424
:1046F800696F6E004572726F722074616B696E67C4
:10470800204D6561737572656D656E7473007370A5
:1047180061726B2F6465766963652F73657373695E
:104728006F6E2F656E6400476F696E6720746F2027
:10473800536C656570004C6F7720426174746572C4
:1047480079202D20536C656570696E67004572721B
:104758006F72205374617465202D205265736574DF
:10476800004572726F72205374617465202D205059
:104778006F776572204379636C65004572726F725A
:10478800205374617465202D2046756C6C204D6F24
:1047980064656D205265736574005369676E616C5A
:1047A800005265736574436F756E740052656C656D
:1047B8006173650073746174654F66436867006C64
:1047C8006F77506F7765724D6F64650074656D70B3
:1047D800657261747572650068756D69646974796C
:1047E80000536F696C54656D7000536F696C4D6F41
:1047F8006973747572653100536F696C4D6F6973B5
:10480800747572653200536F696C4D6F6973747596
:1048180072653300536F696C4D6F69737475726597
:104828003400536F696C4D6F697374757265350028
:10483800536F696C4D6F69737475726536004D6599
:1048480061737572652D4E6F77004C6F77506F7777
:1048580065724D6F646500566572626F73652D4DA4
:104868006F64650053657454696D655A6F6E6500B1
:104878004661696C656420746F20636F6E6E656352
:1048880074005374617274757000556E6B6E6F7737
:104898006E004E6F6E6500576946690047534D00BC
:1048A800554D54530043444D41004C54450049452F
:1048B800454538303231353400312E303261000010
:1048C8000000000000000000CF170808C5170808FE
:1048D800BB1708082D170808AF170808A3170808FA
:1048E800971708088F170808851708087B170808FE
:1048F8003717080800000000000000008D1808089D
:104908000F1908088F1808084D190808951808087D
:104918001D190808B9180808DD180808FCFFFFFF6A
:10492800000000000719080800000000000000004F
:10493800951908089B190808C3190808A719080831
:10494800971908080000000000000000351F08083B
:104958007F1F0808571F0808371F08085F1F080827
:10496800671F08086F1F0808771F08080000000065
:1049780000000000C71F0808B91F0808BB1F080867
:1049880066006C6E00666E00636F64650064657433
:1049980061696C00253031307520005D2000256488
:1049A800002C200028293A2000205B00636F6465F2
:1049B800203D200064657461696C73203D200062AD
:1049C8006175640053657269616C005553425365A3
:1049D8007269616C31007479706500706172616D23
:1049E80000636D6400696400686E64007374726DBE
:1049F8000066696C74006C766C0061646448616E72
:104A0800646C65720072656D6F766548616E646C82
:104A1800657200656E756D48616E646C65727300D1
:104A28004A534F4E53747265616D4C6F6748616E9F
:104A3800646C657200617070006E6F6E65007472F0
:104A480061636500696E666F007761726E006572FA
:104A5800726F720070616E696300616C6C000000B7
:104A68000000000000000000652008086F2008080A
:104A780079200808832008088D200808992008084C
:104A8800A5200808B1200808B9200808C32008088C
:104A9800CD20080800000000000000008922080856
:104AA8008B220808252B3033643A253032750025CF
:104AB800592D256D2D25645425483A254D3A255301
:104AC800257A0061736374696D6500000000000059
:104AD800000000007526080899260808A526080879
:104AE8002D210808812608088D2608088726080829
:104AF80093260808772608087B2608080000000087
:104B0800000000004D270808912708086B270808AF
:104B18002D210808652708084F270808572708087F
:104B28008B2708085F2708084927080853756E4D22
:104B38006F6E54756557656454687546726953613C
:104B4800744A616E4665624D61724170724D617959
:104B58004A756E4A756C4175675365704F63744E3C
:104B68006F76446563252E337320252E33732533E2
:104B78006420252E32643A252E32643A252E32647A
:104B88002025640A00002020202020202020202822
:104B980028282828202020202020202020202020ED
:104BA8002020202020208810101010101010101025
:104BB8001010101010100404040404040404040465
:104BC80010101010101010414141414141010101E4
:104BD80001010101010101010101010101010101BD
:104BE80001101010101010424242424242020202CA
:104BF800020202020202020202020202020202028D
:104C0800021010101020000000000000000000003A
:104C1800000000000000000000000000000000008C
:104C2800000000000000000000000000000000007C
:104C3800000000000000000000000000000000006C
:104C4800000000000000000000000000000000005C
:104C5800000000000000000000000000000000004C
:104C6800000000000000000000000000000000003C
:104C7800000000000000000000000000000000002C
:104C8800000000000000000000000000000000001C
:104C9800000000000000000000000000000000000C
:104CA80000000000000000000000000000000000FC
:104CB80000000000000000000000000000000000EC
:104CC80000000000000000000000000000000000DC
:104CD80000000000000000000000000000000000CC
:104CE80000000000000000001F0000001C00000081
:104CF8001F0000001E0000001F0000001E00000032
:104D08001F0000001F0000001E0000001F00000020
:104D18001E0000001F0000001F0000001D00000012
:104D28001F0000001E0000001F0000001E00000001
:104D38001F0000001F0000001E0000001F000000F0
:104D48001E0000001F000000545A00474D54002563
:104D580031305B5E302D392C2B2D5D256E004D25B5
:104D68006875256E2E256875256E2E256875256E45
:104D7800002F256875256E3A256875256E3A2568D1
:104D880075256E00611108084D1808085520080897
:104D9800192108086D220808C12408086126080896
:104DA800312B0808612B0808CD2B0808912C08081E
:084DB800152D0808992D0808CB
:044DC00000000000EF
:104DC400496E697469616C697A6500000000457216
:104DD400726F7200000000000000000049646C65FE
:104DE400000000000000000000004D656173757252
:104DF400696E6700000000005265706F7274696E1E
:104E0400670000000000526573706F6E7365205771
:104E140061697400536C656570696E670000000019
:104E240000004C6F77204261747465727900000051
:104E3400C1480808010000000000404092480808EA
:104E44009A4808089F480808A4480808A848080879
:104E5400AD480808B2480808B6480808CB4A08080C
:104E64008D4B080800000000904C0808B04C08085E
:104E7400D04C080800000000000000000000000002
:104E840000000000C8440808000000000000000002
:104E9400000000000000000000000000000000000E
:104EA40000000000000000000000000000000000FE
:104EB40000000000000000000000000000000000EE
:104EC40000000000A4040020534D0808534D0808B6
:104ED40001000000000000004A0000000000000083
:104EE40000000000000000000000000000000000BE
:104EF400000000004A000000000000000000000064
:104F0400000000000000000000000000000000009D
:044F1400340D002038
:104F1800FFFFFFFF00000102030405060708090A56
:104F28000B0C0D0E0F101112131415161718191A51
:084F38001B1C1D1E1F20280098
:044F40007856341259
:0400000508080018CF
:00000001FF
