:020000040808EA
:1000000000000808404E0808000006000A0005012C
:0800100004024E040000000090
:100018003843080809480A4908B5884205D0094AFA
:10002800824202D0121A03F087FC0748074A0021CF
:10003800121A03F08CFC064808BD00BF000400201B
:10004800C44C08085405002054050020300D002039
:10005800300D002070B502F01FFC074B074C1E4600
:10006800E41AA4080025A54204D056F8253098477C
:100078000135F8E770BD00BF804C0808B44C08088B
:1000880000F094BE08B500F099FCBDE8084002F005
:10009800C5BB01F0A9BA01F0AFBA0078B0FA80F098
:1000A80040097047012303707047000008B50449F0
:1000B80002F031F918B1034B03221A70012008BD70
:1000C800B8470808D105002001F082B801F088B8C7
:1000D80037B505469DF8184023438DF800303C237A
:1000E80001F078FD284603B030BD000030B58FB070
:1000F800134904A801F024FB04A801F07CFB114D6E
:10010800114C286004A801F0D5FB206004A801F078
:10011800B9FB0E4B2D68186002F07AFFCDE9020199
:10012800206802F075FFCDE90001094B094A53F830
:1001380025304021084801F07FFA0FB030BD00BFDC
:10014800F4060020B4050020040600204006002024
:100158007C0400208C4308084806002007B564206A
:1001680002F027F803F062F8684B186002F050FFBD
:10017800674ACDE900011021664801F05DFA642064
:1001880002F017F803F052F8634B186002F040FFD2
:100198005F4ACDE900011021604801F04DFA642062
:1001A80002F007F803F042F85D4B186002F030FFE8
:1001B800574ACDE9000110215A4801F03DFA642060
:1001C80001F0F7FF03F032F8574B186002F020FFF8
:1001D8004F4ACDE900011021544801F02DFA64205E
:1001E80001F0E7FF03F022F8514B186002F010FF0E
:1001F800474ACDE9000110214E4801F01DFA64205C
:1002080001F0D7FF03F012F84B4B186002F000FF23
:100218003F4ACDE900011021484801F00DFA4FF49A
:100228007A7001F0C6FF464A034610211060454A1D
:10023800454801F001FA642001F0BBFF02F0F6FF27
:10024800424B186002F0E4FE414ACDE9000110215A
:10025800404801F0F1F9642001F0ABFF02F0E6FF3D
:100268003D4B186002F0D4FE294ACDE90001102167
:100278003A4801F0E1F9642001F09BFF02F0D6FF53
:10028800374B186002F0C4FE314ACDE90001102155
:10029800344801F0D1F9642001F08BFF02F0C6FF69
:1002A800314B186002F0B4FE194ACDE90001102163
:1002B8002E4801F0C1F9642001F07BFF02F0B6FF7F
:1002C8002B4B186002F0A4FE214ACDE90001102151
:1002D800284801F0B1F9284B4FF081421A60274BAA
:1002E8000022CDE900231021094A254801F0A4F98C
:1002F800244B00221146586801F03EF908B1FFF777
:10030800F5FE012003B05DF804FB00BF28060020BD
:10031800A5430808800500202C060020A005002021
:1003280020060020C105002034060020D905002041
:10033800380600200806002024060020700500204A
:10034800BC050020AE430808F0050020EC0500209D
:10035800B6430808E406002090050020B8060020EF
:10036800DC06002059050020D4050020A006002046
:10037800B805002090060020B406002000001040B8
:10038800C8060020F40600202DE9D0431A480023AF
:100398001A461946406801F0F7F840F2E73601F0CE
:1003A8008BF84FF496740027002000F031FF804648
:1003B8004FF00009002000F02BFFB0EB080061EBC4
:1003C80009018F4208BF864205D301F085F810B9AC
:1003D80001F06AF8EEE701F07FF818B1BDE8D04304
:1003E80001F07AB800F0DCFE044B186001F05CF80C
:1003F800013CF3D0D8E700BFF40600200C0C002025
:1004080008B501F061F8064800231A461946406805
:1004180001F0C2F84FF47A7001F026F9012008BD06
:10042800F406002008B500F0BBFE044B1B68C01A98
:10043800B0F57A7F34BF0020012008BDE006002017
:1004480008B5FFF7EFFF18B1BDE80840FFF7EABFAE
:1004580001F02AF8F5E7000037B501F035F800F0AB
:100468009FFE43F69725044601F036F840B100F0A8
:1004780097FE001BA84203D8642001F0F5F8F3E7C3
:100488000021094B47F23052084600F059FE4FF45C
:100498007A7001F0E9F8054B0A221B6801216846C9
:1004A80001F06CFF03B030BDBE43080830060020E1
:1004B80038B5046805467CB16368013B63605BB985
:1004C800236820469B689847A368013BA3601BB933
:1004D80023682046DB689847284638BD00B5444B5A
:1004E800ADF5257D1B682193424B1B682093424B39
:1004F800186802F08DFDCDE91E01404B186802F026
:1005080087FDCDE91C013E4B1B681A933D4B1868CB
:1005180002F07EFDCDE918013B4B186802F078FD2A
:10052800CDE91601394B186802F072FDCDE91401C6
:10053800374B186802F06CFDCDE91201354B18688D
:1005480002F066FDCDE91001334B186802F060FD3A
:10055800CDE90E01314B1B680C93314B186802F042
:1005680057FDCDE90A012F4B186802F051FDCDE97E
:1005780008012D4B186802F04BFDCDE906012B4B05
:10058800186802F045FDCDE90401294B186802F00E
:100598003FFDCDE90201274B186802F039FD264AD4
:1005A800CDE900014FF4007124A801F045F8234B70
:1005B800002223491B7822A88DF8002024AAFFF7DF
:1005C80087FD23A8FFF774FF01F0A2FF1D4B1870E9
:1005D80001F0B2FF1C4B012218701C4B1A7000F07E
:1005E800DFFD1B4B18600DF5257D5DF804FB00BF92
:1005F80000060020180600204006002004060020FF
:10060800B4050020B4060020B8050020D405002059
:10061800DC06002090050020EC050020BC05002029
:10062800240600203806002034060020200600207A
:100638002C06002028060020CB430808940500203B
:10064800344508081C060020D80500207404002042
:100658006C050020F0B585B0084602AF0E4603F0E1
:100668000EFA00F1080323F007036D46ADEB030D06
:1006780002AC421C3146204603F01EFA9DF8086081
:100688004EB900F029FF00283BD0204B204A1B78A8
:100698008DF800602EE0204603F044F8C8380128A1
:1006A8001FD800F019FF60B1184B00221B7838469C
:1006B8008DF800201749184AFFF70AFD381DFFF783
:1006C800F7FE00F06DFD154B186002F073F901F0AC
:1006D80018FFC1B20520FFF7F9FC114B00221A7070
:1006E8000FE000F0F9FE60B1084B00221B788DF88E
:1006F8000020224638460B49FFF7EAFC381DFFF771
:10070800D7FEAD460C37BD46F0BD00BF94050020AE
:10071800474508086E4508085C450808E0060020BB
:10072800740400204F45080830B5224985B00546B5
:1007380001F0F1FD0446C0B11F4B01241C7002F00A
:1007480039F90420FFF7C0FC1C4D40F00800287060
:1007580002F030F929780420FFF7B8FC184B002282
:100768001B788DF80020174A1AE01749284601F02F
:10077800D2FDE8B1104B114D1C7002F01BF904209A
:10078800FFF7A2FC20F00800287002F013F929787E
:100798000420FFF79BFC0A4B0C4A1B788DF800409D
:1007A8000B4902A8FFF794FC03A8FFF781FE01207C
:1007B80005B030BDB8470808C0050020D80600209D
:1007C80094050020744508088545080887450808E9
:1007D8009745080870B5CCB00A2205A9006803F04F
:1007E80005FAC5B205F10C03DBB2182B3DD844B2AB
:1007F800204602F01BFD01F025FE02F0DBF8294639
:100808000320FFF763FC01F07CFE194E194D2346C7
:100818003060194A4FF4807100240CA800F00CFFD6
:100828002B780CAA154908A88DF80040FFF750FC52
:1008380009A8FFF73DFE4FF47A7000F015FF316804
:1008480008A801F01BFE089B0C490393039A2B7818
:1008580006A88DF80040FFF73BFC07A8FFF728FE25
:1008680008A801F0E4FC012000E000204CB070BDB5
:100878009C050020940500209C450808B045080800
:100888007FB52649054601F046FD28B92449284682
:1008980001F041FD00283FD002F08CF80420FFF75A
:1008A80013FC204C1D492070284601F034FD0646F3
:1008B800A0B11D4B00221B781C498DF8002002A80E
:1008C8001B4AFFF705FC03A8FFF7F2FD2378012276
:1008D80043F001032370174B1A7016E0104928469D
:1008E80001F019FD88B1104B134A1B780F4902A873
:1008F8008DF80060FFF7ECFB03A8FFF7D9FD23781C
:1009080003F07E0323700B4B1E7002F053F8042093
:100918002178FFF7DBFB012004B070BDB847080859
:1009280085450808D8060020940500209745080842
:10093800B54508083C060020BF45080830B5184DE5
:1009480018492A780E2303FB0212174C8FB020781F
:10095800009203FB0013154A282104A800F06CFE3E
:100968002B78237000F0B8FD90B1FFF769FD104BAC
:1009780000221B780F498DF8002002A804AAFFF76F
:10098800A7FB03A8FFF794FD00F00AFC0A4B1860C8
:1009980001F0A4FE04A901F0B2FB0FB030BD00BF06
:1009A800D105002000040020B0050020D14508082A
:1009B80094050020DF450808E00600207FB5974C25
:1009C8002378013B062B00F2D381DFE813F05901AD
:1009D800070030005C007400A700EB00904B1B7808
:1009E8002BB1904B1B78022B01D0FFF7A7FF8E4B42
:1009F8001B784BB100F0D4FB8C4B1B68C01A8C4B96
:100A08001B68984200F2B18101F082FD894B1B7886
:100A180098421CBF03232370874B1968874B1868BB
:100A280002F000FE002800F0A381072329E07C4B98
:100A38001A781D462AB17B4B1B78032B01D0FFF790
:100A48007DFFFFF78BFB0646D0B9012323702B7877
:100A5800002B00F08D81FFF7F3FC00F03DFD58B14D
:100A6800774B02A81B78774A8DF800607649FFF724
:100A78002FFB03A8FFF71CFD00F092FB734B2EE041
:100A88000423237074E1664B1B782BB1654B1B78EC
:100A9800042B01D0FFF752FF00F01EFD00283BD0C9
:100AA80001F036FD0C2802D1002000F035FDFFF7DB
:100AB80015FD0523E5E75A4B1B782BB1594B1B78DD
:100AC800052B01D0FFF73AFF614B1B784BB9022386
:100AD8002370604A564B1A6000F062FB534B186053
:100AE80046E100F05DFB5C4B1B68C01A4AF6C87310
:100AF800984240F23D8100F053FB584B00221860A9
:100B08004F4B02A81B7856498DF80020554AFFF72D
:100B1800DFFA03A8FFF7CCFC0123B2E7404B1A78B1
:100B28001C462AB13F4B1B78062B01D0FFF706FF66
:100B38004D4B1D781E465DBB00F0CEFCC8B1237836
:100B48008BB1FFF77DFC3E4B484A1B783E4902A813
:100B58008DF80050FFF7BCFA03A8FFF7A9FC00F0D6
:100B68001FFB3A4B18604FF47A7000F07DFDFFF7D9
:100B780047FC01F01FFF3E4B02201978FFF7A6FA49
:100B88003C4B00210720197001F0E7FE0123337068
:100B980001F0C8FC384BC0F13C003C221B684243C2
:100BA800022136E01E4B1A781C462AB11D4B1B78D1
:100BB800072B01D0FFF7C2FE00F08EFCD0B12378DE
:100BC80093B1FFF73DFC1E4B00221B781E498DF8A0
:100BD800002002A8294AFFF77BFA03A8FFF768FC60
:100BE80000F0DEFA194B18604FF47A7000F03CFD03
:100BF800FFF706FC1F4B00210720197001F0ADFE1E
:100C080001F090FC3C22C0F13C001B4B42431B68A6
:100C1800012102A801F0B2FBAAE000BFD105002023
:100C2800C0050020B00500203C0600204406002036
:100C3800880600201C06002078040020B406002046
:100C480094050020F04508086E450808E0060020D5
:100C580074040020905F01006C0500208C060020C1
:100C68000A460808CA430808580500202346080809
:100C780018060020B006002030060020324608087A
:100C88003C4B1B782BB13C4B1B78012B01D0FFF759
:100C980055FE00F085FA394B1B6803F5EA433033FB
:100CA800984265D9364B1B68032B16DC00F014FC00
:100CB80060B1344B00221B7802A88DF8002032491D
:100CC800324AFFF705FA03A8FFF7F2FB4FF4FA6080
:100CD80000F0CAFC01F04EFB4AE001F012FC0446A9
:100CE80001F068FE0520FFF7EFF9201AB0F5E15F83
:100CF8001EDD00F0F1FB60B1224B00221B7802A838
:100D08008DF800202049224AFFF7E2F903A8FFF7EF
:100D1800CFFB4FF4FA6000F0A7FC01F04BFE002176
:100D28000220FFF7D3F90121042001F016FE1FE08D
:100D380000F0D2FB60B1134B00221B7802A88DF89B
:100D480000201149134AFFF7C3F903A8FFF7B0FBC6
:100D58004FF4FA6000F088FC01F02CFE002102201C
:100D6800FFF7B4F9FFF778FB02E0062323704BE6A0
:100D780004B070BDC0050020B00500208C0600201E
:100D880018060020940500206E4508084946080802
:100D98005D460808774608080023042200F074BB63
:100DA8000246014800F0F6BD711908082DE9F04126
:100DB800B8B008AA16469A4B03F1100514461868ED
:100DC8005968083303C4AB422246F7D119889B7887
:100DD8002D22A37021800DF133000021914F02F0E4
:100DE800B6FD0225012107203D7001F0A5FD002177
:100DF800052001F0A1FD0121062001F09DFD002143
:100E0800112001F099FD0121042001F095FD04A8AD
:100E1800002400F069FB00237D2218A904A801F032
:100E28008CFA2346224680490194009418A800F0C1
:100E38006BFB7E497E48FFF7AFFF23462A467D4974
:100E48007D4800F021FB7D492346042209687C483F
:100E580000F01AFB7B497C48FFF79EFF23460122DE
:100E68007A497B4800F010FB7A497B48FFF794FFEA
:100E78007A497B48FFF790FF7A497B48FFF78CFF58
:100E88007A497B48FFF788FF7A497B48FFF784FF58
:100E98007A497B48FFF780FF7A497B48FFF77CFF58
:100EA8007A497B48FFF778FF7A497B48FFF774FF58
:100EB8007A497B48FFF774FF7A497B48FFF770FF50
:100EC8007A497B48FFF76CFF7A497B48FFF768FF50
:100ED80001F070FD2046FFF7F7F8012819D101F05D
:100EE80069FD0220FFF7F0F8524C002220601146FD
:100EF80002A8029200F044F9029B142B1ED1236829
:100F08000133236001F056FD21780220FFF7DEF857
:100F180014E001F04FFD0125042202A920460295A4
:100F280000F066F901F046FD2846042202A90135C1
:100F3800029400F05DF90A2DF4D1D0E72368052B5F
:100F480007DD01F037FD04210220FFF7BFF8FFF7A6
:100F580083FA01F02FFD0320FFF7B6F800F10C0328
:100F6800DBB2182B03D840B202F060F900E0002091
:100F780001F068FA01F01EFD0420FFF7A5F8DFF87C
:100F88005881324C4D4D00F0010388F80000C0F341
:100F9800C00023702870FFF7E1F8052001F0F6FC87
:100FA80068B998F80030207023F0010388F8003001
:100FB80001F000FD042198F80000FFF787F8404B86
:100FC8001968404B186802F02DFB10B107233B70DD
:100FD80008E0FFF7D9F928B901233B4930463B70AF
:100FE80002F02AFD00F078FA08B12B784BB900F02E
:100FF800D7F8364B186004A801F019F938B0BDE8E5
:10100800F081334B00221B7802A88DF8002031496B
:101018003246FFF75DF803A8FFF74AFAE7E700BF93
:101028004C430808D10500205D0608084806002042
:1010380096460808180600209D46080870040020F7
:10104800A8460808C8060020B04608083C06002044
:10105800BB46080859050020C8460808B8060020FD
:10106800D4460808E4060020DD460808800500206C
:10107800E6460808A0050020F4460808C105002037
:1010880002470808D905002010470808080600206C
:101098001E470808700500202C470808B5000808F6
:1010A8003A47080889080808464708083107080821
:1010B80053470808DD07080860470808C0050020EE
:1010C80078040020B40600206C470808E0060020D9
:1010D800940500207E470808D806002038B50D4B37
:1010E80000241C600C4B01251D7000F099F84FF688
:1010F800FF720A4B02201C705C809A8000F078F91D
:101108002146284600F08CF92946BDE838400420DD
:1011180000F026B83006002094050020960500202F
:1011280008B5024B1B68DB6B019308BD200006085D
:1011380008B5024B1B685B6C019308BD20000608CC
:1011480008B5024B1B689B6C019308BD200006087C
:1011580008B5024B1B681B6B019308BDD00104083E
:1011680008B5024B1B685B6E019308BDB801040803
:1011780008B5024B1B689B6E019308BDB8010408B3
:1011880008B5024B1B68DB6E019308BDB801040863
:1011980008B5024B1B685B68019308BD9C010408F5
:1011A80008B5024B1B685B69019308BD9C010408E4
:1011B80008B5024B1B68DB69019308BD9C01040854
:1011C80008B5024B1B689B6A019308BD9C01040883
:1011D80008B5024B1B68DB6A019308BD9C01040833
:1011E80008B5024B1B681B6B019308BD9C010408E2
:1011F80008B5024B1B689B6C019308BD9C01040851
:1012080008B5024B1B689B6D019308BD9C0104083F
:1012180008B5024B1B68DB6D019308BD9C010408EF
:1012280008B5024B1B681B68019308BDB001040890
:1012380008B5024B1B689B68019308BDB001040800
:1012480008B5024B1B68DB68019308BDB0010408B0
:1012580008B5024B1B681B69019308BDB00104085F
:1012680008B5024B1B685B69019308BDB00104080F
:1012780008B5024B1B681B6A019308BDAC01040842
:1012880008B5024B1B685B6A019308BDAC010408F2
:1012980008B5024B1B689B6A019308BDAC010408A2
:1012A80008B5024B1B68DB6A019308BDAC01040852
:1012B80008B5024B1B681B6B019308BDAC01040801
:1012C80008B5024B1B685B6B019308BDAC010408B1
:1012D80008B5024B1B681B6C019308BDAC010408E0
:1012E80008B5024B1B68DB69019308BDB40104080B
:1012F80008B5024B1B681B6A019308BDB4010408BA
:1013080008B5024B1B689B69019308BDC40104081A
:1013180008B5024B1B685B6A019308BDC401040849
:1013280008B5024B1B689B6A019308BDC4010408F9
:1013380008B5024B1B68DB6A019308BDC4010408A9
:1013480008B5024B1B681B6B019308BDC401040858
:1013580008B5024B1B685B6B019308BDC401040808
:1013680008B5024B1B689B6B019308BDC4010408B8
:1013780008B5024B1B681B6C019308BDC401040827
:1013880008B5024B1B681B68019308BD1C000608C2
:1013980008B5024B1B681B69019308BD1C000608B1
:1013A80008B5024B1B685B69019308BD1C00060861
:1013B80008B5024B1B689B69019308BD1C00060811
:1013C80008B5024B1B68DB69019308BD1C000608C1
:1013D80008B5024B1B681B6A019308BD1C00060870
:1013E80008B5024B1B681B68019308BDA4010408DB
:1013F80008B5024B1B685B68019308BDA40104088B
:1014080008B5024B1B685B69019308BDA401040879
:1014180008B5024B1B689B69019308BDA401040829
:1014280008B5024B1B68DB6A019308BDA4010408D8
:1014380008B5024B1B68DB6C019308BDA4010408C6
:1014480008B5024B1B685B6D019308BDA401040835
:1014580008B5024B1B689B6D019308BDA4010408E5
:1014680008B5034B1B68D3F89030019308BD000002
:10147800A401040808B5034B1B68D3F89C300193FA
:1014880008BD0000A401040808B5024B1B681B68CE
:10149800019308BDCC01040808B5024B1B685B68C2
:1014A800019308BDCC01040808B5024B1B689B6872
:1014B800019308BDCC01040808B5024B1B68DB6822
:1014C800019308BDCC01040808B5024B1B681B69D1
:1014D800019308BDCC01040808B5024B1B685B6981
:1014E800019308BDCC01040808B5024B1B68DB69F1
:1014F800019308BDCC01040808B5024B1B681B6AA0
:10150800019308BDCC01040808B5024B1B685B6A4F
:10151800019308BDCC01040808B5024B1B68DB6ABF
:10152800019308BDCC01040808B5024B1B681B6B6E
:10153800019308BDCC01040808B5024B1B68DB6B9E
:10154800019308BDCC01040808B5024B1B685B6811
:10155800019308BDC801040808B5024B1B689B68C5
:10156800019308BDC801040808B5024B1B68DB6875
:10157800019308BDC801040808B5024B1B681B6924
:10158800019308BDC801040808B5024B1B685B69D4
:10159800019308BDC801040808B5024B1B689B6984
:1015A800019308BDC801040808B5024B1B68DB6934
:1015B800019308BDC801040808B5024B1B681B6AE3
:1015C800019308BDC801040808B5024B1B681B6BD2
:1015D800019308BDC801040808B5024B1B685B6B82
:1015E800019308BDC801040808B5024B1B681B68B5
:1015F800019308BDA001040808B5024B1B685B688D
:10160800019308BDA001040808B5024B1B689B683C
:10161800019308BDA001040808B5024B1B681B69AB
:10162800019308BDA001040808B5024B1B689B691B
:10163800019308BDA001040808B5024B1B68DB69CB
:10164800019308BDA001040808B5024B1B68DB6ABA
:10165800019308BDA001040808B5024B1B681B6B69
:10166800019308BDA00104080021FFF7C9BE10B509
:10167800836804460BB901F01CFAC3689847A3684D
:101688001BB103222146204698472046BDE810405A
:10169800FEF701BD002211464068FFF76DBF2DE936
:1016A800FF41002604AC054610468846174644F814
:1016B800046D02F0E4F9009681B2D8F804302246AD
:1016C8003846FFF72DFD20B13146284600F058FC7A
:1016D80003E02146284600F04BFC284604B0BDE84C
:1016E800F081002211464068FFF766BF00221146CC
:1016F8004068FFF771BF00224068FFF765BF00220E
:1017080081F001014068FFF74FBF00231A461946D0
:101718004068FFF741BF00231A4619464068FFF7A3
:1017280033BF002211464068FFF716BF002202218E
:101738004068FFF719BF00231A464068FFF704BF47
:10174800F0B50F461A4B002503601826283389B0D8
:1017580043608560C560324629460446103002F071
:10176800F6F82A4629467868FFF706FF08B9A06008
:101778001BE02946324602A80095019502F0E7F8D9
:1017880002A96846ADF80860FFF7D2FC10B1012342
:10179800A3600AE0009B019AA360E2600BB90223F0
:1017A800A36002A9204600F09DF8204609B0F0BDCC
:1017B800F847080838B50C4C28252A460021204649
:1017C80002F0C5F84FF0FF3363602580074C04230F
:1017D80020466360064B2C2540F8083B2A4600212A
:1017E80002F0B5F8258138BD28070020F40600204E
:1017F800C44708087047007D7047000008B5037D9E
:101808001BB18069B0F1004F01D1002008BD01F083
:101818000DFD024901F012FE08BD00BF0000C842DC
:1018280008B5037D1BB1006AB0F1004F01D100205B
:1018380008BD01F0FBFC024901F000FE08BD00BF35
:101848000000C84270B50D4606460A22816828463F
:1018580000F0ADFC2C210446284600F041FC0A2289
:101868000444F168284600F0A2FC204470BDA0F1B1
:101878000400FFF7E7BF10B50446FEF70CFC20464E
:1018880010BD000008B5037D5BB1406A002808DB85
:1018980001F0CCFC044901F0D1FD044901F01AFD26
:1018A80008BD034808BD00BF00FF7F470000C842CD
:1018B800000080BF08B5037D5BB1C069002808DB64
:1018C80001F0B4FC044901F0B9FD044901F002FD3E
:1018D80008BD034808BD00BF00FF7F470000C8429D
:1018E800000080BF30B50D4600F110040FCD0FC4C5
:1018F80095E8030084E80300012030BD704700200C
:10190800704710B50446FEF7C6FB204610BD08B563
:1019180008B1FFF7F6FF08BD10B58368044613B198
:10192800032201469847204610BD38B5C468D4B193
:101938002378022B02D1E068FFF75EFE65682DB1BF
:101948002846FFF7E9FF2846FEF7A5FBA5682DB155
:101958002846FFF7E1FF2846FEF79DFB2046BDE835
:101968003840FEF798BB38BD10B588B004466846C5
:1019780000F0A4FC694604A800F0C2FC04A8A04733
:10198800044604A800F053FC684600F050FC2046CA
:1019980008B010BDF0B507460E46154685B01024B0
:1019A80022460021684601F0D2FF0022694610460F
:1019B800ADF80040029703960195FFF76DFD05B05D
:1019C800F0BD13B5044691E8050000234B600B6099
:1019D8002060626001A801930093FEF769FD20462C
:1019E80002B010BD0B68036013B15A6801325A6027
:1019F8007047F7B50C4606460F4654F8043B02AD4F
:101A080045F8083D214601A8FFF7ECFF2946304676
:101A1800FFF7D7FF01A8FEF74BFD2046FEF748FD6C
:101A28003846FEF738FB304603B0F0BD13B50B4619
:101A3800044603C88DE8030093E8030084E8030024
:101A48009DE8030083E8030002B010BD826810B56A
:101A58000AB901F02EF8C368BDE81040184708B568
:101A6800006800F11001FFF7F1FF08BD826810B5AA
:101A78000AB901F01EF8C368BDE81040184708B558
:101A8800006800F11001FFF7F1FF08BD38B5002329
:101A980083608B6804460D462BB102229847EB6899
:101AA800E360AB68A360204638BD00002DE9F04133
:101AB8004FF69C7304684FF0020086B0B1F9042019
:101AC8008B8000230F688DF800300B60D4E84F1F1F
:101AD800994203D1C4E8450F002DF7D102D08DF803
:101AE80000106BE014F10C051CBFE7602282BFF305
:101AF8005F8F18BF1F4601236370BFF35F8F04F128
:101B08000803002053E8006F43E80002002AF9D1D7
:101B1800BFF35F8F002E51D0FFF78AFC20B1294612
:101B28003046FFF793FF43E031466846FFF7AEFFC4
:101B3800E068B4F9105008B101F086FF0490102055
:101B4800ADF81450FEF7A5FA054630B34FF000087B
:101B5800C0F808801820FEF79CFA0446C0B1C0F807
:101B6800088001466846FFF761FF029BA268A360F0
:101B7800039B0292E268E360BDF814300392A382EB
:101B88004FF69C73ADF81430049BCDF81080236198
:101B98000D4B2C60EB600D4BAB600498FFF72CFDF0
:101BA8006846FFF7B9FE002229460948FFF748FCB6
:101BB8003046FFF7B1FE3046FEF76DFA3846FFF7BC
:101BC8001BFD06B0BDE8F081671A0808C51C0808A7
:101BD800771608082DE9F04F8BB007AD4FF0000BD2
:101BE8000646994614200C230F4690469DF850A0AF
:101BF800C5F804B0C5F808B00793FEF74AFA0446DA
:101C080038B180F800B080F801B0C0F804B0C0F86E
:101C180008B00023102003940493FEF73AFA28B181
:101C2800012343608360234BC4600360224B04900C
:101C380008200893FEF72DFA044628B1039B04A94F
:101C480040F8043BFFF7CEFE00955FFA8AF34A4658
:101C5800414638460994FFF74FFCB8B9039B5B78B7
:101C680003F0FF0293B94FF69C7305A903A80592E8
:101C7800ADF81830FFF71AFF0598FFF7BDFC05A867
:101C88000999FFF7B6FE06A8FEF712FC039B04A904
:101C980006A80593FFF7A6FE05A93046FFF791FEB3
:101CA80006A8FEF705FC04A8FEF702FC30460BB0B8
:101CB800BDE8F08F2C4808082D1E0808022AF8B540
:101CC800044606D0032A17D0012A20D10B680360E6
:101CD8001DE018200E68FEF7DCF9054650B13146C4
:101CE800FFF7D4FE3069B6F9147008B101F0ACFE04
:101CF8002861AF8225600AE0046844B12069FFF7D3
:101D08007BFC2046FFF708FE2046FEF7C4F90020BA
:101D1800F8BD38B5002383608B6804460D462BB1A7
:101D280002229847EB68E360AB68A360204638BDA1
:101D3800022A70B5044606D0032A11D0012A17D109
:101D48000B68036014E014200E68FEF7A2F905463C
:101D580020B13146FFF7DDFF337C2B74256007E0A7
:101D680004682CB12046FFF7D7FD2046FEF793F90B
:101D7800002070BDF0B50C46BFF35F8F87B000231D
:101D880050E8006F40E80032002AF9D1BFF35F8FB6
:101D9800002E3ED01846FFF74BFB074620B12146E0
:101DA8003046FFF763FE2EE0314601A8FFF7B1FF8A
:101DB800237810208DF81430FEF76BF90546D0B162
:101DC80087601420FEF765F9044678B187600146FC
:101DD80001A8FFF72BFE039BA268A360049B039254
:101DE800E268E3609DF81430049223740A4B2C6077
:101DF800EB600A4BAB6001A8FFF78EFD0022294675
:101E08000748FFF71DFB3046FFF786FD3046FEF713
:101E180042F907B0F0BD00BF871A0808391D080845
:101E28007716080830B5044685B00D466846114651
:101E3800FFF7DFFD7CB124B228460DB101F004FEA6
:101E4800029002A96846ADF80C40FFF72FFE0298F1
:101E5800FFF7D2FB1DE04FF0010200988DF8084013
:101E6800D0E84F3FA34203D1C0E8412F0029F7D162
:101E780002D08DF808300CE010F10C014FF001038E
:101E880018BF0373BFF35F8F043000F8033CFFF7FC
:101E980071FF01A8FEF70CFB05B030BD7047F8B51F
:101EA800064615460C468F18BC4206D0336814F80F
:101EB800011B9B6830469847F6E72846F8BD002284
:101EC800007CFFF7D5B90021007CFFF7D9B90021C4
:101ED800007CFFF7DDB90021007CFFF7E1B90021A4
:101EE800007CFFF7E5B910B50446FEF7D4F82046A4
:101EF80010BD000010B5044608464FF47A73A3607D
:101F0800044B0021207461602360FFF7E1F920464B
:101F180010BD00BF484808080021007CFFF7D0B971
:101F2800704710B50446FEF7B6F8204610BDF8B560
:101F38000F4600F10806051D002416F8011D0A22A7
:101F4800384600F010F9AE42044407D0002CF4D013
:101F58002E21384600F0C4F80444EEE72046F8BDC8
:101F6800024A026000224260704700BF70480808B9
:101F7800024A02600A684260704700BF7048080859
:101F8800014A4160026070477048080810B59DF822
:101F9800084044EA032343EA024242EA01614160FD
:101FA80010BD000037B5044D05609DF81850009528
:101FB800FFF7ECFF03B030BD70480808014A024B38
:101FC8001A607047314908085007002000231A4654
:101FD8004068FFF7B9BA002202214068FFF7C4BA87
:101FE800002211464068FFF7B7BA00221146406840
:101FF800FFF7C2BA00231A4619464068FFF7C4BA69
:1020080000231A4619464068FFF7C6BA002281F035
:1020180001014068FFF7C8BA00224068FFF7D4BA48
:10202800002211464068FFF7D7BA002211464068DF
:10203800FFF7C2BAF0B5174687B0054604A8FFF700
:102048008FFF002606AC384644F80C6D01F017FDEA
:102058000A4B009681B25B6822463846FFF760F863
:1020680020B131462846FFF78BFF03E0214628467A
:10207800FFF77EFF284607B0F0BD00BFF40600203A
:10208800024B034A1A6000225A6070475407002026
:1020980064490808F8B506460D468F180024BD4265
:1020A8000CD0336815F8011B9B6830469847002808
:1020B80001DB0444F3E7002C08BF04462046F8BDC2
:1020C80070B505460C46084649B101F0D8FC2B68A6
:1020D800024621462846BDE87040DB68184770BDB7
:1020E80003689B68184738B50D210546FFF7F8FFC8
:1020F8000A2104462846FFF7F3FF204438BD38B5C7
:102108000546FFF7DDFF04462846FFF7ECFF2044AD
:1021180038BD012A98BF0A2230B50B468BB0002182
:102128008DF824100DF12304B3FBF2F505FB1233EF
:10213800DBB2092B94BF30333733DBB2214604F8C6
:1021480001392B46002DEFD1FFF7BAFF0BB030BD98
:1021580010B422B90368C9B29B6810BC1847D2B240
:1021680010BCFFF7D6BFFFF7F3BF2DE9F0410746D4
:102178000E4615462AB9BDE8F0410368C9B29B6806
:1021880018470A2A02D1002901DA04E0D2B2BDE8D0
:10219800F041FFF7BEBF2D21FFF7A2FF2A460446F4
:1021A80071423846FFF7B5FF2044BDE8F081FFF7DC
:1021B800DCBF10B5044630B101F0FAFB90FBF4F334
:1021C80003FB140010BD10BD10B50446FFF7A4FBB7
:1021D800204610BD034800238360034A034900F0EA
:1021E80063BC00BF5C07002054050020D12108080B
:1021F800704710B50446FDF74EFF204610BD00009D
:1022080070B504460E46074B0025036040F80C5F86
:10221800FEF79EFF30462671FFF762F8A56020465C
:1022280070BD00BF984908080079FFF761B810B57C
:1022380004460068FFF7E0F9204610BD10B50446D3
:10224800006808B1FFF7D8F900232360A360636032
:1022580010BD38B504460D4600680131FFF7D4F9C2
:1022680010B184E82100012038BD10B50368044688
:1022780013B143688B4207D22046FFF7EAFF20B12B
:10228800A3680BB922681370012010BD70B50E4603
:10229800114604461546FFF7E8FF18B92046FFF730
:1022A800CDFF09E02A463146A560206801F044FBCD
:1022B8002268A3680021D154204670BD38B5002398
:1022C800044603604360836003730D4639B10846D2
:1022D80001F0D5FB294602462046FFF7D7FF2046E6
:1022E80038BD884210B50B46044607D0096819B1B5
:1022F8009A68FFF7CBFF01E0FFF7A0FF204610BD6B
:1023080010B5044600230360436083600373FFF73E
:10231800E8FF204610BD08B582680B4612B919B906
:10232800012008BD11B90368187802E0006801F0BF
:1023380079FBB0FA80F0400908BD70B50E469AB135
:1023480091B185689D4202D800230B7070BD541E60
:10235800ED1AAC4228BF2C46016822461944304683
:1023680001F0AAFB0023335570BD014600228C20E2
:10237800FEF7FEBE0020FFF7F8BF000010B50446C8
:10238800084611461A460023FFF742F8064B00227A
:102398001A704FF6FF7258809A801A689B882260DC
:1023A800A380204610BD00BF6C0700204FF6FF72C7
:1023B800034B0020187058809A80FFF719B800BFA7
:1023C8006C070020F0B5144B144F1E68144B0644DC
:1023D80018683B6806449E428BB01BD00AA840F898
:1023E800286D01F0B1F90446436901AD03F26C733D
:1023F80043610FCC0FC50FCC0FC5D4F800E0094CD2
:10240800C5F800E001AD0FCD0FC40FCD0FC43E607D
:10241800C4F800E00BB0F0BDA4070020A00700201E
:102428009C0700207407002008B50020FFF77CF8FF
:1024380028B1FFF751F880F00100C0B208BD0120B3
:1024480008BD000010B50949044601F0E1F860B97B
:102458000749204601F0FAF838B90649204600F045
:1024680039FF01F0FDF8044B186010BD000040C1B1
:102478000000604100006145A407002037B50E4BFD
:1024880004461B6802A819440C4B1B68194440F801
:10249800041D01F059F901F009F9054601F0EFFAB8
:1024A8000023284400F8013C29462046FFF706FF90
:1024B800204603B030BD00BFA40700209C070020C1
:1024C80010B50020FEF79CFE044668B9FEF788FFA9
:1024D80001280BD12046FEF7BBFF38B9FFF7A4FF50
:1024E80030B9FEF7E1FFF9E7012010BD002010BD6B
:1024F800FFF79AFF0020FEF783FE003018BF012087
:1025080010BD08B5FFF7DCFFBDE80840FEF750BE78
:1025180008B5FFF7F6FFFFF755FF014B986808BDB0
:102528007407002008B5FFF7ECFFFFF74BFF014BDE
:10253800586808BD7407002008B5FFF7E2FFFFF7E9
:1025480041FF014BD86808BD74070020024B1A6888
:10255800024B1A60704700BF9C04002098070020B7
:10256800704741747047007CFEF702BF007CFEF79D
:10257800D7BE007CFEF7E4BE007CFEF7D9BE007C27
:10258800FEF7E6BE10B50446FDF785FD204610BDF2
:1025980070B5457C04460E4625B9007CFEF7E8FE7A
:1025A800002805DD3146207CBDE87040FEF7B0BE4E
:1025B800284670BD10B504460846114600226260E0
:1025C8004FF47A72A260054A207422600122627474
:1025D8001A46FEF795FE204610BD00BFD0490808F0
:1025E800007CFEF7BDBE000038B50C4D296811F01F
:1025F800010411D12846FDF750FD68B1084A21466B
:10260800084B0948FFF7D6FF2846FDF74BFD074A58
:102618000749054800F048FA034838BD400800203B
:1026280044080020BC070020A8070020540500200B
:10263800692508084174704770470021007CFEF73F
:10264800B7BE0121007CFEF7B3BE007CFEF7A8BE32
:10265800007CFEF79DBE38B50446007C0D46FEF7AB
:102668009FFE002801DC607C20B12946207CFEF713
:10267800A7FE012038BD007CFEF7AABE10B50446AF
:10268800FDF709FD204610BD10B504460023636020
:102698004FF47A73A360054B084623600123217425
:1026A80063741146FEF76CFE204610BD004A080808
:1026B80010B504461422002101F049F9054B2046C3
:1026C8006360054BE36040F2011323818123238279
:1026D80010BD00BF4D090020CC08002030B50E4DBC
:1026E80087B001A8FFF7E4FF296811F0010410D1B1
:1026F8002846FDF7D2FC60B101AA21460748FFF73A
:10270800C3FF2846FDF7CEFC054A0649034800F0FA
:10271800CBF9024807B030BDC8080020500A002095
:10272800540500204126080810B50446142200214B
:1027380001F00DF9054B20466360054BE36040F25C
:10274800011323818123238210BD00BF000B0020C9
:10275800680A002010B50E4C86B001A8FFF7E4FF08
:102768002368DB0710D42046FDF797FC60B101AA67
:1027780001210848FFF788FF2046FDF793FC064A29
:102788000649044800F090F9024806B010BD00BFA1
:10279800640A0020EC0A002054050020412608089D
:1027A80008B5184B33B1FFF799FF03681B699847C1
:1027B80000281EDC144B33B1FFF716FF03681B69B2
:1027C8009847002818DC114B0BB1AFF30080104B71
:1027D8000BB1AFF300800F4B0BB1AFF300800E4B82
:1027E8007BB1FFF7B7FF03681B699847002806DC31
:1027F80008BDAFF30080DDE7AFF30080E3E7AFF398
:10280800008008BD0000000000000000000000007B
:1028180000000000000000000000000008B5FFF7FD
:10282800BFFFFEF7BDFC014B186008BD0C0C002073
:102838000248034A0349121A01F07EB800400240D8
:1028480004400240C04C080807B5002300931A460C
:102858006FF07701FEF70EFE03B05DF804FB000091
:1028680007B543880A2B08D0502B09D1094B1B68A0
:102878003BB103B05DF804EB1847FFF7E5FF06E04E
:10288800002300931A466FF07701FEF7F3FD03B0BB
:102898005DF804FB040C002038B5104C104D23687B
:1028A800AB42104B0CBF012200221A7002D0FFF776
:1028B800BFFF2560FEF76CFC044601F051F80A4B97
:1028C80013B12046AFF3008000210748FEF734FE1D
:1028D800BDE8384000210548FEF7C2BD004002406F
:1028E8001E1C279A080C0020000000006928080810
:1028F80010B504460F48FFF797FC28B1A4F10D0363
:10290800022B01D8002010BD00F068F8FFF704FB87
:1029180008B1012CF6D9FFF767FEFFF761FE18B181
:10292800A4F11203012BEDD92E2C8CBF002001201D
:1029380010BD00BF380C00202E2838B504460D46BF
:102948000AD8FF2908D0FFF7D3FF28B12946204627
:10295800BDE83840FEF76CBC38BD38B504460D46B6
:10296800FEF76EFCFF2810D0062804D84D2323FA62
:1029780000F0C30709D42046FFF7BAFF28B129465B
:102988002046BDE83840FEF763BC38BD10B50446A4
:10299800FEF756FC0438C0B2012808D92046FFF7D4
:1029A800A7FF20B12046BDE81040FEF759BC002023
:1029B80010BD000010B5074C2368DB0708D420467B
:1029C800FDF76BFB20B1FEF7FBFB2046FDF76AFB2A
:1029D800014810BD100C0020140C002038B50B4D18
:1029E800296811F001040FD12846FDF756FB58B1AC
:1029F80021460748FFF77EFA2846FDF753FB054AAC
:102A08000549034800F050F8014838BD180C00206B
:102A18001C0C002054050020A51E080813B5084CFE
:102A280000231A46194600932046FFF7BBFA2046B2
:102A3800044A054902B0BDE8104000F035B800BFAF
:102A4800300C002054050020291F080870B5114ECD
:102A5800114D124C00213046FFF7D2FB3046104E84
:102A68002A46214600F020F801213046FFF7C8FB2E
:102A780030460C4E2A46214600F016F80221304610
:102A8800FFF7BEFB2A4621463046BDE8704000F0FD
:102A98000BB800BF380C002054050020F9210808A5
:102AA800480C0020580C00200B460146184600F040
:102AB8003DBE08B5FEF7C8FD244B1A68D0075CBFB9
:102AC80001221A60224B1A68D1075CBF01221A60E2
:102AD800204B1A68D2075CBF01221A601E4B1A6885
:102AE800D0075CBF01221A601C4B1A68D1075CBF73
:102AF80001221A601A4B1A68D2075CBF01221A60B9
:102B0800184B1A68D0075CBF01221A60164B1A6866
:102B1800D1075CBF01221A60144B1A68D2075CBF48
:102B280001221A60124B1A68D0075CBF01221A6092
:102B3800104B1A68D1075CBF01221A600E4B1A6845
:102B4800D2075CBF01221A60704700BF940C0020B6
:102B5800900C00208C0C0020880C0020840C002095
:102B6800800C00207C0C0020780C0020740C0020C5
:102B7800700C00206C0C0020680C0020184B1A68A0
:102B8800D1075CBF01221A60164B1A68D2075CBFD6
:102B980001221A60144B1A68D0075CBF01221A6020
:102BA800124B1A68D1075CBF01221A60104B1A68D1
:102BB800D2075CBF01221A600E4B1A68D0075CBFAF
:102BC80001221A600C4B1A68D1075CBF01221A60F7
:102BD8000A4B1A68D2075CBF01221A60704700BF0F
:102BE800B40C0020B00C0020AC0C0020A80C002075
:102BF800A40C0020A00C00209C0C0020980C0020A5
:102C0800184B1A68D1075CBF01221A60164B1A6864
:102C1800D2075CBF01221A60144B1A68D0075CBF48
:102C280001221A60124B1A68D1075CBF01221A6090
:102C3800104B1A68D2075CBF01221A600E4B1A6843
:102C4800D0075CBF01221A600C4B1A68D1075CBF21
:102C580001221A600A4B1A68D2075CBF01221A6067
:102C6800704700BFD40C0020D00C0020CC0C0020F2
:102C7800C80C0020C40C0020C00C0020BC0C002094
:102C8800B80C0020244B1A68D0075CBF01221A60D8
:102C9800224B1A68D1075CBF01221A60204B1A68C0
:102CA800D2075CBF01221A601E4B1A68D0075CBFAE
:102CB80001221A601C4B1A68D1075CBF01221A60F6
:102CC8001A4B1A68D2075CBF01221A60184B1A689F
:102CD800D0075CBF01221A60164B1A68D1075CBF87
:102CE80001221A60144B1A68D2075CBF01221A60CD
:102CF800124B1A68D0075CBF01221A60104B1A6881
:102D0800D1075CBF01221A600E4B1A68D2075CBF5C
:102D180001221A60704700BF040D0020000D00203A
:102D2800FC0C0020F80C0020F40C0020F00C002013
:102D3800EC0C0020E80C0020E40C0020E00C002043
:102D4800DC0C0020D80C002081F0004102E000BF1C
:102D580083F0004330B54FEA41044FEA430594EA53
:102D6800050F08BF90EA020F1FBF54EA000C55EA8E
:102D7800020C7FEA645C7FEA655C00F0E2804FEA5F
:102D88005454D4EB5555B8BF6D420CDD2C4480EA41
:102D9800020281EA030382EA000083EA010180EA71
:102DA800020281EA0303362D88BF30BD11F0004FBF
:102DB8004FEA01314FF4801C4CEA113102D04042F5
:102DC80061EB410113F0004F4FEA03334CEA133330
:102DD80002D0524263EB430394EA050F00F0A78048
:102DE800A4F10104D5F1200E0DDB02FA0EFC22FA43
:102DF80005F2801841F1000103FA0EF2801843FA37
:102E080005F359410EE0A5F120050EF1200E012A27
:102E180003FA0EFC28BF4CF0020C43FA05F3C01865
:102E280051EBE37101F0004507D54FF0000EDCF1DE
:102E3800000C7EEB00006EEB0101B1F5801F1BD387
:102E4800B1F5001F0CD349085FEA30004FEA3C0C8B
:102E580004F101044FEA445212F5800F80F09A8081
:102E6800BCF1004F08BF5FEA500C50F1000041EB85
:102E7800045141EA050130BD5FEA4C0C404141EB89
:102E8800010111F4801FA4F10104E9D191F0000FB0
:102E980004BF01460020B1FA81F308BF2033A3F133
:102EA8000B03B3F120020CDA0C3208DD02F1140C2A
:102EB800C2F10C0201FA0CF021FA02F10CE002F165
:102EC8001402D8BFC2F1200C01FA02F120FA0CFC5E
:102ED800DCBF41EA0C019040E41AA2BF01EB0451A7
:102EE800294330BD6FEA04041F3C1CDA0C340EDCA5
:102EF80004F11404C4F1200220FA04F001FA02F3E8
:102F080040EA030021FA04F345EA030130BDC4F1A5
:102F18000C04C4F1200220FA02F001FA04F340EA9A
:102F28000300294630BD21FA04F0294630BD94F04B
:102F3800000F83F4801306BF81F480110134013D32
:102F48004EE77FEA645C18BF7FEA655C29D094EAA3
:102F5800050F08BF90EA020F05D054EA000C04BF21
:102F68001946104630BD91EA030F1EBF002100200C
:102F780030BD5FEA545C05D14000494128BF41F0AB
:102F8800004130BD14F580043CBF01F5801130BD0F
:102F980001F0004545F0FE4141F470014FF000009A
:102FA80030BD7FEA645C1ABF194610467FEA655C4B
:102FB8001CBF0B46024650EA013406BF52EA0335ED
:102FC80091EA030F41F4002130BD00BF90F0000FDB
:102FD80004BF0021704730B54FF4806404F1320417
:102FE8004FF000054FF0000150E700BF90F0000FD0
:102FF80004BF0021704730B54FF4806404F13204F7
:1030080010F0004548BF40424FF000013EE700BFC6
:1030180042004FEAE2014FEA31014FEA02701FBF56
:1030280012F07F4393F07F4F81F06051704792F028
:10303800000F14BF93F07F4F704730B54FF46074A2
:1030480001F0004521F0004120E700BF50EA0102ED
:1030580008BF704730B54FF000050AE050EA01029A
:1030680008BF704730B511F0004502D5404261EB0A
:1030780041014FF4806404F132045FEA915C3FF44B
:10308800DCAE4FF003025FEADC0C18BF03325FEAE4
:10309800DC0C18BF033202EBDC02C2F1200300FA99
:1030A80003FC20FA02F001FA03FE40EA0E0021FABE
:1030B80002F11444C1E600BF80F0004002E000BF06
:1030C80081F0004142001FBF5FEA410392EA030F0B
:1030D8007FEA226C7FEA236C6AD04FEA1262D2EB55
:1030E8001363C1BFD218414048404140B8BF5B425A
:1030F800192B88BF704710F0004F40F4000020F0F3
:103108007F4018BF404211F0004F41F4000121F008
:103118007F4118BF494292EA030F3FD0A2F1010252
:1031280041FA03FC10EB0C00C3F1200301FA03F190
:1031380000F0004302D5494260EB4000B0F5000FB3
:1031480013D3B0F1807F06D340084FEA310102F172
:103158000102FE2A51D2B1F1004F40EBC25008BF24
:1031680020F0010040EA03007047490040EB0000EE
:1031780010F4000FA2F10102EDD1B0FA80FCACF11D
:10318800080CB2EB0C0200FA0CF0AABF00EBC2501C
:1031980052421843BCBFD0401843704792F0000F0A
:1031A80081F4000106BF80F400000132013BB5E75D
:1031B8004FEA41037FEA226C18BF7FEA236C21D0D3
:1031C80092EA030F04D092F0000F08BF0846704738
:1031D80090EA010F1CBF0020704712F07F4F04D106
:1031E800400028BF40F00040704712F100723CBF19
:1031F80000F50000704700F0004343F0FE4040F443
:10320800000070477FEA226216BF08467FEA236300
:103218000146420206BF5FEA412390EA010F40F4EB
:10322800800070474FF0000304E000BF10F0004337
:1032380048BF40425FEA000C08BF704743F096431E
:1032480001464FF000001CE050EA010208BF704739
:103258004FF000030AE000BF50EA010208BF7047C0
:1032680011F0004302D5404261EB41015FEA010CD5
:1032780002BF84460146002043F0B64308BFA3F1CD
:103288008053A3F50003BCFA8CF2083AA3EBC253AF
:1032980010DB01FA02FC634400FA02FCC2F12002CE
:1032A800BCF1004F20FA02F243EB020008BF20F005
:1032B8000100704702F1200201FA02FCC2F120026B
:1032C80050EA4C0021FA02F243EB020008BF20EA60
:1032D800DC7070474FF0FF0C1CEAD0521EBF1CEA8E
:1032E800D15392EA0C0F93EA0C0F6FD01A4480EA7C
:1032F800010C400218BF5FEA41211ED04FF0006365
:1033080043EA501043EA5111A0FB01310CF0004090
:10331800B1F5000F3EBF490041EAD3715B0040EAB6
:10332800010062F17F02FD2A1DD8B3F1004F40EB86
:10333800C25008BF20F00100704790F0000F0CF059
:10334800004C08BF49024CEA502040EA51207F3A1D
:10335800C2BFD2F1FF0340EAC250704740F40000F8
:103368004FF00003013A5DDC12F1190FDCBF00F0E9
:1033780000407047C2F10002410021FA02F1C2F197
:10338800200200FA02FC5FEA310040F1000053EA33
:103398004C0308BF20EADC70704792F0000F00F081
:1033A800004C02BF400010F4000F013AF9D040EA87
:1033B8000C0093F0000F01F0004C02BF490011F41B
:1033C800000F013BF9D041EA0C018FE70CEAD15319
:1033D80092EA0C0F18BF93EA0C0F0AD030F0004C99
:1033E80018BF31F0004CD8D180EA010000F000404D
:1033F800704790F0000F17BF90F0004F084691F00B
:10340800000F91F0004F14D092EA0C0F01D1420244
:103418000FD193EA0C0F03D14B0218BF084608D10D
:1034280080EA010000F0004040F0FE4040F4000057
:10343800704740F0FE4040F4400070474FF0FF0CEA
:103448001CEAD0521EBF1CEAD15392EA0C0F93EA31
:103458000C0F69D0A2EB030280EA010C49024FEA83
:10346800402037D04FF0805343EA111143EA10133C
:103478000CF000408B4238BF5B0042F17D024FF4F4
:10348800000C8B4224BF5B1A40EA0C00B3EB510FCF
:1034980024BFA3EB510340EA5C00B3EB910F24BFB8
:1034A800A3EB910340EA9C00B3EBD10F24BFA3EB3D
:1034B800D10340EADC001B0118BF5FEA1C1CE0D105
:1034C800FD2A3FF650AF8B4240EBC25008BF20F0B8
:1034D800010070470CF0004C4CEA50207F32C2BF0C
:1034E800D2F1FF0340EAC250704740F400004FF0A9
:1034F8000003013A37E792F0000F00F0004C02BFDA
:10350800400010F4000F013AF9D040EA0C0093F0A3
:10351800000F01F0004C02BF490011F4000F013BFD
:10352800F9D041EA0C0195E70CEAD15392EA0C0F65
:1035380008D142027FF47DAF93EA0C0F7FF470AF9D
:10354800084676E793EA0C0F04D14B023FF44CAFE0
:1035580008466EE730F0004C18BF31F0004CCAD175
:1035680030F000427FF45CAF31F000437FF43CAFB1
:103578005FE700BF4FF0FF3C06E000BF4FF0010CD3
:1035880002E000BF4FF0010C4DF804CD4FEA4002B5
:103598004FEA41037FEA226C18BF7FEA236C11D0FF
:1035A80001B052EA530C18BF90EA010F58BFB2EBB2
:1035B800030088BFC81738BF6FEAE17018BF40F032
:1035C800010070477FEA226C02D15FEA402C05D1E6
:1035D8007FEA236CE4D15FEA412CE1D05DF8040B6B
:1035E800704700BF844608466146FFE70FB5FFF7FE
:1035F800C9FF002848BF10F1000F0FBD4DF808EDB6
:10360800FFF7F4FF0CBF012000205DF808FB00BFA6
:103618004DF808EDFFF7EAFF34BF012000205DF800
:1036280008FB00BF4DF808EDFFF7E0FF94BF01204D
:1036380000205DF808FB00BF4DF808EDFFF7D2FF4A
:1036480094BF012000205DF808FB00BF4DF808ED8D
:10365800FFF7C8FF34BF012000205DF808FB00BF5A
:103668004FEA4002B2F1FE4F0FD34FF09E03B3EB87
:1036780012620DD94FEA002343F0004310F0004FC7
:1036880023FA02F018BF404270474FF0000070471D
:1036980012F1610F01D1420205D110F0004008BFBC
:1036A8006FF0004070474FF000007047094B70B54D
:1036B8001C680646256C3DB91A20FDF795FF1A22AD
:1036C8002064294600F043F9216C3046BDE870407B
:1036D80000F002B80405002010B50C46416986B018
:1036E80001F26C71036982690491016803EB430379
:1036F8000391416802EB4202029181680191C1681D
:103708002046009104490B4404490A440449FDF742
:1037180083FF204606B010BD3D4A0808284A08081D
:10372800614A08080A22002100F060BA10B5054C69
:1037380013462CB10A4601460220AFF3008010BDA3
:10374800204610BD0000000038B5074B05461C6830
:10375800E36B1BB92420FDF747FFE063E16B2846C4
:10376800BDE8384000F002B8040500202DE9F0411A
:103778000C46804600F040FD21460746404600F0D2
:103788003FFD4669044606F26C76B30705D164220C
:1037980096FBF2F302FB13634BB94FF4C87596FB23
:1037A800F5F305FB1365B5FA85F35B0900E0012322
:1037B8005F4A302505FB032500F052FB00F052FB61
:1037C8005C4B1B68F3B17B689E4205D13968D8F819
:1037D8000030FA6941B90AE0304600F099FA002849
:1037E800F4D14FF0FF330DE0934208DB01E0934240
:1037F80007DABA6B9342ACBF0023012302E000232F
:1038080000E001232362236A3C20012B0CBFF96BE3
:10381800396A4FF4616391FBF3F603FB161393FBCC
:10382800F0F200FB123061682368891AA2681B1A3B
:10383800921B3B2B23606160A26003DD0131616054
:103848003C3B04E0002B03DA013961603C33236020
:1038580063683B2B03DD0132A2603C3B04E0002B94
:1038680003DA013AA2603C336360A368172B22DDB8
:10387800E269183B0132E261A269A3600132062ABB
:10388800C8BF0022A261E26823690132E26055F8EC
:1038980023108A4246DD01330C2B08BF6369A2EB73
:1038A8000102E26005BF013300222361226104BFE7
:1038B8006361E26136E0002B34DAE2691833013AD9
:1038C800E261A269A360013A48BF0622A261E268E8
:1038D800013AE26032BB2369013B01D423611DE058
:1038E8000B23236163695A1E12F0030F626103F20E
:1038F8006B7305D1642193FBF1F201FB12324AB9D3
:103908004FF4C87193FBF1F201FB1233B3FA83F35E
:103918005B0900E0012303F5B673E361236955F8F9
:103928002330E36000F09DFA2046BDE8F08100BF37
:10393800E44B0808240D002010B5431E0A449142A8
:1039480004D011F8014B03F8014FF8E710BD034606
:103958000244934202D003F8011BFAE770470000C3
:1039680038B5124B05461C68A36BD3B91820FDF770
:103978003BFE43F20E33A06303804AF6CD33438007
:1039880041F2342383804EF26D63C3804DF6EC63BD
:103998000381052343810B23838101220023C0E98E
:1039A8000423A36B00221D615A6138BD0405002061
:1039B800194B10B51C68A36BD3B91820FDF714FE7A
:1039C80043F20E33A06303804AF6CD33438041F2BD
:1039D800342383804EF26D63C3804DF6EC6303811C
:1039E800052343810B23838101220023C0E904239B
:1039F800A16B0A4C0B6948695C43094A02FB004009
:103A0800A3FB02230132034443F10003C1E9042369
:103A180023F0004010BD00BF040500202DF45158CC
:103A28002D7F954C10F8012B11F8013B012A28BF76
:103A38009A42F7D0D01A7047034611F8012B03F8C1
:103A4800012B002AF9D17047024B0146186800F093
:103A580003B800BF0405002070B5064608460C46AA
:103A680000F00DF8451C29463046FDF7F5FD0646E1
:103A780018B12A462146FFF75FFF304670BD03465E
:103A880013F8012B002AFBD1181A0138704730B5FA
:103A980082B1451E013915F8013F11F8014FA342C3
:103AA80006D1EC431444E04201D0002BF3D11C466C
:103AB800181B30BD104630BD034610B542B111F891
:103AC800014B013A03F8014B002CF7D11A4400E0EE
:103AD80010BD934202D003F8014BFAE710BD000075
:103AE8002DE9F0470F4680463F48D0F800903D4604
:103AF80015F8014B09EB0400407800F0080000F0CD
:103B0800FF0608B12F46F2E72D2C03D1BD1C7C78A7
:103B1800012603E02B2C04BF7C78BD1C13B1102BAD
:103B28000AD15BE0302C57D1287800F0DF00582804
:103B38004DD16C7810230235002E14BF4FF0004C85
:103B48006FF0004CBCFBF3FA0027384603FB1ACC95
:103B580009EB040E9EF801E01EF0040F01D0303C82
:103B68000BE01EF0030E1BD0BEF1010F0CBF4FF08F
:103B7800370E4FF0570ECEEB0404A34210DDB7F119
:103B8800FF3F0AD0504506D801D1644503DC03FB4A
:103B98000040012701E04FF0FF3715F8014BD7E748
:103BA8007B1C0CD1002E4FF0220314BF4FF00040B5
:103BB8006FF00040C8F800302AB9BDE8F08706B1B8
:103BC800404272B107B1691E1160BDE8F087302428
:103BD800002BB1D10823AFE70A23ADE7302CA3D0DF
:103BE800AAE7BDE8F08700BFA004002013460A46F4
:103BF800014602480068FFF773BF00BF04050020B4
:103C08002DE9F0470E4680463B48D0F800903546EF
:103C180015F8014B09EB0400407800F0080000F0AB
:103C2800FF0708B12E46F2E72D2C03D1B51C747896
:103C3800012703E02B2C04BF7478B51C13B1102B9B
:103C48000AD153E0302C4FD1287800F0DF005828F3
:103C580045D16C78102302354FF0FF3CBCFBF3FCD8
:103C680003FB0CFA00266FEA0A0A304609EB040E39
:103C78009EF801E01EF0040F01D0303C0BE01EF06E
:103C8800030E1AD0BEF1010F0CBF4FF0370E4FF0E4
:103C9800570ECEEB0404A3420FDD002E08DB60456F
:103CA80006D801D1544503DC03FB0040012601E09E
:103CB8004FF0FF3615F8014BD8E7002E07DA22231C
:103CC800C8F800304FF0FF302AB9BDE8F08707B1D7
:103CD800404272B106B1691E1160BDE8F087302418
:103CE800002BB9D10823B7E70A23B5E7302CABD0AE
:103CF800B2E7BDE8F08700BFA004002013460A46DB
:103D0800014602480068FFF77BBF00BF040500209A
:103D18002DE9F74F044600F06FFA40F2B1739C4268
:103D280040F3968040F26D156FF4F663E318A4F241
:103D3800B2729B1005FB0235A4F26D726FF063033B
:103D480092FBF3F36FF4C8622B44A5184FF4C872C2
:103D580094FBF2F795FBF2F502FB17471D44642329
:103D680094FBF3F6B7FA87FE014603FB164600F10B
:103D78003803019304F0030344604FEA5E1E009386
:103D88004FF0070C0B7A4A2B0ED14B69009AEC18AE
:103D980002B906B927B93B2BD4BF0023012300E0A1
:103DA80000232344013B3FE0442B02D14B692B44C1
:103DB8003AE0009B2BB9002E0CBFF0464FF00108EB
:103DC80000E0F046A946244B302202FB0838CC68B4
:103DD800A8F1040A0123A34204DA5AF804BF013304
:103DE800D944F8E709F1040393FBFCFBCBEBCB0ABE
:103DF800CAEB030A4B69012CB8BF0124B3EB0A0ACA
:103E08000B6904F1804403F1FF3304F1FF3448BF28
:103E18000AF1070AC3EBC30358F824405344A342EA
:103E280001DB073BFBE74B448C690C4A02FB03436D
:103E38000C6A234441F81C3F019B9942A2D1C369F3
:103E4800826B9342ACBF002301230360012000E092
:103E5800002003B0BDE8F08FE44B08088051010052
:103E680070477047014B186800F002B8040500203D
:103E78002DE9F04F8DB0074600F0BEF9B049044671
:103E8800384600F0B1F9AF4E054660B9AE4BAF4ABF
:103E98001860AF4B1860AF4B30681A605A60FDF776
:103EA800ABFB356048E1316879B93068FDF7A4FBB0
:103EB8002846FFF7E4FD411C3846FDF7CDFB30608E
:103EC80048B12946FFF7B8FD05E0FFF7ABFD00282C
:103ED80000F03281E9E72B780AAE3A2B08BF0135AA
:103EE80033469D4A9D492846FDF79EFB002840F32E
:103EF80023810A9BEF18EB5C2D2B03D101374FF080
:103F0800FF3503E02B2B08BF013701250DF1200AEF
:103F18000DF11E0B4FF000080396CDF808A001968E
:103F2800CDF800B0334607AA8D493846ADF81E8053
:103F3800ADF82080FDF778FB404540F3FD80BDF8E3
:103F48001E20BDF820303C2101FB0233BDF81C20A7
:103F58004FF4616101FB02335D437F4B25627D4D68
:103F6800DFF808922B600A9B4A461F447B49334678
:103F78003846FDF759FB404508DC2B68226A6B6020
:103F8800714B1A60724BC3F80080D5E00A9BC5F8E4
:103F98000490FD18FB5C2D2B03D101354FF0FF3742
:103FA80003E02B2B08BF013501270023ADF81C3097
:103FB800ADF81E30ADF820300A930396CDF808A06E
:103FC8000196CDF800B0334607AA65492846FDF7A3
:103FD8002BFB002804DC236AA3F56163E3630EE08E
:103FE800BDF81E20BDF820303C2101FB0233BDF88E
:103FF8001C204FF4616101FB02335F43E7632746EE
:104008000A9B4FF000091D442B782C2B08BF013563
:1040180095F80080B8F14D0F26D10DF126030293D3
:1040280009AB00930396019633460DF122024D49E0
:104038002846FDF7F9FA03287ED1BDF822104B1E59
:104048000B2B79D8BDF82420531E042B74D8BDF847
:104058002630062B70D887F80880F9603A617B61B2
:104068000A9B05EB03082AE0B8F14A0F06BF43464E
:10407800013544230A220BA928460593FFF73EFE83
:10408800DDF82C80ADF826004545059B14D14D235D
:10409800B9F1000F07D123720323E36002232361E0
:1040A800C4F814900BE084F824300B23A362012396
:1040B800E3620023236302E080B23B72786102234B
:1040C800ADF81C300023ADF81E30ADF820300A934F
:1040D80098F800302F2B0BD10396CDF808A0019645
:1040E800CDF800B0334607AA1F494046FDF79CFAB1
:1040F800BDF81E20BDF820303C2101FB0233BDF87D
:104108001C204FF4616101FB0233BB610A9D09F178
:104118000109B9F1020F454407F11C077FF474AF98
:104128006068FFF7F5FD226A074B1A60E36B9B1A7C
:10413800074A18BF012313600DB0BDE8F08F00BF18
:10414800444C0808200D0020280D0020474C080882
:10415800240D002008050020130D00204B4C0808F2
:104168006E4C08085A4C08086D4C0808080D0020C9
:104178002DE9F84F07468B46904600F0D7F8194BC3
:104188001D689A463DB15C46234613F8012B42B19F
:104198003D2A1C46F8D1384600F0C9F80020BDE891
:1041A800F88FCBEB0404A94659F8040B0028F2D089
:1041B80022465946FFF76BFC88B959F8043C1E198A
:1041C8001B5D3D2B0BD1DAF800303846ED1AAD10E7
:1041D800C8F8005000F0ABF8701CBDE8F88F4D46E9
:1041E800E1E700BF5005002007B501AAFFF7C0FFAF
:1041F80003B05DF804FB000000487047100500207C
:104208000268464BF0B592FBF3F403FB1422002A34
:10421800BCBF02F5A83202F5C0724FF4616092FB90
:10422800F0F300FB13224FF03C008B6092FBF0F39D
:1042380000FB132204F52F24ACBF04F66C2404F60B
:104248006B244B600A600723E21C92FBF3F3344DA6
:10425800C3EBC30394FBF5F5D31A48F6AC6240F2FE
:10426800B4578B612F4B304803FB0544B4FBF2F283
:10427800B4FBF7F3B4FBF0F02244D21A48F6946684
:10428800131A40F26D12B3FBF6F6B3FBF2F0B3FB70
:10429800F7F33444E31A02FB103303EB8302992447
:1042A8000232B2FBF4F25443A61C0524B6FBF4F424
:1042B8000A2A34BF02266FF0090616444FF4C87262
:1042C80002FB05055F1C012E98BF0135B3F5997FE8
:1042D800A7EB040702D3A3F5997214E0820705D16E
:1042E8006424B0FBF4F204FB12024AB94FF4C8721A
:1042F800B0FBF2F402FB1400B0FA80F2520900E0BD
:1043080001223B331A44A5F26C750023CA614D6142
:104318000E61CF600B620846F0BD00BF80510100FE
:10432800B13A02004FC5FDFFB03A0200704770472E
:104338001D0008085D000808890008088D000808A5
:1043480000000000537461727475702053756363C4
:1043580065737366756C00000000000000000000C3
:104368000000000000000000000000000000000045
:104378000000000000000000000000000000000035
:1043880000000000257320533A25322E306625257B
:104398002C20513A25322E30662525200025342E32
:1043A800316620252500256920746970730025343D
:1043B8002E316620430041542B4346554E3D31363D
:1043C8000D0A007B22536F696C6D6F697374757287
:1043D8006531223A25342E31662C2022536F696CC0
:1043E8006D6F69737475726532223A25342E3166A1
:1043F8002C2022536F696C6D6F6973747572653305
:10440800223A25342E31662C2022536F696C6D6F49
:1044180069737475726534223A25342E31662C20FE
:1044280022536F696C6D6F69737475726535223AC2
:1044380025342E31662C2022536F696C6D6F697399
:104448007475726536223A25342E31662C20225036
:10445800726563697069746174696F6E223A2025A8
:10446800692C2022536F696C74656D70223A25346B
:104478002E31662C202248756D6964697479223A58
:1044880025342E31662C202254656D706572617456
:10449800757265223A25342E31662C202250616EC1
:1044A800656C68756D6964697479223A25342E31B2
:1044B800662C202250616E656C74656D7065726142
:1044C80074757265223A25342E31662C2022426199
:1044D8007474657279223A25342E31662C20225262
:1044E8006164696F74656368223A2025692C20220B
:1044F8005369676E616C223A2025342E31662C2070
:10450800225175616C697479223A2025342E3166FE
:104518002C2022526573657473223A25692C202257
:10452800416C65727473223A25697D0043656C6C31
:10453800756C61725F4C69506F5F486F6F6B004EAE
:104548006F204461746100556269646F7473204818
:104558006F6F6B00526573706F6E73652052656381
:1045680065697665640053746174650053657420E9
:10457800566572626F7365204D6F64650030004345
:104588006C656172656420566572626F7365204D53
:104598006F64650054696D65207A6F6E65206F667B
:1045A800667365742025690054696D65004C6F77E2
:1045B80020506F776572004E6F726D616C204F707E
:1045C80065726174696F6E730046726F6D20257332
:1045D80020746F20257300537461746520547261D0
:1045E8006E736974696F6E004572726F72207461C0
:1045F8006B696E67204D6561737572656D656E7464
:104608007300737061726B2F6465766963652F73CD
:10461800657373696F6E2F656E6400476F696E67A7
:1046280020746F20536C656570004C6F7720426171
:104638007474657279202D20536C656570696E6796
:10464800004572726F72205374617465202D205278
:1046580065736574004572726F7220537461746576
:10466800202D20506F776572204379636C65004573
:1046780072726F72205374617465202D2046756CB8
:104688006C204D6F64656D205265736574005369C5
:10469800676E616C005265736574436F756E740064
:1046A80052656C656173650073746174654F664328
:1046B8006867006C6F77506F7765724D6F6465003F
:1046C80074656D70657261747572650068756D6981
:1046D8006469747900536F696C54656D7000536F29
:1046E800696C4D6F6973747572653100536F696CCD
:1046F8004D6F6973747572653200536F696C4D6FD5
:104708006973747572653300536F696C4D6F6973A3
:10471800747572653400536F696C4D6F6973747585
:1047280072653500536F696C4D6F69737475726586
:1047380036004D6561737572652D4E6F77004C6F4D
:1047480077506F7765724D6F646500566572626F5A
:1047580073652D4D6F64650053657454696D655AB2
:104768006F6E65004661696C656420746F20636FC5
:104778006E6E656374005374617274757000556E63
:104788006B6E6F776E004E6F6E65005769466900F5
:1047980047534D00554D54530043444D41004C542C
:1047A80045004945454538303231353400312E30E1
:1047B8003100000000000000000000003F1708085A
:1047C800351708082B1708089D1608081F1708082A
:1047D8001317080807170808FF160808F516080829
:1047E800EB160808A71608080000000000000000E3
:1047F800FD1708087F180808FF170808BD180808DB
:10480800051808088D180808291808084D180808F8
:10481800FCFFFFFF000000007718080800000000F8
:1048280000000000051908080B19080833190808C2
:104838001719080807190808000000000000000000
:10484800A51E0808EF1E0808C71E0808A71E0808A6
:10485800CF1E0808D71E0808DF1E0808E71E08082C
:104868000000000000000000371F0808291F080882
:104878002B1F080866006C6E00666E00636F646527
:104888000064657461696C00253031307520005D05
:1048980020002564002C200028293A2000205B00F5
:1048A800636F6465203D200064657461696C7320E2
:1048B8003D2000626175640053657269616C005542
:1048C800534253657269616C310074797065007088
:1048D8006172616D00636D6400696400686E6400F4
:1048E8007374726D0066696C74006C766C00616438
:1048F8006448616E646C65720072656D6F766548B8
:10490800616E646C657200656E756D48616E646C8D
:10491800657273004A534F4E53747265616D4C6FE4
:104928006748616E646C657200617070006E6F6ECE
:104938006500747261636500696E666F0077617205
:104948006E006572726F720070616E696300616CEF
:104958006C0000000000000000000000D51F0808DF
:10496800DF1F0808E91F0808F31F0808FD1F0808CB
:104978000920080815200808212008082920080807
:10498800332008083D20080800000000000000004F
:10499800F9210808FB210808252B3033643A253013
:1049A80032750025592D256D2D25645425483A2545
:1049B8004D3A2553257A0061736374696D6500006B
:1049C8000000000000000000692508088D2508087F
:1049D800992508089D2008087525080881250808D4
:1049E8007B250808872508086B2508086F2508080F
:1049F800000000000000000041260808852608087D
:104A08005F2608089D200808592608084326080834
:104A18004B2608087F260808532608083D2608085C
:104A280053756E4D6F6E5475655765645468754659
:104A380072695361744A616E4665624D6172417074
:104A4800724D61794A756E4A756C41756753657028
:104A58004F63744E6F76446563252E337320252E7D
:104A6800337325336420252E32643A252E32643A76
:104A7800252E32642025640A0000202020202020D2
:104A880020202028282828282020202020202020F6
:104A980020202020202020202020881010101010F6
:104AA8001010101010101010101004040404040446
:104AB8000404040410101010101010414141414129
:104AC800410101010101010101010101010101018E
:104AD800010101010110101010101042424242421F
:104AE800420202020202020202020202020202025E
:104AF8000202020202101010102000000000000044
:104B0800000000000000000000000000000000009D
:104B1800000000000000000000000000000000008D
:104B2800000000000000000000000000000000007D
:104B3800000000000000000000000000000000006D
:104B4800000000000000000000000000000000005D
:104B5800000000000000000000000000000000004D
:104B6800000000000000000000000000000000003D
:104B7800000000000000000000000000000000002D
:104B8800000000000000000000000000000000001D
:104B9800000000000000000000000000000000000D
:104BA80000000000000000000000000000000000FD
:104BB80000000000000000000000000000000000ED
:104BC80000000000000000000000000000000000DD
:104BD8000000000000000000000000001F000000AE
:104BE8001C0000001F0000001E0000001F00000045
:104BF8001E0000001F0000001F0000001E00000033
:104C08001F0000001E0000001F0000001F00000021
:104C18001D0000001F0000001E0000001F00000013
:104C28001E0000001F0000001F0000001E00000002
:104C38001F0000001E0000001F000000545A00471B
:104C48004D54002531305B5E302D392C2B2D5D25E0
:104C58006E004D256875256E2E256875256E2E25E6
:104C68006875256E002F256875256E3A25687525A7
:104C78006E3A256875256E00E5100808BD17080806
:104C8800C51F080889200808DD210808B523080879
:104C980055250808252A0808552A0808C12A080899
:104CA800852B0808092C08088D2C0808000000002E
:084CB8000000000000000000F4
:044CC00000000000F0
:104CC400496E697469616C697A6500000000457217
:104CD400726F7200000000000000000049646C65FF
:104CE400000000000000000000004D656173757253
:104CF400696E6700000000005265706F7274696E1F
:104D0400670000000000526573706F6E7365205772
:104D140061697400536C656570696E67000000001A
:104D240000004C6F77204261747465727900000052
:104D3400B547080801000000000040408647080805
:104D44008E47080893470808984708089C470808AE
:104D5400A1470808A6470808AA470808BF49080841
:104D6400814A080800000000844B0808A44B080886
:104D7400C44B080800000000000000000000000010
:104D840000000000BC430808000000000000000010
:104D9400000000000000000000000000000000000F
:104DA40000000000000000000000000000000000FF
:104DB40000000000000000000000000000000000EF
:104DC40000000000A4040020474C0808474C0808D1
:104DD40001000000000000004A0000000000000084
:104DE40000000000000000000000000000000000BF
:104DF400000000004A000000000000000000000065
:104E0400000000000000000000000000000000009E
:044E14002C0D002041
:104E1800FFFFFFFF00000102030405060708090A57
:104E28000B0C0D0E0F101112131415161718191A52
:084E38001B1C1D1E1F20280099
:044E4000785634125A
:0400000508080018CF
:00000001FF
