:020000040808EA
:1000000000000808B44F0808000006000A000501B7
:080010000402290500000000B4
:040018006044080830
:10001C0009480A4908B5884205D0094A824202D0EB
:10002C00121A03F01BFD0748074A0021121A03F0AD
:10003C0020FD064808BD00BF00000020344E080813
:10004C005801002058010020FC080020FC0800206A
:10005C0070B502F0C5FC074B074C1E46E41AA40809
:10006C000025A54204D056F8253098470135F8E70D
:10007C0070BD00BFF04D0808244E080800F0AABE61
:10008C0008B500F087FCBDE8084002F06BBC01F03D
:10009C00A7BA01F0ADBA0078B0FA80F04009704709
:1000AC00012303707047000008B5044902F06BF996
:1000BC0018B1034B03221A70012008BD61480808CF
:1000CC00A901002001F076B801F07CB837B50546DF
:1000DC009DF8184023438DF800303C2301F092FD2D
:1000EC00284603B030BD000030B58FB0124904A8CB
:1000FC0001F024FB04A801F074FB104CE06304A88D
:10010C0001F0CEFB206404A801F0B2FB606403F0A4
:10011C0011F8CDE90201206C03F00CF8CDE90001D7
:10012C00E56B074B074A53F825304021064801F090
:10013C007FFA0FB030BD00BFEC020020E4010020BC
:10014C0080000020B44408086002002073B502F05F
:10015C0056FA754B186002F063FA0F280AD007DDC7
:10016C001E2803D02D2803D1022504E0012502E02E
:10017C00032500E000256D4C00266420267002F05B
:10018C0050F803F0E5F8A06002F0D4FF684ACDE91E
:10019C0000011021674801F04BFA642002F041F88D
:1001AC0003F0D6F8E06002F0C5FF614ACDE900012A
:1001BC001021614801F03CFA642002F032F803F09F
:1001CC00C7F8206102F0B6FF594ACDE900011021B1
:1001DC005A4801F02DFA642002F023F803F0B8F825
:1001EC00606102F0A7FF524ACDE90001102154488A
:1001FC0001F01EFA642002F014F803F0A9F8A061D3
:10020C0002F098FF4A4ACDE9000110214D4801F057
:10021C000FFA642002F005F803F09AF8E06102F09E
:10022C0089FF434ACDE900011021474801F000FA4B
:10023C004FF47A7001F0F5FF444A03461021206216
:10024C00434801F0F5F9642001F0EBFF03F080F86E
:10025C00606202F06FFF3F4ACDE9000110213E4879
:10026C0001F0E6F9642001F0DCFF03F071F8A06204
:10027C0002F060FF2E4ACDE900011021374801F051
:10028C00D7F9642001F0CDFF03F062F8E06202F0D0
:10029C0051FF304ACDE900011021314801F0C8F975
:1002AC00642001F0BEFF03F053F8206302F042FF1C
:1002BC001F4ACDE9000110212A4801F0B9F9642048
:1002CC0001F0AFFF03F044F8606302F033FF214A02
:1002DC00CDE900011021244801F0AAF94FF0814327
:1002EC00A363224B0022CDE900231021104A2048A1
:1002FC0001F09EF91F4B32463146586801F038F92F
:10030C0008B1FFF7F1FE0126267002F078F9606063
:10031C0002F0E0FB6420684348220449063000F0F8
:10032C0061FF304602B070BD84010020E401002062
:10033C00CD4408087001002088010020990100209C
:10034C00B0010020D40100203D020020D644080852
:10035C00C0010020DE4408082C020020C802002046
:10036C005C010020B8020020A80200200000104010
:10037C00D8020020EC0200202DE9D0432A480023AB
:10038C001A461946406801F0FBF840F2E73601F0D6
:10039C008FF84FF496740027002000F033FF80464E
:1003AC004FF00009002000F02DFFB0EB080061EBCE
:1003BC0009018F4208BF864205D301F089F810B9B4
:1003CC0001F06EF8EEE701F083F8D0B101F080F89F
:1003DC00044628B3002000F015FF4EF65F280646B1
:1003EC0000274FF00009002000F00CFF801B61EB90
:1003FC000701894508BF80450CD302F0DFF848B9E6
:10040C000BE000F0BFFE094B186001F049F8013C0D
:10041C00DCD0C1E702F0D2F802E001F041F8E2E7EB
:10042C002046BDE8D08300BFEC020020D807002096
:10043C0008B501F045F8064800231A4619464068ED
:10044C0001F0A6F84FF47A7001F00AF9012008BD0A
:10045C00EC02002010B500F095FE064C2368C01A83
:10046C00B0F57A7F04D300F08DFE2060012010BD22
:10047C00002010BDA002002008B5FFF7EBFF18B15B
:10048C00BDE80840FFF7E6BF01F00AF8F5E7000009
:10049C0037B501F015F800F075FE43F697250446C4
:1004AC0001F016F840B100F06DFE001BA84203D815
:1004BC00642001F0D5F8F3E70021094B47F23052E4
:1004CC00084600F02FFE4FF47A7001F0C9F8054B86
:1004DC000A221B680121684601F088FF03B030BD79
:1004EC00E64408085002002038B5046805467CB183
:1004FC006368013B63605BB9236820469B6898473F
:10050C00A368013BA3601BB923682046DB689847AE
:10051C00284638BDF0B5444C444F454EADF5257DCD
:10052C00062502F0D7FA482228463F4900F052FE31
:10053C003B686435219333682093606C02F0FAFDBC
:10054C00CDE91E01206C02F0F5FDCDE91C01E36B39
:10055C001A93A06B02F0EEFDCDE91801606B02F06E
:10056C00E9FDCDE91601206B02F0E4FDCDE91401A3
:10057C00E06A02F0DFFDCDE91201A06A02F0DAFDBB
:10058C00CDE91001606A02F0D5FDCDE90E01236AB8
:10059C000C93E06902F0CEFDCDE90A01A06902F0EE
:1005AC00C9FDCDE90801606902F0C4FDCDE9060181
:1005BC00206902F0BFFDCDE90401E06802F0BAFD4C
:1005CC00CDE90201A06802F0B5FD1A4ACDE900019F
:1005DC004FF4007124A801F02BF8174B00221B7864
:1005EC0016498DF8002022A824AAFFF76FFD23A836
:1005FC00FFF77AFFFFF740FFB5F5CB7F91D101F004
:10060C00FEFF0F4C206002F065FA21780520FFF701
:10061C005BFD0C4B01221A7000F0B4FD0A4B186004
:10062C000DF5257DF0BD00BFE4010020D0010020B8
:10063C00AC010020F3440808800100205C46080847
:10064C0084010020780000206C010020F0B585B0FA
:10065C00084602AF0E4603F0A4FA00F1080323F09B
:10066C0007036D46ADEB030D02AC421C3146204630
:10067C0003F0B4FA9DF808604EB900F029FF002889
:10068C0037D01E4B1E4A1B788DF800602AE020469E
:10069C0003F0DAF8C83801281BD800F019FF60B154
:1006AC00164B00221B7838468DF800201549164A47
:1006BC00FFF70CFD381DFFF717FF02F00BFA01F0E6
:1006CC009EFFC1B20520FFF7FFFC104B00221A70F1
:1006DC000FE000F0FDFE60B1084B00221B788DF896
:1006EC000020224638460A49FFF7F0FC381DFFF778
:1006FC00FBFEAD460C37BD46F0BD00BF80010020AF
:10070C006F460808964608088446080878000020BA
:10071C007746080830B5224985B0054601F033FE0E
:10072C000446C0B11F4B01241C7002F0D3F9042005
:10073C00FFF7C8FC1C4D40F00800287002F0CAF905
:10074C0029780420FFF7C0FC184B00221B788DF889
:10075C000020174A1AE01749284601F014FEE8B1A8
:10076C00104B114D1C7002F0B5F90420FFF7AAFCD8
:10077C0020F00800287002F0ADF929780420FFF76A
:10078C00A3FC0A4B0C4A1B788DF800400B4902A8BD
:10079C00FFF79CFC03A8FFF7A7FE012005B030BDB6
:1007AC006148080898010020E80200208001002020
:1007BC009C460808AD460808AF460808BF4608081E
:1007CC0030B5CDB00A2205A9006803F0A1FAC5B274
:1007DC0005F10C03DBB2182B3BD844B2204602F0D7
:1007EC00B7FD01F0ADFE02F075F9294603201A4D54
:1007FC00FFF76AFC2346194A4FF4807100240CA8B9
:10080C0000F016FF2B780CAA154908A88DF80040AB
:10081C00FFF75CFC09A8FFF767FE4FF47A7000F055
:10082C001FFF01F0ECFE014608A801F0A5FE089B95
:10083C000B490393039A2B7806A88DF80040FFF719
:10084C0045FC07A8FFF750FE08A801F028FD012081
:10085C0000E000204DB030BD80010020C4460808E7
:10086C00D84608087FB52649054601F08CFD28B905
:10087C002449284601F087FD00283FD002F02AF9D0
:10088C000420FFF71FFC204C1D492070284601F066
:10089C007AFD0646A0B11D4B00221B781C498DF831
:1008AC00002002A81B4AFFF711FC03A8FFF71CFE4F
:1008BC002378012243F001032370174B1A7016E0C2
:1008CC001049284601F05FFD88B1104B134A1B7884
:1008DC000F4902A88DF80060FFF7F8FB03A8FFF79B
:1008EC0003FE237803F07E0323700B4B1E7002F083
:1008FC00F1F804202178FFF7E7FB012004B070BD6C
:10090C0061480808AD460808E80200208001002074
:10091C00BF460808DD4608085A020020E7460808CA
:10092C0030B5164D16492A780E2303FB0212154CCE
:10093C008FB02078009203FB0013134A282104A8DF
:10094C0000F076FE2B78237000F0C2FD70B1FFF73B
:10095C0093FD0E4B00221B7802A88DF800200C4949
:10096C0004AAFFF7B3FB03A8FFF7BEFD01F05AFF83
:10097C0004A901F0FCFB0FB030BD00BFA9010020A1
:10098C000000002082010020F946080880010020A8
:10099C0007470808F0B5954C89B02378013B062B26
:1009AC0000F2F481DFE813F08B01070039007200CC
:1009BC008D00C90054018E4B1B782BB18D4B1B78CD
:1009CC00022B01D0FFF7ACFF8B4B1B784BB100F027
:1009DC00D9FB8A4B1B68C01A894B1B68984200F2E2
:1009EC00CF8101F01DFE0F2390FBF3F3C3EB031338
:1009FC00984207D101F003FE824B1B68C01A3C28B9
:100A0C0000F3C181804B1968804B986B02F09CFEFF
:100A1C00002800F0BB81072324E0754B1A781D4693
:100A2C002AB1744B1B78032B01D0FFF779FFFFF72A
:100A3C008DFB064690B9012323702B78002B00F018
:100A4C00A581FFF719FD00F043FD002800F09E8101
:100A5C006F4B704A1B788DF800600FE001F0E0FDE1
:100A6C0010B90423237091E102232370FFF704FDD6
:100A7C00674B00221B788DF80020674A674906A84F
:100A8C00FFF724FB07A8FFF72FFD7FE1584B1B78DE
:100A9C002BB1584B1B78042B01D0FFF741FF00F012
:100AAC0017FD002847D001F0B1FD0C2805D100F04E
:100ABC000FFD10B1002000F02BFDFFF72BFD0523DF
:100ACC00D0E74B4B1B782BB14A4B1B78052B01D035
:100ADC00FFF726FF524B1D7895B946F2A812022358
:100AEC002370474B1A6000F04DFB444B1860FFF726
:100AFC00C3FC474B4B4A1B784B498DF80050BEE763
:100B0C0000F040FB494B1B68C01A4AF6C873984268
:100B1C0040F23C8100F036FB454B002218603C4B08
:100B2C0006A81B7843498DF80020434AFFF7CEFAFC
:100B3C0007A8FFF7D9FC012394E72D4B1A781D4623
:100B4C002AB12C4B1B78062B01D0FFF7E9FE3B4B4F
:100B5C001E781F463EBB00F0BBFCA8B12B786BB1D6
:100B6C00FFF78AFC2A4B06A81B78354A8DF80060E3
:100B7C002A49FFF7ABFA07A8FFF7B6FC4FF47A70D7
:100B8C0000F06EFDFFF754FC01F0A4FF2D4B02208A
:100B9C001978FFF799FA2C4B00210720197001F0F6
:100BAC0080FF01233B7001F02AFD284B01221968BC
:100BBC000623ADF8163008AB03F80B2D02914FF459
:100BCC00617190FBF1F505FB1100081A8842A8BF72
:100BDC000846009201900DF1160106A801F036FCB2
:100BEC0002232370FFF7C8FBD0E000BFA90100204F
:100BFC0098010020820100205A0200205C02002093
:100C0C0074000020840100207C000020E4010020FE
:100C1C008001002018470808324708089646080843
:100C2C00780000204F4708086E4708086C01002028
:100C3C00A402002078470808F2440808E9020020C2
:100C4C0091470808AC0100208101002050020020CF
:100C5C004F4B1A781C462AB14E4B1B78072B01D0F0
:100C6C00FFF75EFE00F034FCB0B1237873B1FFF7F0
:100C7C0003FC494B00221B7806A88DF8002047493D
:100C8C00474AFFF723FA07A8FFF72EFC4FF47A70B8
:100C9C0000F0E6FCFFF7CCFB424B0021072019705B
:100CAC0001F0FFFE01F0BCFC3F4BC0F13C003C22CC
:100CBC0042431B68012106A801F098FB66E0344B07
:100CCC001B782BB1334B1B78012B01D0FFF728FE7F
:100CDC0000F058FA354B1B6803F5EA433033984261
:100CEC0054D9334B1B68032B16DC00F0F1FB60B1BD
:100CFC00294B00221B7806A88DF8002027492D4A85
:100D0C00FFF7E4F907A8FFF7EFFB4FF4FA6000F0E8
:100D1C00A7FC01F067FB39E001F071FC044601F01F
:100D2C00D9FE0520FFF7CEF9201AB0F5E15F1CDDE6
:100D3C0000F0CEFB60B1184B00221B788DF8002020
:100D4C001D4A06A81549FFF7C1F907A8FFF7CCFB08
:100D5C004FF4FA6000F084FC01F0BCFE002102208C
:100D6C00FFF7B2F9FFF794FB10E000F0B1FB00289D
:100D7C00EED0094B00221B788DF800200F4AE0E7DB
:100D8C00062323702DE6032323703BE609B0F0BD48
:100D9C00980100208201002080010020964608085E
:100DAC00A04708088101002050020020A402002066
:100DBC00AC010020B7470808CB470808E6470808ED
:100DCC000023042200F05CBB0246014800F0F3BD96
:100DDC0097190808F0B5B9B008AA1646894B03F163
:100DEC001005144618685968083303C4AB422246F0
:100DFC00F7D119889B782D22A37021800DF1330037
:100E0C000021814D02F035FE0227012107202F70B1
:100E1C0001F036FE04A8002400F062FB00237D22C2
:100E2C0018A904A801F0C1FA234622467749019477
:100E3C00009418A800F064FB75497648FFF7C0FFD2
:100E4C0023463A467449754800F01AFB7449234608
:100E5C0004220968734800F013FB73497348FFF7C9
:100E6C00AFFF234601227249724800F009FB724918
:100E7C007248FFF7A5FF72497248FFF7A1FF72494C
:100E8C007248FFF79DFF72497248FFF799FF72494C
:100E9C007248FFF795FF72497248FFF791FF72494C
:100EAC007248FFF78DFF72497248FFF789FF72494C
:100EBC007248FFF785FF72497248FFF785FF724948
:100ECC007248FFF781FF72497248FFF77DFF724944
:100EDC007248FFF779FF01F0FDFD2046FFF7F2F8AD
:100EEC00B84219D101F0F6FD0220FFF7EBF84A4C9D
:100EFC0000222060114602A8029200F033F9029BF6
:100F0C00142B1ED123680133236001F0E3FD2178FB
:100F1C000220FFF7D9F814E001F0DCFD042202A94D
:100F2C002046029700F05EF9012701F0D3FD384608
:100F3C00042202A90137029400F054F9642FF4D171
:100F4C00D0E72368052B07DD01F0C4FD0421022046
:100F5C00FFF7BAF8FFF79CFA01F0BCFD0320FFF78E
:100F6C00B1F800F10C03DBB2182B03D840B202F03D
:100F7C00EFF900E0002001F0E3FA01F0ABFD0520F1
:100F8C00FFF7A0F801F0D4FA454B464C187001F06D
:100F9C00A1FD0420FFF796F8434B00F001021870F6
:100FAC00234BC0F3C0001A702070FFF7CFF83F4BF3
:100FBC0019683F4B986B02F0C7FB10B107232B70DD
:100FCC0008E0FFF7D9F928B901233A4930462B70CC
:100FDC0002F0C4FD00F07CFA08B1237823B904A810
:100FEC0001F05DF939B0F0BD334B00221B7802A83B
:100FFC008DF8002031493246FFF768F803A8FFF757
:10100C0073FAECE774440808A90100205906080893
:10101C006002002005480808AC0100200C480808B4
:10102C007000002017480808D80200201F48080844
:10103C005A0200202A4808085C010020374808089A
:10104C00C8020020434808082C0200204C4808081D
:10105C0070010020554808088801002063480808E2
:10106C009901002071480808B00100207F48080849
:10107C00D40100208D4808083D0200209B48080838
:10108C00B5000808A948080871080808B5480808F8
:10109C0021070808C2480808CD070808CF480808E7
:1010AC003C02002098010020E80200207C00002077
:1010BC00E4010020DB48080880010020ED48080806
:1010CC0038B50D4B00241C600C4B01251D7000F035
:1010DC00A1F84FF6FF720A4B02201C705C809A80BC
:1010EC0000F078F92146284600F08CF92946BDE835
:1010FC003840042000F026B8500200208001002067
:10110C005402002008B5024B1B68DB6B019308BD31
:10111C002000060808B5024B1B685B6C019308BDE8
:10112C002000060808B5024B1B689B6C019308BD98
:10113C002000060808B5024B1B681B6B019308BD09
:10114C00D001040808B5024B1B685B6E019308BD07
:10115C00B801040808B5024B1B689B6E019308BDCF
:10116C00B801040808B5024B1B68DB6E019308BD7F
:10117C00B801040808B5024B1B685B68019308BDF5
:10118C009C01040808B5024B1B685B69019308BD00
:10119C009C01040808B5024B1B68DB69019308BD70
:1011AC009C01040808B5024B1B689B6A019308BD9F
:1011BC009C01040808B5024B1B68DB6A019308BD4F
:1011CC009C01040808B5024B1B681B6B019308BDFE
:1011DC009C01040808B5024B1B685B6C019308BDAD
:1011EC009C01040808B5024B1B689B6C019308BD5D
:1011FC009C01040808B5024B1B689B6D019308BD4C
:10120C009C01040808B5024B1B68DB6D019308BDFB
:10121C009C01040808B5024B1B681B68019308BDB0
:10122C00B001040808B5024B1B689B68019308BD0C
:10123C00B001040808B5024B1B68DB68019308BDBC
:10124C00B001040808B5024B1B681B69019308BD6B
:10125C00B001040808B5024B1B681B6A019308BD5A
:10126C00AC01040808B5024B1B685B6A019308BD0E
:10127C00AC01040808B5024B1B689B6A019308BDBE
:10128C00AC01040808B5024B1B68DB6A019308BD6E
:10129C00AC01040808B5024B1B681B6B019308BD1D
:1012AC00AC01040808B5024B1B685B6B019308BDCD
:1012BC00AC01040808B5024B1B681B6C019308BDFC
:1012CC00AC01040808B5024B1B68DB69019308BD2F
:1012DC00B401040808B5024B1B681B6A019308BDD6
:1012EC00B401040808B5024B1B689B69019308BD47
:1012FC00C401040808B5024B1B685B6A019308BD66
:10130C00C401040808B5024B1B689B6A019308BD15
:10131C00C401040808B5024B1B68DB6A019308BDC5
:10132C00C401040808B5024B1B681B6B019308BD74
:10133C00C401040808B5024B1B685B6B019308BD24
:10134C00C401040808B5024B1B689B6B019308BDD4
:10135C00C401040808B5024B1B681B6C019308BD43
:10136C00C401040808B5024B1B681B68019308BD37
:10137C001C00060808B5024B1B681B69019308BDCD
:10138C001C00060808B5024B1B685B69019308BD7D
:10139C001C00060808B5024B1B689B69019308BD2D
:1013AC001C00060808B5024B1B68DB69019308BDDD
:1013BC001C00060808B5024B1B681B6A019308BD8C
:1013CC001C00060808B5024B1B681B68019308BD7E
:1013DC00A401040808B5024B1B685B68019308BDA7
:1013EC00A401040808B5024B1B685B69019308BD96
:1013FC00A401040808B5024B1B689B69019308BD46
:10140C00A401040808B5024B1B68DB6A019308BDF4
:10141C00A401040808B5024B1B68DB6C019308BDE2
:10142C00A401040808B5024B1B685B6D019308BD51
:10143C00A401040808B5024B1B689B6D019308BD01
:10144C00A401040808B5034B1B68D3F89030019332
:10145C0008BD0000A401040808B5034B1B68D3F8B1
:10146C009C30019308BD0000A401040808B5034B8F
:10147C001B68D3F8A830019308BD0000A401040830
:10148C0008B5024B1B681B68019308BDCC0104080E
:10149C0008B5024B1B685B68019308BDCC010408BE
:1014AC0008B5024B1B689B68019308BDCC0104086E
:1014BC0008B5024B1B68DB68019308BDCC0104081E
:1014CC0008B5024B1B681B69019308BDCC010408CD
:1014DC0008B5024B1B685B69019308BDCC0104087D
:1014EC0008B5024B1B68DB69019308BDCC010408ED
:1014FC0008B5024B1B681B6A019308BDCC0104089C
:10150C0008B5024B1B685B6A019308BDCC0104084B
:10151C0008B5024B1B68DB6A019308BDCC010408BB
:10152C0008B5024B1B681B6B019308BDCC0104086A
:10153C0008B5024B1B68DB6B019308BDCC0104089A
:10154C0008B5024B1B685B68019308BDC801040811
:10155C0008B5024B1B689B68019308BDC8010408C1
:10156C0008B5024B1B68DB68019308BDC801040871
:10157C0008B5024B1B681B69019308BDC801040820
:10158C0008B5024B1B685B69019308BDC8010408D0
:10159C0008B5024B1B689B69019308BDC801040880
:1015AC0008B5024B1B68DB69019308BDC801040830
:1015BC0008B5024B1B681B6A019308BDC8010408DF
:1015CC0008B5024B1B681B6B019308BDC8010408CE
:1015DC0008B5024B1B685B6B019308BDC80104087E
:1015EC0008B5024B1B681B68019308BDA0010408D9
:1015FC0008B5024B1B685B68019308BDA001040889
:10160C0008B5024B1B689B68019308BDA001040838
:10161C0008B5024B1B681B69019308BDA0010408A7
:10162C0008B5024B1B689B69019308BDA001040817
:10163C0008B5024B1B68DB69019308BDA0010408C7
:10164C0008B5024B1B68DB6A019308BDA0010408B6
:10165C0008B5024B1B681B6B019308BDA001040865
:10166C000021FFF7BFBE10B5836804460BB901F02B
:10167C00B2FAC3689847A3681BB1032221462046DF
:10168C0098472046BDE81040102101F0A2BA002274
:10169C0011464068FFF76CBF2DE9FF41002604ACF2
:1016AC00054610468846174644F8046D02F079FA50
:1016BC00009681B2D8F8043022463846FFF722FD56
:1016CC0020B13146284600F093FC03E02146284621
:1016DC0000F086FC284604B0BDE8F08100221146DB
:1016EC004068FFF765BF002211464068FFF770BFE6
:1016FC0000224068FFF764BF002281F001014068BE
:10170C00FFF74EBF00231A4619464068FFF740BF4B
:10171C0000231A4619464068FFF732BF00221146D3
:10172C004068FFF715BF002202214068FFF718BF81
:10173C0000231A464068FFF703BF0000F0B50F46C0
:10174C001A4B002503601826283389B04360856046
:10175C00C560324629460446103002F08AF92A4602
:10176C0029467868FFF704FF08B9A0601BE02946FA
:10177C00324602A80095019502F07BF902A9684651
:10178C00ADF80860FFF7C6FC10B10123A3600AE0B6
:10179C00009B019AA360E2600BB90223A36002A92B
:1017AC00204600F095F8204609B0F0BD68490808BD
:1017BC0038B5084C28252A460021204602F059F954
:1017CC004FF0FF336360044B04225A60034A2580B8
:1017DC001A6038BDF4020020EC02002034490808DD
:1017EC007047007D7047000008B5037D1BB1806910
:1017FC00B0F1004F01D1002008BD01F0A9FD024954
:10180C0001F0AEFE08BD00BF0000C84208B5037D64
:10181C001BB1006AB0F1004F01D1002008BD01F0EE
:10182C0097FD024901F09CFE08BD00BF0000C842B4
:10183C0070B50D4606460A228168284600F0EFFC7A
:10184C002C210446284600F083FC0A220444F1684B
:10185C00284600F0E4FC204470BDA0F10400FFF722
:10186C00E7BF10B50446282101F0B3F9204610BD9E
:10187C0008B5037D5BB1406A002808DB01F068FD08
:10188C00044901F06DFE044901F0B6FD08BD0348A2
:10189C0008BD00BF00FF7F470000C842000080BFAA
:1018AC0008B5037D5BB1C069002808DB01F050FD71
:1018BC00044901F055FE044901F09EFD08BD0348A2
:1018CC0008BD00BF00FF7F470000C842000080BF7A
:1018DC0030B50D4600F110040FCD0FC495E8030090
:1018EC0084E80300012030BD70470020704710B51C
:1018FC000446102101F06DF9204610BD08B508B161
:10190C00FFF7F5FF08BD10B58368044613B1032239
:10191C0001469847204610BD002202604FF69C728B
:10192C00828010B5B1F9044084808A8002680C680A
:10193C0004600A6010BD10B504460068FFF758FE3D
:10194C00204610BD38B5C468F4B12378022B03D1FE
:10195C0004F10C00FFF7EFFF656835B12846FFF77F
:10196C00D2FF1021284601F034F9A56835B128467C
:10197C00FFF7C9FF1021284601F02BF92046BDE8DE
:10198C003840142101F025B938BD10B588B0044693
:10199C00684600F0CBFC694604A800F0E9FC04A8FA
:1019AC00A047044604A800F07AFC684600F077FCD7
:1019BC00204608B010BDF0B507460E46154685B05A
:1019CC00102422460021684602F053F80022694692
:1019DC001046ADF80040029703960195FFF758FDAD
:1019EC0005B0F0BD13B5044691E8050000234B602B
:1019FC000B602060626001A801930093FEF774FDF8
:101A0C00204602B010BD0B68036013B15A68013256
:101A1C005A607047F7B50C4606460F4654F8043B1F
:101A2C0002AD45F8083D214601A8FFF7ECFF294619
:101A3C003046FFF7D7FF01A8FEF756FD2046FEF70C
:101A4C0053FD3846082101F0C4F8304603B0F0BD10
:101A5C0013B50B46044603C88DE8030093E8030056
:101A6C0084E803009DE8030083E8030002B010BD86
:101A7C0038B500230446036010200D46FEF707FB23
:101A8C0028B1012343608360024BC5600360206072
:101A9C00204638BD9C490808826810B50AB901F087
:101AAC009AF8C368BDE81040184708B5006800F103
:101ABC001001FFF7F1FF08BD826810B50AB901F0FB
:101ACC008AF8C368BDE81040184708B5006800F1F3
:101ADC001001FFF7F1FF08BD38B5002383608B6858
:101AEC0004460D462BB102229847EB68E360AB68C5
:101AFC00A360204638BD0000F0B589B00468684684
:101B0C00FFF70AFF4FF0020200238DF80830D4E8EB
:101B1C004F3F002B03D1C4E8412F0029F7D102D04D
:101B2C008DF8083063E014F10C0503D069462846A3
:101B3C00FFF7F2FEBFF35F8F01236370BFF35F8F7C
:101B4C0004F10803002053E8006F43E80002002A68
:101B5C00F9D1BFF35F8F002E49D0FFF75BFC20B1AA
:101B6C0029463046FFF798FF3AE0314602A8FFF7C6
:101B7C00B3FFE068B4F9105008B101F0F7FF06901C
:101B8C001020ADF81C50FEF782FA0546E8B100278C
:101B9C0087601820FEF77BFA044688B101468760FF
:101BAC0002A8FFF755FF049BA268A360059B049253
:101BBC00E26806A9E36004F110000592FFF7ACFEA1
:101BCC000D4B2C60EB600D4BAB6006A8FFF7B3FE22
:101BDC0002A8FFF798FE002229460948FFF722FCCD
:101BEC003046FFF790FE1021304600F0F2FF6846B9
:101BFC00FFF7A1FE09B0F0BDB71A08082D1D0808A3
:101C0C00731608082DE9F04F8BB006460F46904628
:101C1C0099469DF850A0FFF75BFC07AD834630BB9F
:101C2C004FF62E73059005A92846ADF81830FFF72E
:101C3C0073FE1420FEF72BFA044658B102230370EE
:101C4C0001234370C0F804B0C0F808B029460C302A
:101C5C00FFF762FE3046214640F8044BFFF708FFC1
:101C6C002846FFF768FE05A8FFF765FE52E0002442
:101C7C000C2314206C60AC600793FEF708FA014645
:101C8C0018B1047044704460846004A80391FFF799
:101C9C00EFFE224B08200893FEF7F9F9044628B111
:101CAC00039B04A940F8043BFFF7ADFE00955FFAD7
:101CBC008AF34A46414638460994FFF719FC20B985
:101CCC00039B5B7803F0FF0283B1039B04A906A876
:101CDC000593FFF798FE05A93046FFF783FE06A88B
:101CEC00FEF702FC04A8FEF7FFFB13E04FF69C7313
:101CFC0005A903A80592ADF81830FFF7FDFE05A85D
:101D0C00FFF719FE05A80999FFF784FE06A8FEF750
:101D1C00EBFBDAE730460BB0BDE8F08F9D1E0808F0
:101D2C00022AF8B5044606D0032A17D0012A22D17C
:101D3C000B6803601FE018200E68FEF7A8F9054633
:101D4C0050B13146FFF7C8FE3069B6F9147008B1CE
:101D5C0001F00CFF2861AF8225600CE0046854B1DF
:101D6C0004F11000FFF7E7FD2046FFF7CCFD18212A
:101D7C00204600F02EFF0020F8BD38B5002383600C
:101D8C008B6804460D462BB102229847EB68E36042
:101D9C00AB68A360204638BD022A70B5044606D055
:101DAC00032A11D0012A18D10B68036015E0142006
:101DBC000E68FEF76CF9054620B13146FFF7DDFFE2
:101DCC00337C2B74256008E0046834B12046FFF79F
:101DDC009AFD1421204600F0FCFE002070BD00008E
:101DEC00F0B50C46BFF35F8F87B0002350E8006F4F
:101DFC0040E80032002AF9D1BFF35F8F002E3FD0AC
:101E0C001846FFF707FB074620B121463046FFF77F
:101E1C0053FE2EE0314601A8FFF7AFFF23781020C8
:101E2C008DF81430FEF733F90546D0B187601420D5
:101E3C00FEF72DF9044678B18760014601A8FFF73B
:101E4C0007FE039BA268A360049B0392E268E36015
:101E5C009DF81430049223740A4B2C60EB600A4BEF
:101E6C00AB6001A8FFF74FFD002229460748FFF79A
:101E7C00D9FA3046FFF747FD1021304600F0A9FE95
:101E8C0007B0F0BDD71A0808A51D08087316080876
:101E9C0030B5044685B00D4668461146FFF7BAFDCD
:101EAC007CB124B228460DB101F060FE029002A96B
:101EBC006846ADF80C40FFF71FFE02A8FFF73BFD8C
:101ECC001DE04FF0010200988DF80840D0E84F3F1C
:101EDC00A34203D1C0E8412F0029F7D102D08DF8DD
:101EEC0008300CE010F10C014FF0010318BF037324
:101EFC00BFF35F8F043000F8033CFFF771FF01A8BC
:101F0C00FEF7F2FA05B030BD7047F8B50646154637
:101F1C000C468F18BC4206D0336814F8011B9B6822
:101F2C0030469847F6E72846F8BD0022007CFFF7BC
:101F3C0091B90021007CFFF795B90021007CFFF7D7
:101F4C0099B90021007CFFF79DB90021007CFFF7B7
:101F5C00A1B910B50446142100F03BFE204610BD7B
:101F6C0010B5044608464FF47A73A360044B002165
:101F7C00207461602360FFF79DF9204610BD00BFFF
:101F8C00B84908080021007CFFF78CB9704710B5E0
:101F9C000446082100F01DFE204610BDF8B50F4682
:101FAC0000F10806051D002416F8011D0A2238460A
:101FBC0000F011F9AE42044407D0002CF4D02E21CD
:101FCC00384600F0C5F80444EEE72046F8BD0000A2
:101FDC00024A026000224260704700BFE0490808D4
:101FEC00024A02600A684260704700BFE049080874
:101FFC00014A416002607047E049080810B59DF83D
:10200C00084044EA032343EA024242EA0161416088
:10201C0010BD000037B5044D05609DF818500095B3
:10202C00FFF7ECFF03B030BDE0490808014A024B52
:10203C001A607047A14A08081C03002000231A46A6
:10204C004068FFF77DBA002202214068FFF788BA8A
:10205C00002211464068FFF77BBA00221146406807
:10206C00FFF786BA00231A4619464068FFF788BA6C
:10207C0000231A4619464068FFF78ABA002281F0FD
:10208C0001014068FFF78CBA00224068FFF798BA4C
:10209C00002211464068FFF79BBA002211464068A7
:1020AC00FFF786BAF0B5174687B0054604A8FFF7C8
:1020BC008FFF002606AC384644F80C6D01F071FD1C
:1020CC000A4B009681B25B6822463846FFF71AF835
:1020DC0020B131462846FFF78BFF03E02146284606
:1020EC00FFF77EFF284607B0F0BD00BFEC020020D2
:1020FC00024B034A1A6000225A60704720030020EA
:10210C00D44A0808F8B506460D468F180024BD427F
:10211C000CD0336815F8011B9B6830469847002893
:10212C0001DB0444F3E7002C08BF04462046F8BD4D
:10213C0070B505460C46084649B101F032FD2B68D6
:10214C00024621462846BDE87040DB68184770BD42
:10215C0003689B68184738B50D210546FFF7F8FF53
:10216C000A2104462846FFF7F3FF204438BD38B552
:10217C000546FFF7DDFF04462846FFF7ECFF204439
:10218C0038BD012A98BF0A2230B50B468BB000210E
:10219C008DF824100DF12304B3FBF2F505FB12337B
:1021AC00DBB2092B94BF30333733DBB2214604F852
:1021BC0001392B46002DEFD1FFF7BAFF0BB030BD24
:1021CC0010B422B90368C9B29B6810BC1847D2B2CC
:1021DC0010BCFFF7D6BFFFF7F3BF2DE9F041074660
:1021EC000E4615462AB9BDE8F0410368C9B29B6892
:1021FC0018470A2A02D1002901DA04E0D2B2BDE85C
:10220C00F041FFF7BEBF2D21FFF7A2FF2A4604467F
:10221C0071423846FFF7B5FF2044BDE8F081FFF767
:10222C00DCBF10B5044630B101F054FC90FBF4F364
:10223C0003FB140010BD10BD10B50446FFF763FB83
:10224C00204610BD034800238360034A034900F075
:10225C00BBBC00BF28030020580100204522080801
:10226C00704710B50446102100F0B3FC204610BD99
:10227C0070B504460E46074B0025036040F80C5F12
:10228C00FEF758FF30462671FFF71CF8A560204674
:10229C0070BD00BF084B08080079FFF71BB810B5DC
:1022AC0004460068FFF7A4F9204610BD10B504469B
:1022BC00006808B1FFF79CF900232360A3606360FA
:1022CC0010BD38B504460D4600680131FFF798F98A
:1022DC0010B184E82100012038BD10B50368044614
:1022EC0013B143688B4207D22046FFF7EAFF20B1B7
:1022FC00A3680BB922681370012010BD70B50E468F
:10230C00114604461546FFF7E8FF18B92046FFF7BB
:10231C00CDFF09E02A463146A560206801F09EFBFE
:10232C002268A3680021D154204670BD38B5002323
:10233C00044603604360836003730D4639B108465D
:10234C0001F02FFC294602462046FFF7D7FF204616
:10235C0038BD884210B50B46044607D0096819B140
:10236C009A68FFF7CBFF01E0FFF7A0FF204610BDF6
:10237C0010B5044600230360436083600373FFF7CA
:10238C00E8FF204610BD08B582680B4612B919B992
:10239C00012008BD11B90368187802E0006801F04B
:1023AC00D3FBB0FA80F0400908BD70B50E469AB167
:1023BC0091B185689D4202D800230B7070BD541EEC
:1023CC00ED1AAC4228BF2C4601682246194430460F
:1023DC0001F004FC0023335570BD014600228C2013
:1023EC00FEF7B8BE0020FFF7F8BF000010B504469A
:1023FC00084611461A460023FEF7FCFF064B002246
:10240C001A704FF6FF7258809A801A689B88226067
:10241C00A380204610BD00BF3803002010B5002457
:10242C00047044804FF6FF740029848007DD013965
:10243C00994209D232F811308380012301E002D194
:10244C000223037010BD418010BD000070B50D4615
:10245C00164686B01A46002302930C9B0446019341
:10246C000B9B3146009328460A9BFEF7FFFF334631
:10247C002A46014604A8FFF7D1FF064B0498BDF885
:10248C001420186020469A801A689B882260A380CA
:10249C0006B070BD380300204FF6FF72034B0020CE
:1024AC00187058809A80FEF795BF00BF3803002043
:1024BC00F0B5144B144F1E68144B064418683B6857
:1024CC0006449E428BB01BD00AA840F8286D01F040
:1024DC00CDF90446436901AD03F26C7343610FCC33
:1024EC000FC50FCC0FC5D4F800E0094CC5F800E0BF
:1024FC0001AD0FCD0FC40FCD0FC43E60C4F800E08A
:10250C000BB0F0BD700300206C03002068030020AA
:10251C004003002008B50020FFF702F828B1FEF7B1
:10252C00D7FF80F00100C0B208BD012008BD00003B
:10253C0008B5FFF7BDFF014B586808BD40030020EC
:10254C0010B50949044601F0F5F860B90749204671
:10255C0001F00EF938B90649204600F04DFF01F0A4
:10256C0011F9044B186010BD000040C1000060411F
:10257C00000061457003002037B50E4B04461B6804
:10258C0002A819440C4B1B68194440F8041D01F0B7
:10259C006DF901F01DF9054601F003FB00232844F9
:1025AC0000F8013C29462046FFF7C0FE204603B048
:1025BC0030BD00BF700300206803002010B5002060
:1025CC00FEF718FE044668B9FEF7FCFE01280BD195
:1025DC002046FEF72FFF38B9FFF79CFF30B9FEF706
:1025EC005FFFF9E7012010BD002010BDFFF792FF3F
:1025FC000020FEF7FFFD003018BF012010BD08B50C
:10260C00FFF7DCFFBDE80840FEF7C4BD08B5FFF7D7
:10261C00F6FFFFF74DFF014B986808BD4003002003
:10262C0008B5FFF7ECFFFFF743FF014B586808BDF7
:10263C0040030020024B1A68024B1A60704700BF1F
:10264C00A00000206403002070474174704708B557
:10265C00007CFEF77FFE20EAE07008BD08B5007C28
:10266C00FEF750FE20EAE07008BD08B5007CFEF7CE
:10267C0059FE30EA200028BF4FF0FF3008BD08B5E6
:10268C00007CFEF747FE30EA200028BF4FF0FF30F9
:10269C0008BD007CFEF74EBE10B50446142100F0B8
:1026AC0098FA204610BD70B5457C04460E4625B9F7
:1026BC00007CFEF74FFE002805DD3146207CBDE88E
:1026CC007040FEF717BE284670BD000010B50446DA
:1026DC0008461146002262604FF47A72A260054AE5
:1026EC0020742260012262741A46FEF7FBFD20461C
:1026FC0010BD00BF404B0808007CFEF723BE000055
:10270C0038B50C4D296811F0010411D12846FDF79C
:10271C00C2FC68B1084A2146084B0948FFF7D6FFAE
:10272C002846FDF7BDFC074A0749054800F04CFA5E
:10273C00034838BD0C04002010040020880300203E
:10274C007403002058010020552608084174704776
:10275C00704708B50021007CFEF71CFE30EA200013
:10276C0028BF4FF0FF3008BD08B50121007CFEF7F3
:10277C0011FE30EA200028BF4FF0FF3008BD08B52D
:10278C00007CFEF7FFFD20EAE07008BD08B5007C78
:10279C00FEF7F0FD20EAE07008BD007CFEF70ABEF3
:1027AC0010B50446142100F014FA204610BD38B5BB
:1027BC000446007C0D46FEF7E5FD002801DC607C3C
:1027CC0028B12946207CFEF7EDFD20EAE07038BDEB
:1027DC0010B50446002363604FF47A73A360054B75
:1027EC00084623600123217463741146FEF7BAFD79
:1027FC00204610BD704B080810B504461422002169
:10280C0001F037F9054B20466360054BE36040F25D
:10281C00011323818123238210BD00BF19050020E1
:10282C009804002030B50E4D87B001A8FFF7E4FFE7
:10283C00296811F0010410D12846FDF72CFC60B179
:10284C0001AA21460748FFF7C3FF2846FDF728FCDD
:10285C00054A0649034800F0B7F9024807B030BDF5
:10286C00940400201C060020580100205D27080855
:10287C0010B504461422002101F0FBF8054B20464C
:10288C006360054BE36040F20113238181232382B3
:10289C0010BD00BFCC0600203406002010B50E4C35
:1028AC0086B001A8FFF7E4FF2368DB0710D42046AD
:1028BC00FDF7F1FB60B101AA01210848FFF788FF81
:1028CC002046FDF7EDFB064A0649044800F07CF96A
:1028DC00024806B010BD00BF30060020B80600202C
:1028EC00580100205D27080808B5184B33B1FFF7D5
:1028FC0099FF03681B69984700281EDC144B33B101
:10290C00FFF7FEFE03681B699847002818DC114B83
:10291C000BB1AFF30080104B0BB1AFF300800F4B3A
:10292C000BB1AFF300800E4B7BB1FFF7B7FF036821
:10293C001B699847002806DC08BDAFF30080DDE773
:10294C00AFF30080E3E7AFF3008008BD00000000A8
:10295C00000000000000000000000000000000006B
:10296C000000000008B5FFF7BFFFFEF70BFC014BA2
:10297C00186008BDD80700200248034A0349121A00
:10298C0001F06CB80040024004400240304E080890
:10299C0007B5002300931A466FF07701FEF75CFD34
:1029AC0003B05DF804FB000007B543880A2B08D080
:1029BC00502B09D1094B1B683BB103B05DF804EBFC
:1029CC001847FFF7E5FF06E0002300931A466FF067
:1029DC007701FEF741FD03B05DF804FBD007002042
:1029EC0038B5104C104D2368AB42104B0CBF012274
:1029FC0000221A7002D0FFF7BFFF2560FEF7BAFB6A
:102A0C00044601F03FF80A4B13B12046AFF30080A7
:102A1C0000210748FEF78CFDBDE838400021054831
:102A2C00FEF710BD004002401E1C279AD407002060
:102A3C0000000000B529080810B504460F48FFF740
:102A4C002BFC28B1A4F10D03022B01D8002010BDE2
:102A5C0000F054F8FFF796FA08B1012CF6D9FFF7FD
:102A6C004FFEFFF749FE18B1A4F11203012BEDD96B
:102A7C002E2C8CBF0020012010BD00BF04080020AC
:102A8C002E2838B504460D460AD8FF2908D0FFF782
:102A9C00D3FF28B129462046BDE83840FEF7C2BB1B
:102AAC0038BD38B504460D46FEF7C4FBFF2810D0E0
:102ABC00062804D84D2323FA00F0C30709D4204676
:102ACC00FFF7BAFF28B129462046BDE83840FEF78B
:102ADC00B9BB38BD10B5074C2368DB0708D42046BA
:102AEC00FDF7D9FA20B1FEF75DFB2046FDF7D8FAC9
:102AFC00014810BDDC070020E007002038B50B4D65
:102B0C00296811F001040FD12846FDF7C4FA58B119
:102B1C0021460748FFF724FA2846FDF7C1FA054A73
:102B2C000549034800F050F8014838BDE40700207F
:102B3C00E807002058010020151F080813B5084CA1
:102B4C0000231A46194600932046FFF763FA2046E5
:102B5C00044A054902B0BDE8104000F035B800BF8A
:102B6C00FC07002058010020991F080870B5114E71
:102B7C00114D124C00213046FFF77AFB3046104EB7
:102B8C002A46214600F020F801213046FFF770FB61
:102B9C0030460C4E2A46214600F016F802213046EB
:102BAC00FFF766FB2A4621463046BDE8704000F030
:102BBC000BB800BF04080020580100206D22080843
:102BCC0014080020240800200B460146184600F08B
:102BDC003FBEFDF75EBA08B5FEF732FD244B1A680E
:102BEC00D0075CBF01221A60224B1A68D1075CBF68
:102BFC0001221A60204B1A68D2075CBF01221A60AE
:102C0C001E4B1A68D0075CBF01221A601C4B1A6855
:102C1C00D1075CBF01221A601A4B1A68D2075CBF3D
:102C2C0001221A60184B1A68D0075CBF01221A6087
:102C3C00164B1A68D1075CBF01221A60144B1A6834
:102C4C00D2075CBF01221A60124B1A68D0075CBF16
:102C5C0001221A60104B1A68D1075CBF01221A605E
:102C6C000E4B1A68D2075CBF01221A60704700BF76
:102C7C00600800205C080020580800205408002040
:102C8C00500800204C080020480800204408002070
:102C9C00400800203C0800203808002034080020A0
:102CAC00184B1A68D1075CBF01221A60164B1A68C0
:102CBC00D2075CBF01221A60144B1A68D0075CBFA4
:102CCC0001221A60124B1A68D1075CBF01221A60EC
:102CDC00104B1A68D2075CBF01221A600E4B1A689F
:102CEC00D0075CBF01221A600C4B1A68D1075CBF7D
:102CFC0001221A600A4B1A68D2075CBF01221A60C3
:102D0C00704700BF800800207C0800207808002055
:102D1C0074080020700800206C080020680800204F
:102D2C0064080020184B1A68D1075CBF01221A6096
:102D3C00164B1A68D2075CBF01221A60144B1A6832
:102D4C00D0075CBF01221A60124B1A68D1075CBF16
:102D5C0001221A60104B1A68D2075CBF01221A605C
:102D6C000E4B1A68D0075CBF01221A600C4B1A6814
:102D7C00D1075CBF01221A600A4B1A68D2075CBFEC
:102D8C0001221A60704700BFA00800209C08002098
:102D9C009808002094080020900800208C0800203F
:102DAC008808002084080020244B1A68D0075CBFD8
:102DBC0001221A60224B1A68D1075CBF01221A60EB
:102DCC00204B1A68D2075CBF01221A601E4B1A688E
:102DDC00D0075CBF01221A601C4B1A68D1075CBF7C
:102DEC0001221A601A4B1A68D2075CBF01221A60C2
:102DFC00184B1A68D0075CBF01221A60164B1A6870
:102E0C00D1075CBF01221A60144B1A68D2075CBF51
:102E1C0001221A60124B1A68D0075CBF01221A609B
:102E2C00104B1A68D1075CBF01221A600E4B1A684E
:102E3C00D2075CBF01221A60704700BFD008002087
:102E4C00CC080020C8080020C4080020C0080020BE
:102E5C00BC080020B8080020B4080020B0080020EE
:102E6C00AC080020A8080020A408002081F0004134
:102E7C0002E000BF83F0004330B54FEA41044FEA53
:102E8C00430594EA050F08BF90EA020F1FBF54EAEE
:102E9C00000C55EA020C7FEA645C7FEA655C00F08A
:102EAC00E2804FEA5454D4EB5555B8BF6D420CDD5B
:102EBC002C4480EA020281EA030382EA000083EADE
:102ECC00010180EA020281EA0303362D88BF30BD7E
:102EDC0011F0004F4FEA01314FF4801C4CEA1131D4
:102EEC0002D0404261EB410113F0004F4FEA033333
:102EFC004CEA133302D0524263EB430394EA050FBE
:102F0C0000F0A780A4F10104D5F1200E0DDB02FA2C
:102F1C000EFC22FA05F2801841F1000103FA0EF2C0
:102F2C00801843FA05F359410EE0A5F120050EF186
:102F3C00200E012A03FA0EFC28BF4CF0020C43FAB7
:102F4C0005F3C01851EBE37101F0004507D54FF0C4
:102F5C00000EDCF1000C7EEB00006EEB0101B1F514
:102F6C00801F1BD3B1F5001F0CD349085FEA30005A
:102F7C004FEA3C0C04F101044FEA445212F5800F65
:102F8C0080F09A80BCF1004F08BF5FEA500C50F102
:102F9C00000041EB045141EA050130BD5FEA4C0CE5
:102FAC00404141EB010111F4801FA4F10104E9D16E
:102FBC0091F0000F04BF01460020B1FA81F308BF65
:102FCC002033A3F10B03B3F120020CDA0C3208DD31
:102FDC0002F1140CC2F10C0201FA0CF021FA02F10C
:102FEC000CE002F11402D8BFC2F1200C01FA02F17C
:102FFC0020FA0CFCDCBF41EA0C019040E41AA2BFA1
:10300C0001EB0451294330BD6FEA04041F3C1CDA68
:10301C000C340EDC04F11404C4F1200220FA04F088
:10302C0001FA02F340EA030021FA04F345EA030132
:10303C0030BDC4F10C04C4F1200220FA02F001FAF4
:10304C0004F340EA0300294630BD21FA04F0294676
:10305C0030BD94F0000F83F4801306BF81F480110F
:10306C000134013D4EE77FEA645C18BF7FEA655C82
:10307C0029D094EA050F08BF90EA020F05D054EA54
:10308C00000C04BF1946104630BD91EA030F1EBF59
:10309C000021002030BD5FEA545C05D1400049415D
:1030AC0028BF41F0004130BD14F580043CBF01F550
:1030BC00801130BD01F0004545F0FE4141F4700136
:1030CC004FF0000030BD7FEA645C1ABF1946104611
:1030DC007FEA655C1CBF0B46024650EA013406BF12
:1030EC0052EA033591EA030F41F4002130BD00BFD1
:1030FC0090F0000F04BF0021704730B54FF480648E
:10310C0004F132044FF000054FF0000150E700BF0E
:10311C0090F0000F04BF0021704730B54FF480646D
:10312C0004F1320410F0004548BF40424FF000015A
:10313C003EE700BF42004FEAE2014FEA31014FEA9D
:10314C0002701FBF12F07F4393F07F4F81F06051EC
:10315C00704792F0000F14BF93F07F4F704730B55B
:10316C004FF4607401F0004521F0004120E700BFEE
:10317C0050EA010208BF704730B54FF000050AE075
:10318C0050EA010208BF704730B511F0004502D576
:10319C00404261EB41014FF4806404F132045FEA78
:1031AC00915C3FF4DCAE4FF003025FEADC0C18BF1D
:1031BC0003325FEADC0C18BF033202EBDC02C2F113
:1031CC00200300FA03FC20FA02F001FA03FE40EAA5
:1031DC000E0021FA02F11444C1E600BF80F0004059
:1031EC0002E000BF81F0004142001FBF5FEA4103D3
:1031FC0092EA030F7FEA226C7FEA236C6AD04FEAD3
:10320C001262D2EB1363C1BFD21841404840414017
:10321C00B8BF5B42192B88BF704710F0004F40F4C9
:10322C00000020F07F4018BF404211F0004F41F4E5
:10323C00000121F07F4118BF494292EA030F3FD0B1
:10324C00A2F1010241FA03FC10EB0C00C3F12003C4
:10325C0001FA03F100F0004302D5494260EB400053
:10326C00B0F5000F13D3B0F1807F06D340084FEABE
:10327C00310102F10102FE2A51D2B1F1004F40EBB3
:10328C00C25008BF20F0010040EA0300704749001B
:10329C0040EB000010F4000FA2F10102EDD1B0FAE6
:1032AC0080FCACF1080CB2EB0C0200FA0CF0AABFDB
:1032BC0000EBC25052421843BCBFD0401843704779
:1032CC0092F0000F81F4000106BF80F4000001327F
:1032DC00013BB5E74FEA41037FEA226C18BF7FEA56
:1032EC00236C21D092EA030F04D092F0000F08BF98
:1032FC000846704790EA010F1CBF0020704712F07F
:10330C007F4F04D1400028BF40F00040704712F1BD
:10331C0000723CBF00F50000704700F0004343F022
:10332C00FE4040F4000070477FEA226216BF084658
:10333C007FEA23630146420206BF5FEA412390EA1B
:10334C00010F40F4800070474FF0000304E000BF11
:10335C0010F0004348BF40425FEA000C08BF7047C2
:10336C0043F0964301464FF000001CE050EA010286
:10337C0008BF70474FF000030AE000BF50EA01029B
:10338C0008BF704711F0004302D5404261EB410188
:10339C005FEA010C02BF84460146002043F0B643AD
:1033AC0008BFA3F18053A3F50003BCFA8CF2083AD2
:1033BC00A3EBC25310DB01FA02FC634400FA02FCDB
:1033CC00C2F12002BCF1004F20FA02F243EB0200E2
:1033DC0008BF20F00100704702F1200201FA02FC44
:1033EC00C2F1200250EA4C0021FA02F243EB020037
:1033FC0008BF20EADC7070474FF0FF0C1CEAD0527B
:10340C001EBF1CEAD15392EA0C0F93EA0C0F6FD03B
:10341C001A4480EA010C400218BF5FEA41211ED019
:10342C004FF0006343EA501043EA5111A0FB013105
:10343C000CF00040B1F5000F3EBF490041EAD371DA
:10344C005B0040EA010062F17F02FD2A1DD8B3F156
:10345C00004F40EBC25008BF20F00100704790F0C5
:10346C00000F0CF0004C08BF49024CEA502040EA17
:10347C0051207F3AC2BFD2F1FF0340EAC2507047DD
:10348C0040F400004FF00003013A5DDC12F1190F1B
:10349C00DCBF00F000407047C2F10002410021FA8D
:1034AC0002F1C2F1200200FA02FC5FEA310040F1A5
:1034BC00000053EA4C0308BF20EADC70704792F01E
:1034CC00000F00F0004C02BF400010F4000F013A56
:1034DC00F9D040EA0C0093F0000F01F0004C02BF51
:1034EC00490011F4000F013BF9D041EA0C018FE7C0
:1034FC000CEAD15392EA0C0F18BF93EA0C0F0AD0C6
:10350C0030F0004C18BF31F0004CD8D180EA0100EB
:10351C0000F00040704790F0000F17BF90F0004F84
:10352C00084691F0000F91F0004F14D092EA0C0F66
:10353C0001D142020FD193EA0C0F03D14B0218BFF9
:10354C00084608D180EA010000F0004040F0FE403F
:10355C0040F40000704740F0FE4040F440007047DB
:10356C004FF0FF0C1CEAD0521EBF1CEAD15392EA5A
:10357C000C0F93EA0C0F69D0A2EB030280EA010C4A
:10358C0049024FEA402037D04FF0805343EA1111E3
:10359C0043EA10130CF000408B4238BF5B0042F141
:1035AC007D024FF4000C8B4224BF5B1A40EA0C00E6
:1035BC00B3EB510F24BFA3EB510340EA5C00B3EB18
:1035CC00910F24BFA3EB910340EA9C00B3EBD10F06
:1035DC0024BFA3EBD10340EADC001B0118BF5FEA58
:1035EC001C1CE0D1FD2A3FF650AF8B4240EBC25081
:1035FC0008BF20F0010070470CF0004C4CEA502042
:10360C007F32C2BFD2F1FF0340EAC250704740F490
:10361C0000004FF00003013A37E792F0000F00F082
:10362C00004C02BF400010F4000F013AF9D040EA00
:10363C000C0093F0000F01F0004C02BF490011F494
:10364C00000F013BF9D041EA0C0195E70CEAD1538C
:10365C0092EA0C0F08D142027FF47DAF93EA0C0F73
:10366C007FF470AF084676E793EA0C0F04D14B0257
:10367C003FF44CAF08466EE730F0004C18BF31F009
:10368C00004CCAD130F000427FF45CAF31F0004303
:10369C007FF43CAF5FE700BF4FF0FF3C06E000BF9C
:1036AC004FF0010C02E000BF4FF0010C4DF804CDBF
:1036BC004FEA40024FEA41037FEA226C18BF7FEACF
:1036CC00236C11D001B052EA530C18BF90EA010FD1
:1036DC0058BFB2EB030088BFC81738BF6FEAE17060
:1036EC0018BF40F0010070477FEA226C02D15FEAFC
:1036FC00402C05D17FEA236CE4D15FEA412CE1D068
:10370C005DF8040B704700BF844608466146FFE72E
:10371C000FB5FFF7C9FF002848BF10F1000F0FBD10
:10372C004DF808EDFFF7F4FF0CBF012000205DF809
:10373C0008FB00BF4DF808EDFFF7EAFF34BF01208E
:10374C0000205DF808FB00BF4DF808EDFFF7E0FF27
:10375C0094BF012000205DF808FB00BF4DF808ED78
:10376C00FFF7D2FF94BF012000205DF808FB00BFDB
:10377C004DF808EDFFF7C8FF34BF012000205DF8BD
:10378C0008FB00BF4FEA4002B2F1FE4F0FD34FF0DF
:10379C009E03B3EB12620DD94FEA002343F00043B2
:1037AC0010F0004F23FA02F018BF404270474FF060
:1037BC000000704712F1610F01D1420205D110F0E7
:1037CC00004008BF6FF0004070474FF0000070479A
:1037DC00094B70B51C680646256C3DB91A20FDF7DF
:1037EC00FFFE1A222064294600F043F9216C304672
:1037FC00BDE8704000F002B80801002010B50C467E
:10380C00416986B001F26C710369826904910168A7
:10381C0003EB43030391416802EB4202029181687E
:10382C000191C1682046009104490B4404490A44A3
:10383C000449FDF7EDFE204606B010BDAD4B08085F
:10384C00984B0808D14B08080A22002100F060BAF6
:10385C0010B5054C13462CB10A4601460220AFF3B5
:10386C00008010BD204610BD0000000038B5074B8D
:10387C0005461C68E36B1BB92420FDF7B1FEE06321
:10388C00E16B2846BDE8384000F002B80801002082
:10389C002DE9F0410C46804600F040FD21460746DC
:1038AC00404600F03FFD4669044606F26C76B307CD
:1038BC0005D1642296FBF2F302FB13634BB94FF470
:1038CC00C87596FBF5F305FB1365B5FA85F35B0933
:1038DC0000E001235F4A302505FB032500F052FB75
:1038EC0000F052FB5C4B1B68F3B17B689E4205D128
:1038FC003968D8F80030FA6941B90AE0304600F06E
:10390C0099FA0028F4D14FF0FF330DE0934208DB15
:10391C0001E0934207DABA6B9342ACBF0023012358
:10392C0002E0002300E001232362236A3C20012BE8
:10393C000CBFF96B396A4FF4616391FBF3F603FB2F
:10394C00161393FBF0F200FB123061682368891A9E
:10395C00A2681B1A921B3B2B23606160A26003DDE3
:10396C00013161603C3B04E0002B03DA01396160FA
:10397C003C33236063683B2B03DD0132A2603C3B8C
:10398C0004E0002B03DA013AA2603C336360A368C5
:10399C00172B22DDE269183B0132E261A269A360B8
:1039AC000132062AC8BF0022A261E26823690132F3
:1039BC00E26055F823108A4246DD01330C2B08BF18
:1039CC006369A2EB0102E26005BF013300222361AF
:1039DC00226104BF6361E26136E0002B34DAE269F4
:1039EC001833013AE261A269A360013A48BF06228A
:1039FC00A261E268013AE26032BB2369013B01D467
:103A0C0023611DE00B23236163695A1E12F0030F1F
:103A1C00626103F26B7305D1642193FBF1F201FB3C
:103A2C0012324AB94FF4C87193FBF1F201FB123315
:103A3C00B3FA83F35B0900E0012303F5B673E3618A
:103A4C00236955F82330E36000F09DFA2046BDE869
:103A5C00F08100BF544D0808F008002010B5431E3B
:103A6C000A44914204D011F8014B03F8014FF8E7D6
:103A7C0010BD03460244934202D003F8011BFAE73F
:103A8C007047000038B5124B05461C68A36BD3B9C0
:103A9C001820FDF7A5FD43F20E33A06303804AF610
:103AAC00CD33438041F2342383804EF26D63C38067
:103ABC004DF6EC630381052343810B2383810122A3
:103ACC000023C0E90423A36B00221D615A6138BD99
:103ADC0008010020194B10B51C68A36BD3B9182032
:103AEC00FDF77EFD43F20E33A06303804AF6CD331F
:103AFC00438041F2342383804EF26D63C3804DF6D4
:103B0C00EC630381052343810B2383810122002372
:103B1C00C0E90423A16B0A4C0B6948695C43094A50
:103B2C0002FB0040A3FB02230132034443F10003D8
:103B3C00C1E9042323F0004010BD00BF08010020A0
:103B4C002DF451582D7F954C10F8012B11F8013B99
:103B5C00012A28BF9A42F7D0D01A7047034611F8B1
:103B6C00012B03F8012B002AF9D17047024B0146B7
:103B7C00186800F003B800BF0801002070B50646B5
:103B8C0008460C4600F00DF8451C29463046FDF75A
:103B9C005FFD064618B12A462146FFF75FFF304607
:103BAC0070BD034613F8012B002AFBD1181A0138FB
:103BBC00704730B582B1451E013915F8013F11F837
:103BCC00014FA34206D1EC431444E04201D0002B38
:103BDC00F3D11C46181B30BD104630BD034610B542
:103BEC0042B111F8014B013A03F8014B002CF7D10B
:103BFC001A4400E010BD934202D003F8014BFAE7DF
:103C0C0010BD00002DE9F0470F4680463F48D0F824
:103C1C0000903D4615F8014B09EB0400407800F08C
:103C2C00080000F0FF0608B12F46F2E72D2C03D157
:103C3C00BD1C7C78012603E02B2C04BF7C78BD1CBA
:103C4C0013B1102B0AD15BE0302C57D1287800F03F
:103C5C00DF0058284DD16C7810230235002E14BF8C
:103C6C004FF0004C6FF0004CBCFBF3FA00273846C9
:103C7C0003FB1ACC09EB040E9EF801E01EF0040FB6
:103C8C0001D0303C0BE01EF0030E1BD0BEF1010F37
:103C9C000CBF4FF0370E4FF0570ECEEB0404A3427F
:103CAC0010DDB7F1FF3F0AD0504506D801D164456D
:103CBC0003DC03FB0040012701E04FF0FF3715F850
:103CCC00014BD7E77B1C0CD1002E4FF0220314BF05
:103CDC004FF000406FF00040C8F800302AB9BDE842
:103CEC00F08706B1404272B107B1691E1160BDE8A0
:103CFC00F0873024002BB1D10823AFE70A23ADE7BE
:103D0C00302CA3D0AAE7BDE8F08700BFA4000020A8
:103D1C0013460A46014602480068FFF773BF00BF0E
:103D2C00080100202DE9F0470E4680463B48D0F8AC
:103D3C000090354615F8014B09EB0400407800F073
:103D4C00080000F0FF0708B12E46F2E72D2C03D136
:103D5C00B51C7478012703E02B2C04BF7478B51CB8
:103D6C0013B1102B0AD153E0302C4FD1287800F02E
:103D7C00DF00582845D16C78102302354FF0FF3CFA
:103D8C00BCFBF3FC03FB0CFA00266FEA0A0A304674
:103D9C0009EB040E9EF801E01EF0040F01D0303C3C
:103DAC000BE01EF0030E1AD0BEF1010F0CBF4FF04A
:103DBC00370E4FF0570ECEEB0404A3420FDD002E4E
:103DCC0008DB604506D801D1544503DC03FB0040F9
:103DDC00012601E04FF0FF3615F8014BD8E7002E15
:103DEC0007DA2223C8F800304FF0FF302AB9BDE8BB
:103DFC00F08707B1404272B106B1691E1160BDE88F
:103E0C00F0873024002BB9D10823B7E70A23B5E794
:103E1C00302CABD0B2E7BDE8F08700BFA400002087
:103E2C0013460A46014602480068FFF77BBF00BFF5
:103E3C00080100202DE9F74F044600F06FFA40F21C
:103E4C00B1739C4240F3968040F26D156FF4F663AB
:103E5C00E318A4F2B2729B1005FB0235A4F26D724A
:103E6C006FF0630392FBF3F36FF4C8622B44A51855
:103E7C004FF4C87294FBF2F795FBF2F502FB17476F
:103E8C001D44642394FBF3F6B7FA87FE014603FB4B
:103E9C00164600F13803019304F0030344604FEA23
:103EAC005E1E00934FF0070C0B7A4A2B0ED14B6918
:103EBC00009AEC1802B906B927B93B2BD4BF0023E2
:103ECC00012300E000232344013B3FE0442B02D1BB
:103EDC004B692B443AE0009B2BB9002E0CBFF046EB
:103EEC004FF0010800E0F046A946244B302202FBBB
:103EFC000838CC68A8F1040A0123A34204DA5AF862
:103F0C0004BF0133D944F8E709F1040393FBFCFB2C
:103F1C00CBEBCB0ACAEB030A4B69012CB8BF0124CB
:103F2C00B3EB0A0A0B6904F1804403F1FF3304F18B
:103F3C00FF3448BF0AF1070AC3EBC30358F8244007
:103F4C005344A34201DB073BFBE74B448C690C4A0F
:103F5C0002FB03430C6A234441F81C3F019B99422A
:103F6C00A2D1C369826B9342ACBF002301230360CF
:103F7C00012000E0002003B0BDE8F08F544D08088C
:103F8C008051010070477047014B186800F002B86F
:103F9C00080100202DE9F04F8DB0074600F0BEF966
:103FAC00B0490446384600F0B1F9AF4E054660B949
:103FBC00AE4BAF4A1860AF4B1860AF4B30681A600D
:103FCC005A60FDF715FB356048E1316879B9306806
:103FDC00FDF70EFB2846FFF7E4FD411C3846FDF7C4
:103FEC0037FB306048B12946FFF7B8FD05E0FFF715
:103FFC00ABFD002800F03281E9E72B780AAE3A2BB2
:10400C0008BF013533469D4A9D492846FDF708FBFC
:10401C00002840F323810A9BEF18EB5C2D2B03D176
:10402C0001374FF0FF3503E02B2B08BF013701257B
:10403C000DF1200A0DF11E0B4FF000080396CDF880
:10404C0008A00196CDF800B0334607AA8D49384632
:10405C00ADF81E80ADF82080FDF7E2FA404540F344
:10406C00FD80BDF81E20BDF820303C2101FB023341
:10407C00BDF81C204FF4616101FB02335D437F4BA3
:10408C0025627D4DDFF808922B600A9B4A461F443F
:10409C007B4933463846FDF7C3FA404508DC2B68AC
:1040AC00226A6B60714B1A60724BC3F80080D5E0CA
:1040BC000A9BC5F80490FD18FB5C2D2B03D1013530
:1040CC004FF0FF3703E02B2B08BF013501270023EE
:1040DC00ADF81C30ADF81E30ADF820300A930396C5
:1040EC00CDF808A00196CDF800B0334607AA654973
:1040FC002846FDF795FA002804DC236AA3F56163D2
:10410C00E3630EE0BDF81E20BDF820303C2101FB1E
:10411C000233BDF81C204FF4616101FB02335F4395
:10412C00E76327460A9B4FF000091D442B782C2B84
:10413C0008BF013595F80080B8F14D0F26D10DF16F
:10414C002603029309AB00930396019633460DF1B7
:10415C0022024D492846FDF763FA03287ED1BDF8AB
:10416C0022104B1E0B2B79D8BDF82420531E042B88
:10417C0074D8BDF82630062B70D887F80880F96003
:10418C003A617B610A9B05EB03082AE0B8F14A0F00
:10419C0006BF4346013544230A220BA92846059342
:1041AC00FFF73EFEDDF82C80ADF826004545059B5B
:1041BC0014D14D23B9F1000F07D123720323E3600F
:1041CC0002232361C4F814900BE084F824300B23F1
:1041DC00A3620123E3620023236302E080B23B72FB
:1041EC0078610223ADF81C300023ADF81E30ADF819
:1041FC0020300A9398F800302F2B0BD10396CDF872
:10420C0008A00196CDF800B0334607AA1F494046D6
:10421C00FDF706FABDF81E20BDF820303C2101FB4D
:10422C000233BDF81C204FF4616101FB0233BB610A
:10423C000A9D09F10109B9F1020F454407F11C0768
:10424C007FF474AF6068FFF7F5FD226A074B1A60C4
:10425C00E36B9B1A074A18BF012313600DB0BDE82E
:10426C00F08F00BFB44D0808EC080020F4080020C3
:10427C00B74D0808F00800200C010020DF080020D2
:10428C00BB4D0808DE4D0808CA4D0808DD4D08086E
:10429C00D40800202DE9F84F07468B46904600F0D5
:1042AC00D7F8194B1D689A463DB15C46234613F866
:1042BC00012B42B13D2A1C46F8D1384600F0C9F812
:1042CC000020BDE8F88FCBEB0404A94659F8040B89
:1042DC000028F2D022465946FFF76BFC88B959F8F2
:1042EC00043C1E191B5D3D2B0BD1DAF8003038460F
:1042FC00ED1AAD10C8F8005000F0ABF8701CBDE81A
:10430C00F88F4D46E1E700BF5401002007B501AA24
:10431C00FFF7C0FF03B05DF804FB000000487047D6
:10432C00140100200268464BF0B592FBF3F403FB3A
:10433C001422002ABCBF02F5A83202F5C0724FF459
:10434C00616092FBF0F300FB13224FF03C008B609A
:10435C0092FBF0F300FB132204F52F24ACBF04F600
:10436C006C2404F66B244B600A600723E21C92FB5E
:10437C00F3F3344DC3EBC30394FBF5F5D31A48F6B2
:10438C00AC6240F2B4578B612F4B304803FB0544B1
:10439C00B4FBF2F2B4FBF7F3B4FBF0F02244D21A04
:1043AC0048F69466131A40F26D12B3FBF6F6B3FBA3
:1043BC00F2F0B3FBF7F33444E31A02FB103303EBD4
:1043CC00830299240232B2FBF4F25443A61C052456
:1043DC00B6FBF4F40A2A34BF02266FF00906164421
:1043EC004FF4C87202FB05055F1C012E98BF013506
:1043FC00B3F5997FA7EB040702D3A3F5997214E0E8
:10440C00820705D16424B0FBF4F204FB12024AB912
:10441C004FF4C872B0FBF2F402FB1400B0FA80F255
:10442C00520900E001223B331A44A5F26C750023BB
:10443C00CA614D610E61CF600B620846F0BD00BFD2
:10444C0080510100B13A02004FC5FDFFB03A0200A5
:10445C00704770471D0008085D00080889000808AF
:10446C008D00080800000000537461727475702090
:10447C005375636365737366756C00000000000010
:10448C000000000000000000000000000000000020
:10449C000000000000000000000000000000000010
:1044AC000000000000000000257320533A25322E36
:1044BC00306625252C20513A25322E3066252520B4
:1044CC000025342E3166202525002569207469705D
:1044DC00730025342E316620430041542B4346553E
:1044EC004E3D31360D0A007B22536F696C6D6F693E
:1044FC00737475726531223A25342E31662C202264
:10450C00536F696C6D6F69737475726532223A25DD
:10451C00342E31662C2022536F696C6D6F69737465
:10452C0075726533223A25342E31662C2022536F56
:10453C00696C6D6F69737475726534223A25342E0B
:10454C0031662C2022536F696C6D6F6973747572B0
:10455C006535223A25342E31662C2022536F696C36
:10456C006D6F69737475726536223A25342E316617
:10457C002C202250726563697069746174696F6E66
:10458C00223A2025692C2022536F696C74656D705A
:10459C00223A25342E31662C202248756D696469C7
:1045AC007479223A25342E31662C202254656D7094
:1045BC0065726174757265223A25342E31662C2031
:1045CC002250616E656C68756D6964697479223A04
:1045DC0025342E31662C202250616E656C74656D0D
:1045EC007065726174757265223A25342E31662CB1
:1045FC00202242617474657279223A25342E316618
:10460C002C2022526164696F74656368223A2025FC
:10461C00692C20225369676E616C223A2025342E56
:10462C0031662C20225175616C697479223A2025EF
:10463C00342E31662C2022526573657473223A2510
:10464C00692C2022416C65727473223A25697D00B5
:10465C0043656C6C756C61725F4C69506F5F486F31
:10466C006F6B004E6F204461746100556269646F1A
:10467C00747320486F6F6B00526573706F6E736547
:10468C0020526563656976656400537461746500D6
:10469C0053657420566572626F7365204D6F646547
:1046AC00003000436C656172656420566572626F00
:1046BC007365204D6F64650054696D65207A6F6E6B
:1046CC0065206F66667365742025690054696D6595
:1046DC00004C6F7720506F776572004E6F726D6172
:1046EC006C204F7065726174696F6E730046726FE7
:1046FC006D20257320746F202573005374617465CD
:10470C00205472616E736974696F6E004572726FBA
:10471C00722074616B696E67204D6561737572658B
:10472C006D656E7473004D6561737572656D656E44
:10473C00742074616B656E20616E642073746F728B
:10474C006564004379636C6520436F6D706C6574B0
:10475C0065202D204461746120526563656976651E
:10476C0064005265706F7274696E67007370617269
:10477C006B2F6465766963652F73657373696F6EF0
:10478C002F656E6400476F696E6720746F20536CE1
:10479C00656570004C6F7720426174746572792086
:1047AC002D20536C656570696E67004572726F726F
:1047BC00205374617465202D205265736574004517
:1047CC0072726F72205374617465202D204C6F735C
:1047DC00742053657373696F6E004572726F72202B
:1047EC005374617465202D2046756C6C204D6F647C
:1047FC00656D205265736574005369676E616C005A
:10480C005265736574436F756E740052656C6561A7
:10481C0073650073746174654F66436867006C6FF1
:10482C0077506F7765724D6F64650074656D706558
:10483C007261747572650068756D6964697479006C
:10484C00536F696C54656D7000536F696C4D6F6973
:10485C0073747572653100536F696C4D6F69737445
:10486C007572653200536F696C4D6F697374757234
:10487C00653300536F696C4D6F6973747572653471
:10488C0000536F696C4D6F697374757265350053A5
:10489C006F696C4D6F69737475726536004D656127
:1048AC00737572652D4E6F77004C6F77506F77650F
:1048BC00724D6F646500566572626F73652D4D6F36
:1048CC0064650053657454696D655A6F6E65004676
:1048DC0061696C656420746F20636F6E6E656374C0
:1048EC00005374617274757000556E6B6E6F776ED9
:1048FC00004E6F6E6500576946690047534D005571
:10490C004D54530043444D41004C544500494545DA
:10491C004538303231353400312E3037000000004C
:10492C0000000000000000003D17080833170808BD
:10493C00291708089B1608081D17080811170808DE
:10494C0005170808FD160808F3160808E9160808E4
:10495C00A51608080000000000000000ED1708086C
:10496C006F180808EF170808AD180808F51708089D
:10497C007D180808191808083D180808FCFFFFFFE7
:10498C00000000006718080800000000000000008C
:10499C00F5180808FB18080851190808091908081F
:1049AC00F71808080000000000000000151F080898
:1049BC005F1F0808371F0808171F08083F1F080843
:1049CC00471F08084F1F0808571F08080000000061
:1049DC0000000000A91F0808991F08089B1F080861
:1049EC0066006C6E00666E00636F646500646574CF
:1049FC0061696C00253031307520005D2000256424
:104A0C00002C200028293A2000205B00636F64658D
:104A1C00203D200064657461696C73203D20006248
:104A2C006175640053657269616C0055534253653E
:104A3C007269616C31007479706500706172616DBE
:104A4C0000636D6400696400686E64007374726D59
:104A5C000066696C74006C766C0061646448616E0D
:104A6C00646C65720072656D6F766548616E646C1E
:104A7C00657200656E756D48616E646C657273006D
:104A8C004A534F4E53747265616D4C6F6748616E3B
:104A9C00646C657200617070006E6F6E650074728C
:104AAC0061636500696E666F007761726E00657296
:104ABC00726F720070616E696300616C6C00000053
:104ACC0000000000000000004920080853200808DE
:104ADC005D20080867200808712008087D20080858
:104AEC0089200808952008089D200808A720080898
:104AFC00B120080800000000000000006D2208082A
:104B0C006F220808252B3033643A25303275002586
:104B1C00592D256D2D25645425483A254D3A25539C
:104B2C00257A0061736374696D65000000000000F4
:104B3C000000000055260808A5260808B32608081A
:104B4C0011210808692608088B260808772608080A
:104B5C009F260808572608085B2608080000000056
:104B6C00000000005D270808AD270808BB270808CF
:104B7C0011210808992708085F27080875270808D5
:104B8C00A72708088B2708085927080853756E4D66
:104B9C006F6E5475655765645468754672695361D8
:104BAC00744A616E4665624D61724170724D6179F5
:104BBC004A756E4A756C4175675365704F63744ED8
:104BCC006F76446563252E337320252E337325337E
:104BDC006420252E32643A252E32643A252E326416
:104BEC002025640A000020202020202020202028BE
:104BFC002828282820202020202020202020202089
:104C0C0020202020202088101010101010101010C0
:104C1C001010101010100404040404040404040400
:104C2C00101010101010104141414141410101017F
:104C3C000101010101010101010101010101010158
:104C4C000110101010101042424242424202020265
:104C5C000202020202020202020202020202020228
:104C6C0002101010102000000000000000000000D6
:104C7C000000000000000000000000000000000028
:104C8C000000000000000000000000000000000018
:104C9C000000000000000000000000000000000008
:104CAC0000000000000000000000000000000000F8
:104CBC0000000000000000000000000000000000E8
:104CCC0000000000000000000000000000000000D8
:104CDC0000000000000000000000000000000000C8
:104CEC0000000000000000000000000000000000B8
:104CFC0000000000000000000000000000000000A8
:104D0C000000000000000000000000000000000097
:104D1C000000000000000000000000000000000087
:104D2C000000000000000000000000000000000077
:104D3C000000000000000000000000000000000067
:104D4C0000000000000000001F0000001C0000001C
:104D5C001F0000001E0000001F0000001E000000CD
:104D6C001F0000001F0000001E0000001F000000BC
:104D7C001E0000001F0000001F0000001D000000AE
:104D8C001F0000001E0000001F0000001E0000009D
:104D9C001F0000001F0000001E0000001F0000008C
:104DAC001E0000001F000000545A00474D540025FF
:104DBC0031305B5E302D392C2B2D5D256E004D2551
:104DCC006875256E2E256875256E2E256875256EE1
:104DDC00002F256875256E3A256875256E3A25686D
:104DEC0075256E00CD100808BD1708083920080875
:104DFC00FD20080851220808A524080841260808A7
:104E0C00492B0808792B0808E92B0808AD2C080851
:104E1C00312D0808B52D0808000000000000000026
:044E2C000000000082
:044E3000000000007E
:104E3400496E697469616C697A65000000004572A5
:104E4400726F7200000000000000000049646C658D
:104E5400000000000000000000004D6561737572E1
:104E6400696E6700000000005265706F7274696EAD
:104E7400670000000000526573706F6E7365205701
:104E840061697400536C656570696E6700000000A9
:104E940000004C6F772042617474657279000000E1
:104EA40024490808A86100000100000000004040F7
:104EB400F5480808FD480808024908080749080891
:104EC4000B49080810490808154908081949080831
:104ED4002F4B0808F14B080800000000F44C0808A8
:104EE400144D0808344D08080000000000000000BC
:104EF4000000000000000000E44408080000000076
:104F0400000000000000000000000000000000009D
:104F1400000000000000000000000000000000008D
:104F2400000000000000000000000000000000007D
:104F34000000000000000000A8000020B74D080891
:104F4400B74D080801000000000000004A000000FE
:104F5400000000000000000000000000000000004D
:104F640000000000000000004A00000000000000F3
:104F7400000000000000000000000000000000002D
:084F840000000000F808002005
:104F8C00FFFFFFFF00000102030405060708090AE2
:104F9C000B0C0D0E0F101112131415161718191ADD
:084FAC001B1C1D1E1F20280024
:044FB40078563412E5
:040000050808001CCB
:00000001FF
